{
  "_format": "hh-sol-artifact-1",
  "contractName": "ERC20CrossChain",
  "sourceName": "contracts/ERC20CrossChain.sol",
  "abi": [
    {
      "inputs": [
        {
          "internalType": "string",
          "name": "name_",
          "type": "string"
        },
        {
          "internalType": "string",
          "name": "symbol_",
          "type": "string"
        },
        {
          "internalType": "address",
          "name": "gateway_",
          "type": "address"
        },
        {
          "internalType": "address",
          "name": "gasReceiver_",
          "type": "address"
        }
      ],
      "stateMutability": "nonpayable",
      "type": "constructor"
    },
    {
      "inputs": [],
      "name": "AlreadyInitialized",
      "type": "error"
    },
    {
      "inputs": [],
      "name": "InvalidAddress",
      "type": "error"
    },
    {
      "inputs": [],
      "name": "NotApprovedByGateway",
      "type": "error"
    },
    {
      "anonymous": false,
      "inputs": [
        {
          "indexed": true,
          "internalType": "address",
          "name": "owner",
          "type": "address"
        },
        {
          "indexed": true,
          "internalType": "address",
          "name": "spender",
          "type": "address"
        },
        {
          "indexed": false,
          "internalType": "uint256",
          "name": "value",
          "type": "uint256"
        }
      ],
      "name": "Approval",
      "type": "event"
    },
    {
      "anonymous": false,
      "inputs": [
        {
          "indexed": false,
          "internalType": "string",
          "name": "sourceChain",
          "type": "string"
        },
        {
          "indexed": false,
          "internalType": "string",
          "name": "sourceAddress",
          "type": "string"
        }
      ],
      "name": "FalseSender",
      "type": "event"
    },
    {
      "anonymous": false,
      "inputs": [
        {
          "indexed": false,
          "internalType": "address",
          "name": "account",
          "type": "address"
        }
      ],
      "name": "Paused",
      "type": "event"
    },
    {
      "anonymous": false,
      "inputs": [
        {
          "indexed": true,
          "internalType": "bytes32",
          "name": "role",
          "type": "bytes32"
        },
        {
          "indexed": true,
          "internalType": "bytes32",
          "name": "previousAdminRole",
          "type": "bytes32"
        },
        {
          "indexed": true,
          "internalType": "bytes32",
          "name": "newAdminRole",
          "type": "bytes32"
        }
      ],
      "name": "RoleAdminChanged",
      "type": "event"
    },
    {
      "anonymous": false,
      "inputs": [
        {
          "indexed": true,
          "internalType": "bytes32",
          "name": "role",
          "type": "bytes32"
        },
        {
          "indexed": true,
          "internalType": "address",
          "name": "account",
          "type": "address"
        },
        {
          "indexed": true,
          "internalType": "address",
          "name": "sender",
          "type": "address"
        }
      ],
      "name": "RoleGranted",
      "type": "event"
    },
    {
      "anonymous": false,
      "inputs": [
        {
          "indexed": true,
          "internalType": "bytes32",
          "name": "role",
          "type": "bytes32"
        },
        {
          "indexed": true,
          "internalType": "address",
          "name": "account",
          "type": "address"
        },
        {
          "indexed": true,
          "internalType": "address",
          "name": "sender",
          "type": "address"
        }
      ],
      "name": "RoleRevoked",
      "type": "event"
    },
    {
      "anonymous": false,
      "inputs": [
        {
          "indexed": true,
          "internalType": "address",
          "name": "from",
          "type": "address"
        },
        {
          "indexed": true,
          "internalType": "address",
          "name": "to",
          "type": "address"
        },
        {
          "indexed": false,
          "internalType": "uint256",
          "name": "value",
          "type": "uint256"
        }
      ],
      "name": "Transfer",
      "type": "event"
    },
    {
      "anonymous": false,
      "inputs": [
        {
          "indexed": false,
          "internalType": "address",
          "name": "account",
          "type": "address"
        }
      ],
      "name": "Unpaused",
      "type": "event"
    },
    {
      "inputs": [],
      "name": "DEFAULT_ADMIN_ROLE",
      "outputs": [
        {
          "internalType": "bytes32",
          "name": "",
          "type": "bytes32"
        }
      ],
      "stateMutability": "view",
      "type": "function"
    },
    {
      "inputs": [],
      "name": "MINTER_ROLE",
      "outputs": [
        {
          "internalType": "bytes32",
          "name": "",
          "type": "bytes32"
        }
      ],
      "stateMutability": "view",
      "type": "function"
    },
    {
      "inputs": [],
      "name": "PAUSER_ROLE",
      "outputs": [
        {
          "internalType": "bytes32",
          "name": "",
          "type": "bytes32"
        }
      ],
      "stateMutability": "view",
      "type": "function"
    },
    {
      "inputs": [
        {
          "internalType": "address",
          "name": "owner",
          "type": "address"
        },
        {
          "internalType": "address",
          "name": "spender",
          "type": "address"
        }
      ],
      "name": "allowance",
      "outputs": [
        {
          "internalType": "uint256",
          "name": "",
          "type": "uint256"
        }
      ],
      "stateMutability": "view",
      "type": "function"
    },
    {
      "inputs": [
        {
          "internalType": "address",
          "name": "spender",
          "type": "address"
        },
        {
          "internalType": "uint256",
          "name": "amount",
          "type": "uint256"
        }
      ],
      "name": "approve",
      "outputs": [
        {
          "internalType": "bool",
          "name": "",
          "type": "bool"
        }
      ],
      "stateMutability": "nonpayable",
      "type": "function"
    },
    {
      "inputs": [
        {
          "internalType": "address",
          "name": "account",
          "type": "address"
        }
      ],
      "name": "balanceOf",
      "outputs": [
        {
          "internalType": "uint256",
          "name": "",
          "type": "uint256"
        }
      ],
      "stateMutability": "view",
      "type": "function"
    },
    {
      "inputs": [
        {
          "internalType": "uint256",
          "name": "amount",
          "type": "uint256"
        }
      ],
      "name": "burn",
      "outputs": [],
      "stateMutability": "nonpayable",
      "type": "function"
    },
    {
      "inputs": [
        {
          "internalType": "address",
          "name": "account",
          "type": "address"
        },
        {
          "internalType": "uint256",
          "name": "amount",
          "type": "uint256"
        }
      ],
      "name": "burnFrom",
      "outputs": [],
      "stateMutability": "nonpayable",
      "type": "function"
    },
    {
      "inputs": [],
      "name": "decimals",
      "outputs": [
        {
          "internalType": "uint8",
          "name": "",
          "type": "uint8"
        }
      ],
      "stateMutability": "view",
      "type": "function"
    },
    {
      "inputs": [
        {
          "internalType": "address",
          "name": "spender",
          "type": "address"
        },
        {
          "internalType": "uint256",
          "name": "subtractedValue",
          "type": "uint256"
        }
      ],
      "name": "decreaseAllowance",
      "outputs": [
        {
          "internalType": "bool",
          "name": "",
          "type": "bool"
        }
      ],
      "stateMutability": "nonpayable",
      "type": "function"
    },
    {
      "inputs": [
        {
          "internalType": "bytes32",
          "name": "commandId",
          "type": "bytes32"
        },
        {
          "internalType": "string",
          "name": "sourceChain",
          "type": "string"
        },
        {
          "internalType": "string",
          "name": "sourceAddress",
          "type": "string"
        },
        {
          "internalType": "bytes",
          "name": "payload",
          "type": "bytes"
        }
      ],
      "name": "execute",
      "outputs": [],
      "stateMutability": "nonpayable",
      "type": "function"
    },
    {
      "inputs": [
        {
          "internalType": "bytes32",
          "name": "commandId",
          "type": "bytes32"
        },
        {
          "internalType": "string",
          "name": "sourceChain",
          "type": "string"
        },
        {
          "internalType": "string",
          "name": "sourceAddress",
          "type": "string"
        },
        {
          "internalType": "bytes",
          "name": "payload",
          "type": "bytes"
        },
        {
          "internalType": "string",
          "name": "tokenSymbol",
          "type": "string"
        },
        {
          "internalType": "uint256",
          "name": "amount",
          "type": "uint256"
        }
      ],
      "name": "executeWithToken",
      "outputs": [],
      "stateMutability": "nonpayable",
      "type": "function"
    },
    {
      "inputs": [],
      "name": "gasReceiver",
      "outputs": [
        {
          "internalType": "contract IAxelarGasService",
          "name": "",
          "type": "address"
        }
      ],
      "stateMutability": "view",
      "type": "function"
    },
    {
      "inputs": [],
      "name": "gateway",
      "outputs": [
        {
          "internalType": "contract IAxelarGateway",
          "name": "",
          "type": "address"
        }
      ],
      "stateMutability": "view",
      "type": "function"
    },
    {
      "inputs": [
        {
          "internalType": "bytes32",
          "name": "role",
          "type": "bytes32"
        }
      ],
      "name": "getRoleAdmin",
      "outputs": [
        {
          "internalType": "bytes32",
          "name": "",
          "type": "bytes32"
        }
      ],
      "stateMutability": "view",
      "type": "function"
    },
    {
      "inputs": [
        {
          "internalType": "bytes32",
          "name": "role",
          "type": "bytes32"
        },
        {
          "internalType": "uint256",
          "name": "index",
          "type": "uint256"
        }
      ],
      "name": "getRoleMember",
      "outputs": [
        {
          "internalType": "address",
          "name": "",
          "type": "address"
        }
      ],
      "stateMutability": "view",
      "type": "function"
    },
    {
      "inputs": [
        {
          "internalType": "bytes32",
          "name": "role",
          "type": "bytes32"
        }
      ],
      "name": "getRoleMemberCount",
      "outputs": [
        {
          "internalType": "uint256",
          "name": "",
          "type": "uint256"
        }
      ],
      "stateMutability": "view",
      "type": "function"
    },
    {
      "inputs": [
        {
          "internalType": "uint256",
          "name": "amount",
          "type": "uint256"
        }
      ],
      "name": "giveMe",
      "outputs": [],
      "stateMutability": "nonpayable",
      "type": "function"
    },
    {
      "inputs": [
        {
          "internalType": "bytes32",
          "name": "role",
          "type": "bytes32"
        },
        {
          "internalType": "address",
          "name": "account",
          "type": "address"
        }
      ],
      "name": "grantRole",
      "outputs": [],
      "stateMutability": "nonpayable",
      "type": "function"
    },
    {
      "inputs": [
        {
          "internalType": "bytes32",
          "name": "role",
          "type": "bytes32"
        },
        {
          "internalType": "address",
          "name": "account",
          "type": "address"
        }
      ],
      "name": "hasRole",
      "outputs": [
        {
          "internalType": "bool",
          "name": "",
          "type": "bool"
        }
      ],
      "stateMutability": "view",
      "type": "function"
    },
    {
      "inputs": [
        {
          "internalType": "address",
          "name": "spender",
          "type": "address"
        },
        {
          "internalType": "uint256",
          "name": "addedValue",
          "type": "uint256"
        }
      ],
      "name": "increaseAllowance",
      "outputs": [
        {
          "internalType": "bool",
          "name": "",
          "type": "bool"
        }
      ],
      "stateMutability": "nonpayable",
      "type": "function"
    },
    {
      "inputs": [
        {
          "internalType": "address",
          "name": "to",
          "type": "address"
        },
        {
          "internalType": "uint256",
          "name": "amount",
          "type": "uint256"
        }
      ],
      "name": "mint",
      "outputs": [],
      "stateMutability": "nonpayable",
      "type": "function"
    },
    {
      "inputs": [],
      "name": "name",
      "outputs": [
        {
          "internalType": "string",
          "name": "",
          "type": "string"
        }
      ],
      "stateMutability": "view",
      "type": "function"
    },
    {
      "inputs": [],
      "name": "pause",
      "outputs": [],
      "stateMutability": "nonpayable",
      "type": "function"
    },
    {
      "inputs": [],
      "name": "paused",
      "outputs": [
        {
          "internalType": "bool",
          "name": "",
          "type": "bool"
        }
      ],
      "stateMutability": "view",
      "type": "function"
    },
    {
      "inputs": [
        {
          "internalType": "bytes32",
          "name": "role",
          "type": "bytes32"
        },
        {
          "internalType": "address",
          "name": "account",
          "type": "address"
        }
      ],
      "name": "renounceRole",
      "outputs": [],
      "stateMutability": "nonpayable",
      "type": "function"
    },
    {
      "inputs": [
        {
          "internalType": "bytes32",
          "name": "role",
          "type": "bytes32"
        },
        {
          "internalType": "address",
          "name": "account",
          "type": "address"
        }
      ],
      "name": "revokeRole",
      "outputs": [],
      "stateMutability": "nonpayable",
      "type": "function"
    },
    {
      "inputs": [
        {
          "internalType": "string",
          "name": "destinationChain",
          "type": "string"
        },
        {
          "internalType": "bytes",
          "name": "payload",
          "type": "bytes"
        }
      ],
      "name": "sendGas",
      "outputs": [],
      "stateMutability": "payable",
      "type": "function"
    },
    {
      "inputs": [
        {
          "internalType": "bytes4",
          "name": "interfaceId",
          "type": "bytes4"
        }
      ],
      "name": "supportsInterface",
      "outputs": [
        {
          "internalType": "bool",
          "name": "",
          "type": "bool"
        }
      ],
      "stateMutability": "view",
      "type": "function"
    },
    {
      "inputs": [],
      "name": "symbol",
      "outputs": [
        {
          "internalType": "string",
          "name": "",
          "type": "string"
        }
      ],
      "stateMutability": "view",
      "type": "function"
    },
    {
      "inputs": [],
      "name": "totalSupply",
      "outputs": [
        {
          "internalType": "uint256",
          "name": "",
          "type": "uint256"
        }
      ],
      "stateMutability": "view",
      "type": "function"
    },
    {
      "inputs": [
        {
          "internalType": "address",
          "name": "to",
          "type": "address"
        },
        {
          "internalType": "uint256",
          "name": "amount",
          "type": "uint256"
        }
      ],
      "name": "transfer",
      "outputs": [
        {
          "internalType": "bool",
          "name": "",
          "type": "bool"
        }
      ],
      "stateMutability": "nonpayable",
      "type": "function"
    },
    {
      "inputs": [
        {
          "internalType": "address",
          "name": "from",
          "type": "address"
        },
        {
          "internalType": "address",
          "name": "to",
          "type": "address"
        },
        {
          "internalType": "uint256",
          "name": "amount",
          "type": "uint256"
        }
      ],
      "name": "transferFrom",
      "outputs": [
        {
          "internalType": "bool",
          "name": "",
          "type": "bool"
        }
      ],
      "stateMutability": "nonpayable",
      "type": "function"
    },
    {
      "inputs": [
        {
          "internalType": "string",
          "name": "destinationChain",
          "type": "string"
        },
        {
          "internalType": "string",
          "name": "destinationAddress",
          "type": "string"
        },
        {
          "internalType": "address[]",
          "name": "recipients",
          "type": "address[]"
        },
        {
          "internalType": "uint256[]",
          "name": "amounts",
          "type": "uint256[]"
        }
      ],
      "name": "transferRemote",
      "outputs": [],
      "stateMutability": "payable",
      "type": "function"
    },
    {
      "inputs": [],
      "name": "unpause",
      "outputs": [],
      "stateMutability": "nonpayable",
      "type": "function"
    }
  ],
  "bytecode": "0x60a06040523480156200001157600080fd5b50604051620035aa380380620035aa8339810160408190526200003491620006d7565b83838181856001600160a01b038116620000615760405163e6c4247b60e01b815260040160405180910390fd5b6001600160a01b03166080528151620000829060059060208501906200053a565b508051620000989060069060208401906200053a565b50506007805460ff1916905550620000b260003362000140565b620000cd6000805160206200358a8339815191523362000140565b620000f97f65d7a28e3265b37a6474929f336521b332c1681b933f6cb9f3376673440d862a3362000140565b505060078054610100600160a81b0319166101006001600160a01b03841602179055620001366000805160206200358a8339815191523062000150565b50505050620008d4565b6200014c82826200017e565b5050565b6000828152602081905260409020600101546200016d81620001bc565b6200017983836200017e565b505050565b620001958282620001cb60201b620010711760201c565b6000828152600160209081526040909120620001799183906200110f6200026b821b17901c565b620001c881336200028b565b50565b6000828152602081815260408083206001600160a01b038516845290915290205460ff166200014c576000828152602081815260408083206001600160a01b03851684529091529020805460ff19166001179055620002273390565b6001600160a01b0316816001600160a01b0316837f2f8788117e7eff1d82e926ec794901d17c78024a50270940304540a733656f0d60405160405180910390a45050565b600062000282836001600160a01b0384166200032f565b90505b92915050565b6000828152602081815260408083206001600160a01b038516845290915290205460ff166200014c57620002d5816001600160a01b031660146200038160201b620011241760201c565b620002eb8360206200112462000381821b17811c565b604051602001620002fe92919062000766565b60408051601f198184030181529082905262461bcd60e51b82526200032691600401620007df565b60405180910390fd5b6000818152600183016020526040812054620003785750815460018181018455600084815260208082209093018490558454848252828601909352604090209190915562000285565b50600062000285565b60606000620003928360026200082a565b6200039f9060026200084c565b6001600160401b03811115620003b957620003b9620005e0565b6040519080825280601f01601f191660200182016040528015620003e4576020820181803683370190505b509050600360fc1b8160008151811062000402576200040262000867565b60200101906001600160f81b031916908160001a905350600f60fb1b8160018151811062000434576200043462000867565b60200101906001600160f81b031916908160001a90535060006200045a8460026200082a565b620004679060016200084c565b90505b6001811115620004e9576f181899199a1a9b1b9c1cb0b131b232b360811b85600f16601081106200049f576200049f62000867565b1a60f81b828281518110620004b857620004b862000867565b60200101906001600160f81b031916908160001a90535060049490941c93620004e1816200087d565b90506200046a565b508315620002825760405162461bcd60e51b815260206004820181905260248201527f537472696e67733a20686578206c656e67746820696e73756666696369656e74604482015260640162000326565b828054620005489062000897565b90600052602060002090601f0160209004810192826200056c5760008555620005b7565b82601f106200058757805160ff1916838001178555620005b7565b82800160010185558215620005b7579182015b82811115620005b75782518255916020019190600101906200059a565b50620005c5929150620005c9565b5090565b5b80821115620005c55760008155600101620005ca565b634e487b7160e01b600052604160045260246000fd5b60005b8381101562000613578181015183820152602001620005f9565b8381111562000623576000848401525b50505050565b600082601f8301126200063b57600080fd5b81516001600160401b0380821115620006585762000658620005e0565b604051601f8301601f19908116603f01168101908282118183101715620006835762000683620005e0565b816040528381528660208588010111156200069d57600080fd5b620006b0846020830160208901620005f6565b9695505050505050565b80516001600160a01b0381168114620006d257600080fd5b919050565b60008060008060808587031215620006ee57600080fd5b84516001600160401b03808211156200070657600080fd5b620007148883890162000629565b955060208701519150808211156200072b57600080fd5b506200073a8782880162000629565b9350506200074b60408601620006ba565b91506200075b60608601620006ba565b905092959194509250565b7f416363657373436f6e74726f6c3a206163636f756e7420000000000000000000815260008351620007a0816017850160208801620005f6565b7001034b99036b4b9b9b4b733903937b6329607d1b6017918401918201528351620007d3816028840160208801620005f6565b01602801949350505050565b602081526000825180602084015262000800816040850160208701620005f6565b601f01601f19169190910160400192915050565b634e487b7160e01b600052601160045260246000fd5b600081600019048311821515161562000847576200084762000814565b500290565b6000821982111562000862576200086262000814565b500190565b634e487b7160e01b600052603260045260246000fd5b6000816200088f576200088f62000814565b506000190190565b600181811c90821680620008ac57607f821691505b60208210811415620008ce57634e487b7160e01b600052602260045260246000fd5b50919050565b608051612c8562000905600039600081816102c20152818161086001528181610c6c0152610fd10152612c856000f3fe6080604052600436106102345760003560e01c80634916065811610138578063a217fddf116100b0578063ca5978661161007f578063d547741f11610064578063d547741f1461068e578063dd62ed3e146106ae578063e63ab1e9146106f457600080fd5b8063ca59786614610647578063d53913931461065a57600080fd5b8063a217fddf146105d2578063a457c2d7146105e7578063a9059cbb14610607578063ca15c8731461062757600080fd5b806380d14b4a116101075780639010d07c116100ec5780639010d07c1461055957806391d148541461057957806395d89b41146105bd57600080fd5b806380d14b4a1461051f5780638456cb591461054457600080fd5b806349160658146104915780635c975abb146104b157806370a08231146104c957806379cc6790146104ff57600080fd5b80632f2ff15d116101cb5780633f4ba83a1161019a57806342966c681161017f57806342966c681461043e57806344dee17f1461045e578063457002051461047e57600080fd5b80633f4ba83a1461040957806340c10f191461041e57600080fd5b80632f2ff15d1461038d578063313ce567146103ad57806336568abe146103c957806339509351146103e957600080fd5b806318160ddd1161020757806318160ddd146102fc5780631a98b2e01461031b57806323b872dd1461033d578063248a9ca31461035d57600080fd5b806301ffc9a71461023957806306fdde031461026e578063095ea7b314610290578063116191b6146102b0575b600080fd5b34801561024557600080fd5b5061025961025436600461216f565b610728565b60405190151581526020015b60405180910390f35b34801561027a57600080fd5b5061028361076c565b60405161026591906121f1565b34801561029c57600080fd5b506102596102ab366004612220565b6107fe565b3480156102bc57600080fd5b506102e47f000000000000000000000000000000000000000000000000000000000000000081565b6040516001600160a01b039091168152602001610265565b34801561030857600080fd5b506004545b604051908152602001610265565b34801561032757600080fd5b5061033b610336366004612293565b610816565b005b34801561034957600080fd5b5061025961035836600461236d565b610921565b34801561036957600080fd5b5061030d6103783660046123a9565b60009081526020819052604090206001015490565b34801561039957600080fd5b5061033b6103a83660046123c2565b610945565b3480156103b957600080fd5b5060405160128152602001610265565b3480156103d557600080fd5b5061033b6103e43660046123c2565b61096f565b3480156103f557600080fd5b50610259610404366004612220565b610a00565b34801561041557600080fd5b5061033b610a3f565b34801561042a57600080fd5b5061033b610439366004612220565b610ae5565b34801561044a57600080fd5b5061033b6104593660046123a9565b610b8b565b34801561046a57600080fd5b5061033b6104793660046123a9565b610b98565b61033b61048c36600461248d565b610ba2565b34801561049d57600080fd5b5061033b6104ac36600461251c565b610c22565b3480156104bd57600080fd5b5060075460ff16610259565b3480156104d557600080fd5b5061030d6104e43660046125c0565b6001600160a01b031660009081526002602052604090205490565b34801561050b57600080fd5b5061033b61051a366004612220565b610d32565b34801561052b57600080fd5b506007546102e49061010090046001600160a01b031681565b34801561055057600080fd5b5061033b610d47565b34801561056557600080fd5b506102e46105743660046125db565b610deb565b34801561058557600080fd5b506102596105943660046123c2565b6000918252602082815260408084206001600160a01b0393909316845291905290205460ff1690565b3480156105c957600080fd5b50610283610e0a565b3480156105de57600080fd5b5061030d600081565b3480156105f357600080fd5b50610259610602366004612220565b610e19565b34801561061357600080fd5b50610259610622366004612220565b610ec3565b34801561063357600080fd5b5061030d6106423660046123a9565b610ed1565b61033b610655366004612642565b610ee8565b34801561066657600080fd5b5061030d7f9f2df0fed2c77648de5860a4cc508cd0818c85b8b8a1ab4ceeef8d981c8956a681565b34801561069a57600080fd5b5061033b6106a93660046123c2565b61104c565b3480156106ba57600080fd5b5061030d6106c9366004612706565b6001600160a01b03918216600090815260036020908152604080832093909416825291909152205490565b34801561070057600080fd5b5061030d7f65d7a28e3265b37a6474929f336521b332c1681b933f6cb9f3376673440d862a81565b60006001600160e01b031982167f5a05180f0000000000000000000000000000000000000000000000000000000014806107665750610766826112cd565b92915050565b60606005805461077b90612730565b80601f01602080910402602001604051908101604052809291908181526020018280546107a790612730565b80156107f45780601f106107c9576101008083540402835291602001916107f4565b820191906000526020600020905b8154815290600101906020018083116107d757829003601f168201915b5050505050905090565b60003361080c818585611334565b5060019392505050565b6000858560405161082892919061276b565b6040519081900381207f1876eed900000000000000000000000000000000000000000000000000000000825291506001600160a01b037f00000000000000000000000000000000000000000000000000000000000000001690631876eed9906108a5908e908e908e908e908e9089908d908d908d906004016127a4565b602060405180830381600087803b1580156108bf57600080fd5b505af11580156108d3573d6000803e3d6000fd5b505050506040513d601f19601f820116820180604052508101906108f79190612803565b61091457604051631403112d60e21b815260040160405180910390fd5b5050505050505050505050565b60003361092f858285611497565b61093a858585611529565b506001949350505050565b6000828152602081905260409020600101546109608161174b565b61096a8383611755565b505050565b6001600160a01b03811633146109f25760405162461bcd60e51b815260206004820152602f60248201527f416363657373436f6e74726f6c3a2063616e206f6e6c792072656e6f756e636560448201527f20726f6c657320666f722073656c66000000000000000000000000000000000060648201526084015b60405180910390fd5b6109fc8282611777565b5050565b3360008181526003602090815260408083206001600160a01b038716845290915281205490919061080c9082908690610a3a90879061283b565b611334565b610a697f65d7a28e3265b37a6474929f336521b332c1681b933f6cb9f3376673440d862a33610594565b610adb5760405162461bcd60e51b815260206004820152603960248201527f45524332305072657365744d696e7465725061757365723a206d75737420686160448201527f76652070617573657220726f6c6520746f20756e70617573650000000000000060648201526084016109e9565b610ae3611799565b565b610b0f7f9f2df0fed2c77648de5860a4cc508cd0818c85b8b8a1ab4ceeef8d981c8956a633610594565b610b815760405162461bcd60e51b815260206004820152603660248201527f45524332305072657365744d696e7465725061757365723a206d75737420686160448201527f7665206d696e74657220726f6c6520746f206d696e740000000000000000000060648201526084016109e9565b6109fc82826117eb565b610b9533826118d6565b50565b610b9533826117eb565b34156109fc5760075461010090046001600160a01b0316630c93e3bb343085610bca82611a67565b86336040518763ffffffff1660e01b8152600401610bec959493929190612853565b6000604051808303818588803b158015610c0557600080fd5b505af1158015610c19573d6000803e3d6000fd5b50505050505050565b60008282604051610c3492919061276b565b6040519081900381207f5f6970c300000000000000000000000000000000000000000000000000000000825291506001600160a01b037f00000000000000000000000000000000000000000000000000000000000000001690635f6970c390610cab908b908b908b908b908b9089906004016128b2565b602060405180830381600087803b158015610cc557600080fd5b505af1158015610cd9573d6000803e3d6000fd5b505050506040513d601f19601f82011682018060405250810190610cfd9190612803565b610d1a57604051631403112d60e21b815260040160405180910390fd5b610d28878787878787611cff565b5050505050505050565b610d3d823383611497565b6109fc82826118d6565b610d717f65d7a28e3265b37a6474929f336521b332c1681b933f6cb9f3376673440d862a33610594565b610de35760405162461bcd60e51b815260206004820152603760248201527f45524332305072657365744d696e7465725061757365723a206d75737420686160448201527f76652070617573657220726f6c6520746f20706175736500000000000000000060648201526084016109e9565b610ae3611d75565b6000828152600160205260408120610e039083611db2565b9392505050565b60606006805461077b90612730565b3360008181526003602090815260408083206001600160a01b038716845290915281205490919083811015610eb65760405162461bcd60e51b815260206004820152602560248201527f45524332303a2064656372656173656420616c6c6f77616e63652062656c6f7760448201527f207a65726f00000000000000000000000000000000000000000000000000000060648201526084016109e9565b61093a8286868403611334565b60003361080c818585611529565b600081815260016020526040812061076690611dbe565b6000805b60ff8116831115610f325783838260ff16818110610f0c57610f0c6128f3565b9050602002013582610f1e919061283b565b915080610f2a81612909565b915050610eec565b50610f3d33826118d6565b600085858585604051602001610f569493929190612929565b60408051601f198184030181526020601f8d018190048102840181019092528b83529250610fa191908c908c9081908401838280828437600092019190915250859250610ba2915050565b6040517f1c92115f0000000000000000000000000000000000000000000000000000000081526001600160a01b037f00000000000000000000000000000000000000000000000000000000000000001690631c92115f9061100e908d908d908d908d9088906004016129c4565b600060405180830381600087803b15801561102857600080fd5b505af115801561103c573d6000803e3d6000fd5b5050505050505050505050505050565b6000828152602081905260409020600101546110678161174b565b61096a8383611777565b6000828152602081815260408083206001600160a01b038516845290915290205460ff166109fc576000828152602081815260408083206001600160a01b03851684529091529020805460ff191660011790556110cb3390565b6001600160a01b0316816001600160a01b0316837f2f8788117e7eff1d82e926ec794901d17c78024a50270940304540a733656f0d60405160405180910390a45050565b6000610e03836001600160a01b038416611dc8565b60606000611133836002612a0b565b61113e90600261283b565b67ffffffffffffffff811115611156576111566123ee565b6040519080825280601f01601f191660200182016040528015611180576020820181803683370190505b509050600360fc1b8160008151811061119b5761119b6128f3565b60200101906001600160f81b031916908160001a905350600f60fb1b816001815181106111ca576111ca6128f3565b60200101906001600160f81b031916908160001a90535060006111ee846002612a0b565b6111f990600161283b565b90505b600181111561127e577f303132333435363738396162636465660000000000000000000000000000000085600f166010811061123a5761123a6128f3565b1a60f81b828281518110611250576112506128f3565b60200101906001600160f81b031916908160001a90535060049490941c9361127781612a2a565b90506111fc565b508315610e035760405162461bcd60e51b815260206004820181905260248201527f537472696e67733a20686578206c656e67746820696e73756666696369656e7460448201526064016109e9565b60006001600160e01b031982167f7965db0b00000000000000000000000000000000000000000000000000000000148061076657507f01ffc9a7000000000000000000000000000000000000000000000000000000006001600160e01b0319831614610766565b6001600160a01b0383166113af5760405162461bcd60e51b8152602060048201526024808201527f45524332303a20617070726f76652066726f6d20746865207a65726f2061646460448201527f726573730000000000000000000000000000000000000000000000000000000060648201526084016109e9565b6001600160a01b03821661142b5760405162461bcd60e51b815260206004820152602260248201527f45524332303a20617070726f766520746f20746865207a65726f20616464726560448201527f737300000000000000000000000000000000000000000000000000000000000060648201526084016109e9565b6001600160a01b0383811660008181526003602090815260408083209487168084529482529182902085905590518481527f8c5be1e5ebec7d5bd14f71427d1e84f3dd0314c0f7b2291e5b200ac8c7c3b925910160405180910390a3505050565b505050505050505050565b6001600160a01b03838116600090815260036020908152604080832093861683529290522054600019811461152357818110156115165760405162461bcd60e51b815260206004820152601d60248201527f45524332303a20696e73756666696369656e7420616c6c6f77616e636500000060448201526064016109e9565b6115238484848403611334565b50505050565b6001600160a01b0383166115a55760405162461bcd60e51b815260206004820152602560248201527f45524332303a207472616e736665722066726f6d20746865207a65726f20616460448201527f647265737300000000000000000000000000000000000000000000000000000060648201526084016109e9565b6001600160a01b0382166116215760405162461bcd60e51b815260206004820152602360248201527f45524332303a207472616e7366657220746f20746865207a65726f206164647260448201527f657373000000000000000000000000000000000000000000000000000000000060648201526084016109e9565b61162c838383611e17565b6001600160a01b038316600090815260026020526040902054818110156116bb5760405162461bcd60e51b815260206004820152602660248201527f45524332303a207472616e7366657220616d6f756e742065786365656473206260448201527f616c616e6365000000000000000000000000000000000000000000000000000060648201526084016109e9565b6001600160a01b038085166000908152600260205260408082208585039055918516815290812080548492906116f290849061283b565b92505081905550826001600160a01b0316846001600160a01b03167fddf252ad1be2c89b69c2b068fc378daa952ba7f163c4a11628f55a4df523b3ef8460405161173e91815260200190565b60405180910390a3611523565b610b958133611e22565b61175f8282611071565b600082815260016020526040902061096a908261110f565b6117818282611ea0565b600082815260016020526040902061096a9082611f1f565b6117a1611f34565b6007805460ff191690557f5db9ee0a495bf2e6ff9c91a7834c1ba4fdd244a5e8aa4e537bd38aeae4b073aa335b6040516001600160a01b03909116815260200160405180910390a1565b6001600160a01b0382166118415760405162461bcd60e51b815260206004820152601f60248201527f45524332303a206d696e7420746f20746865207a65726f20616464726573730060448201526064016109e9565b61184d60008383611e17565b806004600082825461185f919061283b565b90915550506001600160a01b0382166000908152600260205260408120805483929061188c90849061283b565b90915550506040518181526001600160a01b038316906000907fddf252ad1be2c89b69c2b068fc378daa952ba7f163c4a11628f55a4df523b3ef9060200160405180910390a35050565b6001600160a01b0382166119525760405162461bcd60e51b815260206004820152602160248201527f45524332303a206275726e2066726f6d20746865207a65726f2061646472657360448201527f730000000000000000000000000000000000000000000000000000000000000060648201526084016109e9565b61195e82600083611e17565b6001600160a01b038216600090815260026020526040902054818110156119ed5760405162461bcd60e51b815260206004820152602260248201527f45524332303a206275726e20616d6f756e7420657863656564732062616c616e60448201527f636500000000000000000000000000000000000000000000000000000000000060648201526084016109e9565b6001600160a01b0383166000908152600260205260408120838303905560048054849290611a1c908490612a41565b90915550506040518281526000906001600160a01b038516907fddf252ad1be2c89b69c2b068fc378daa952ba7f163c4a11628f55a4df523b3ef9060200160405180910390a3505050565b604051606082811b6bffffffffffffffffffffffff191660208301529060009060340160408051601f19818403018152828201909152601082527f303132333435363738396162636465660000000000000000000000000000000060208301528051909250600090611ada906002612a0b565b611ae590600261283b565b67ffffffffffffffff811115611afd57611afd6123ee565b6040519080825280601f01601f191660200182016040528015611b27576020820181803683370190505b509050600360fc1b81600081518110611b4257611b426128f3565b60200101906001600160f81b031916908160001a905350600f60fb1b81600181518110611b7157611b716128f3565b60200101906001600160f81b031916908160001a90535060005b8351811015611cf657826004858381518110611ba957611ba96128f3565b016020015182517fff0000000000000000000000000000000000000000000000000000000000000090911690911c60f81c908110611be957611be96128f3565b01602001517fff000000000000000000000000000000000000000000000000000000000000001682611c1c836002612a0b565b611c2790600261283b565b81518110611c3757611c376128f3565b60200101906001600160f81b031916908160001a90535082848281518110611c6157611c616128f3565b602091010151815160f89190911c600f16908110611c8157611c816128f3565b01602001517fff000000000000000000000000000000000000000000000000000000000000001682611cb4836002612a0b565b611cbf90600361283b565b81518110611ccf57611ccf6128f3565b60200101906001600160f81b031916908160001a905350611cef81612a58565b9050611b8b565b50949350505050565b600080611d0e83850185612b02565b9150915060005b81518160ff16101561148c57611d63838260ff1681518110611d3957611d396128f3565b6020026020010151838360ff1681518110611d5657611d566128f3565b60200260200101516117eb565b80611d6d81612909565b915050611d15565b611d7d611f86565b6007805460ff191660011790557f62e78cea01bee320cd4e420270b5ea74000d11b0c9f74754ebdbfc544b05a2586117ce3390565b6000610e038383611fd9565b6000610766825490565b6000818152600183016020526040812054611e0f57508154600181810184556000848152602080822090930184905584548482528286019093526040902091909155610766565b506000610766565b61096a838383612003565b6000828152602081815260408083206001600160a01b038516845290915290205460ff166109fc57611e5e816001600160a01b03166014611124565b611e69836020611124565b604051602001611e7a929190612bb8565b60408051601f198184030181529082905262461bcd60e51b82526109e9916004016121f1565b6000828152602081815260408083206001600160a01b038516845290915290205460ff16156109fc576000828152602081815260408083206001600160a01b0385168085529252808320805460ff1916905551339285917ff6391f5c32d9c69d2a47ea670b442974b53935d1edc7fd64eb21e047a839171b9190a45050565b6000610e03836001600160a01b03841661207c565b60075460ff16610ae35760405162461bcd60e51b815260206004820152601460248201527f5061757361626c653a206e6f742070617573656400000000000000000000000060448201526064016109e9565b60075460ff1615610ae35760405162461bcd60e51b815260206004820152601060248201527f5061757361626c653a207061757365640000000000000000000000000000000060448201526064016109e9565b6000826000018281548110611ff057611ff06128f3565b9060005260206000200154905092915050565b60075460ff161561096a5760405162461bcd60e51b815260206004820152602a60248201527f45524332305061757361626c653a20746f6b656e207472616e7366657220776860448201527f696c65207061757365640000000000000000000000000000000000000000000060648201526084016109e9565b600081815260018301602052604081205480156121655760006120a0600183612a41565b85549091506000906120b490600190612a41565b90508181146121195760008660000182815481106120d4576120d46128f3565b90600052602060002001549050808760000184815481106120f7576120f76128f3565b6000918252602080832090910192909255918252600188019052604090208390555b855486908061212a5761212a612c39565b600190038181906000526020600020016000905590558560010160008681526020019081526020016000206000905560019350505050610766565b6000915050610766565b60006020828403121561218157600080fd5b81356001600160e01b031981168114610e0357600080fd5b60005b838110156121b457818101518382015260200161219c565b838111156115235750506000910152565b600081518084526121dd816020860160208601612199565b601f01601f19169290920160200192915050565b602081526000610e0360208301846121c5565b80356001600160a01b038116811461221b57600080fd5b919050565b6000806040838503121561223357600080fd5b61223c83612204565b946020939093013593505050565b60008083601f84011261225c57600080fd5b50813567ffffffffffffffff81111561227457600080fd5b60208301915083602082850101111561228c57600080fd5b9250929050565b60008060008060008060008060008060c08b8d0312156122b257600080fd5b8a35995060208b013567ffffffffffffffff808211156122d157600080fd5b6122dd8e838f0161224a565b909b50995060408d01359150808211156122f657600080fd5b6123028e838f0161224a565b909950975060608d013591508082111561231b57600080fd5b6123278e838f0161224a565b909750955060808d013591508082111561234057600080fd5b5061234d8d828e0161224a565b9150809450508092505060a08b013590509295989b9194979a5092959850565b60008060006060848603121561238257600080fd5b61238b84612204565b925061239960208501612204565b9150604084013590509250925092565b6000602082840312156123bb57600080fd5b5035919050565b600080604083850312156123d557600080fd5b823591506123e560208401612204565b90509250929050565b634e487b7160e01b600052604160045260246000fd5b604051601f8201601f1916810167ffffffffffffffff8111828210171561242d5761242d6123ee565b604052919050565b600067ffffffffffffffff83111561244f5761244f6123ee565b612462601f8401601f1916602001612404565b905082815283838301111561247657600080fd5b828260208301376000602084830101529392505050565b600080604083850312156124a057600080fd5b823567ffffffffffffffff808211156124b857600080fd5b818501915085601f8301126124cc57600080fd5b6124db86833560208501612435565b935060208501359150808211156124f157600080fd5b508301601f8101851361250357600080fd5b61251285823560208401612435565b9150509250929050565b60008060008060008060006080888a03121561253757600080fd5b87359650602088013567ffffffffffffffff8082111561255657600080fd5b6125628b838c0161224a565b909850965060408a013591508082111561257b57600080fd5b6125878b838c0161224a565b909650945060608a01359150808211156125a057600080fd5b506125ad8a828b0161224a565b989b979a50959850939692959293505050565b6000602082840312156125d257600080fd5b610e0382612204565b600080604083850312156125ee57600080fd5b50508035926020909101359150565b60008083601f84011261260f57600080fd5b50813567ffffffffffffffff81111561262757600080fd5b6020830191508360208260051b850101111561228c57600080fd5b6000806000806000806000806080898b03121561265e57600080fd5b883567ffffffffffffffff8082111561267657600080fd5b6126828c838d0161224a565b909a50985060208b013591508082111561269b57600080fd5b6126a78c838d0161224a565b909850965060408b01359150808211156126c057600080fd5b6126cc8c838d016125fd565b909650945060608b01359150808211156126e557600080fd5b506126f28b828c016125fd565b999c989b5096995094979396929594505050565b6000806040838503121561271957600080fd5b61272283612204565b91506123e560208401612204565b600181811c9082168061274457607f821691505b6020821081141561276557634e487b7160e01b600052602260045260246000fd5b50919050565b8183823760009101908152919050565b81835281816020850137506000828201602090810191909152601f909101601f19169091010190565b89815260c0602082015260006127be60c083018a8c61277b565b82810360408401526127d181898b61277b565b905086606084015282810360808401526127ec81868861277b565b9150508260a08301529a9950505050505050505050565b60006020828403121561281557600080fd5b81518015158114610e0357600080fd5b634e487b7160e01b600052601160045260246000fd5b6000821982111561284e5761284e612825565b500190565b60006001600160a01b03808816835260a0602084015261287660a08401886121c5565b838103604085015261288881886121c5565b9050838103606085015261289c81876121c5565b9250508084166080840152509695505050505050565b8681526080602082015260006128cc60808301878961277b565b82810360408401526128df81868861277b565b915050826060830152979650505050505050565b634e487b7160e01b600052603260045260246000fd5b600060ff821660ff81141561292057612920612825565b60010192915050565b6040808252810184905260008560608301825b8781101561296a576001600160a01b0361295584612204565b1682526020928301929091019060010161293c565b5083810360208501528481527f07ffffffffffffffffffffffffffffffffffffffffffffffffffffffffffffff8511156129a357600080fd5b8460051b915081866020830137600091016020019081529695505050505050565b6060815260006129d860608301878961277b565b82810360208401526129eb81868861277b565b905082810360408401526129ff81856121c5565b98975050505050505050565b6000816000190483118215151615612a2557612a25612825565b500290565b600081612a3957612a39612825565b506000190190565b600082821015612a5357612a53612825565b500390565b6000600019821415612a6c57612a6c612825565b5060010190565b600067ffffffffffffffff821115612a8d57612a8d6123ee565b5060051b60200190565b600082601f830112612aa857600080fd5b81356020612abd612ab883612a73565b612404565b82815260059290921b84018101918181019086841115612adc57600080fd5b8286015b84811015612af75780358352918301918301612ae0565b509695505050505050565b60008060408385031215612b1557600080fd5b823567ffffffffffffffff80821115612b2d57600080fd5b818501915085601f830112612b4157600080fd5b81356020612b51612ab883612a73565b82815260059290921b84018101918181019089841115612b7057600080fd5b948201945b83861015612b9557612b8686612204565b82529482019490820190612b75565b96505086013592505080821115612bab57600080fd5b5061251285828601612a97565b7f416363657373436f6e74726f6c3a206163636f756e7420000000000000000000815260008351612bf0816017850160208801612199565b7f206973206d697373696e6720726f6c65200000000000000000000000000000006017918401918201528351612c2d816028840160208801612199565b01602801949350505050565b634e487b7160e01b600052603160045260246000fdfea264697066735822122078a86fd1439deb9dad8e7dbf4e14326c40aa41826f9a6734a888a07d70e164f064736f6c634300080900339f2df0fed2c77648de5860a4cc508cd0818c85b8b8a1ab4ceeef8d981c8956a6",
  "linkReferences": {},
  "deployedLinkReferences": {}
}