{"contracts/ERC20MegaVote.sol":{"ERC20MegaVote":{"abi":[{"inputs":[{"internalType":"string","name":"name_","type":"string"},{"internalType":"string","name":"symbol_","type":"string"},{"internalType":"address","name":"gateway_","type":"address"},{"internalType":"address","name":"gasReceiver_","type":"address"}],"stateMutability":"nonpayable","type":"constructor"},{"inputs":[],"name":"AlreadyInitialized","type":"error"},{"inputs":[],"name":"InvalidAddress","type":"error"},{"inputs":[],"name":"NotApprovedByGateway","type":"error"},{"anonymous":false,"inputs":[{"indexed":true,"internalType":"address","name":"owner","type":"address"},{"indexed":true,"internalType":"address","name":"spender","type":"address"},{"indexed":false,"internalType":"uint256","name":"value","type":"uint256"}],"name":"Approval","type":"event"},{"anonymous":false,"inputs":[{"indexed":false,"internalType":"string","name":"sourceChain","type":"string"},{"indexed":false,"internalType":"string","name":"sourceAddress","type":"string"}],"name":"FalseSender","type":"event"},{"anonymous":false,"inputs":[{"indexed":false,"internalType":"address","name":"account","type":"address"}],"name":"Paused","type":"event"},{"anonymous":false,"inputs":[{"indexed":true,"internalType":"bytes32","name":"role","type":"bytes32"},{"indexed":true,"internalType":"bytes32","name":"previousAdminRole","type":"bytes32"},{"indexed":true,"internalType":"bytes32","name":"newAdminRole","type":"bytes32"}],"name":"RoleAdminChanged","type":"event"},{"anonymous":false,"inputs":[{"indexed":true,"internalType":"bytes32","name":"role","type":"bytes32"},{"indexed":true,"internalType":"address","name":"account","type":"address"},{"indexed":true,"internalType":"address","name":"sender","type":"address"}],"name":"RoleGranted","type":"event"},{"anonymous":false,"inputs":[{"indexed":true,"internalType":"bytes32","name":"role","type":"bytes32"},{"indexed":true,"internalType":"address","name":"account","type":"address"},{"indexed":true,"internalType":"address","name":"sender","type":"address"}],"name":"RoleRevoked","type":"event"},{"anonymous":false,"inputs":[{"indexed":true,"internalType":"address","name":"from","type":"address"},{"indexed":true,"internalType":"address","name":"to","type":"address"},{"indexed":false,"internalType":"uint256","name":"value","type":"uint256"}],"name":"Transfer","type":"event"},{"anonymous":false,"inputs":[{"indexed":false,"internalType":"address","name":"account","type":"address"}],"name":"Unpaused","type":"event"},{"anonymous":false,"inputs":[{"indexed":false,"internalType":"address","name":"voter","type":"address"},{"indexed":false,"internalType":"uint256","name":"campaignId","type":"uint256"},{"indexed":false,"internalType":"uint256","name":"amount","type":"uint256"}],"name":"VoteCasted","type":"event"},{"anonymous":false,"inputs":[{"indexed":false,"internalType":"address","name":"voter","type":"address"},{"indexed":false,"internalType":"uint256","name":"campaignId","type":"uint256"},{"indexed":false,"internalType":"uint256","name":"amount","type":"uint256"}],"name":"VoteUncasted","type":"event"},{"inputs":[],"name":"DEFAULT_ADMIN_ROLE","outputs":[{"internalType":"bytes32","name":"","type":"bytes32"}],"stateMutability":"view","type":"function"},{"inputs":[],"name":"MINTER_ROLE","outputs":[{"internalType":"bytes32","name":"","type":"bytes32"}],"stateMutability":"view","type":"function"},{"inputs":[],"name":"PAUSER_ROLE","outputs":[{"internalType":"bytes32","name":"","type":"bytes32"}],"stateMutability":"view","type":"function"},{"inputs":[{"internalType":"address","name":"owner","type":"address"},{"internalType":"address","name":"spender","type":"address"}],"name":"allowance","outputs":[{"internalType":"uint256","name":"","type":"uint256"}],"stateMutability":"view","type":"function"},{"inputs":[{"internalType":"address","name":"spender","type":"address"},{"internalType":"uint256","name":"amount","type":"uint256"}],"name":"approve","outputs":[{"internalType":"bool","name":"","type":"bool"}],"stateMutability":"nonpayable","type":"function"},{"inputs":[{"internalType":"address","name":"account","type":"address"}],"name":"balanceOf","outputs":[{"internalType":"uint256","name":"","type":"uint256"}],"stateMutability":"view","type":"function"},{"inputs":[{"internalType":"uint256","name":"amount","type":"uint256"}],"name":"burn","outputs":[],"stateMutability":"nonpayable","type":"function"},{"inputs":[{"internalType":"address","name":"account","type":"address"},{"internalType":"uint256","name":"amount","type":"uint256"}],"name":"burnFrom","outputs":[],"stateMutability":"nonpayable","type":"function"},{"inputs":[],"name":"decimals","outputs":[{"internalType":"uint8","name":"","type":"uint8"}],"stateMutability":"view","type":"function"},{"inputs":[{"internalType":"address","name":"spender","type":"address"},{"internalType":"uint256","name":"subtractedValue","type":"uint256"}],"name":"decreaseAllowance","outputs":[{"internalType":"bool","name":"","type":"bool"}],"stateMutability":"nonpayable","type":"function"},{"inputs":[{"internalType":"bytes32","name":"commandId","type":"bytes32"},{"internalType":"string","name":"sourceChain","type":"string"},{"internalType":"string","name":"sourceAddress","type":"string"},{"internalType":"bytes","name":"payload","type":"bytes"}],"name":"execute","outputs":[],"stateMutability":"nonpayable","type":"function"},{"inputs":[{"internalType":"bytes32","name":"commandId","type":"bytes32"},{"internalType":"string","name":"sourceChain","type":"string"},{"internalType":"string","name":"sourceAddress","type":"string"},{"internalType":"bytes","name":"payload","type":"bytes"},{"internalType":"string","name":"tokenSymbol","type":"string"},{"internalType":"uint256","name":"amount","type":"uint256"}],"name":"executeWithToken","outputs":[],"stateMutability":"nonpayable","type":"function"},{"inputs":[],"name":"gasReceiver","outputs":[{"internalType":"contract IAxelarGasService","name":"","type":"address"}],"stateMutability":"view","type":"function"},{"inputs":[],"name":"gateway","outputs":[{"internalType":"contract IAxelarGateway","name":"","type":"address"}],"stateMutability":"view","type":"function"},{"inputs":[{"internalType":"bytes32","name":"role","type":"bytes32"}],"name":"getRoleAdmin","outputs":[{"internalType":"bytes32","name":"","type":"bytes32"}],"stateMutability":"view","type":"function"},{"inputs":[{"internalType":"bytes32","name":"role","type":"bytes32"},{"internalType":"uint256","name":"index","type":"uint256"}],"name":"getRoleMember","outputs":[{"internalType":"address","name":"","type":"address"}],"stateMutability":"view","type":"function"},{"inputs":[{"internalType":"bytes32","name":"role","type":"bytes32"}],"name":"getRoleMemberCount","outputs":[{"internalType":"uint256","name":"","type":"uint256"}],"stateMutability":"view","type":"function"},{"inputs":[{"internalType":"uint256","name":"amount","type":"uint256"}],"name":"giveMe","outputs":[],"stateMutability":"nonpayable","type":"function"},{"inputs":[{"internalType":"bytes32","name":"role","type":"bytes32"},{"internalType":"address","name":"account","type":"address"}],"name":"grantRole","outputs":[],"stateMutability":"nonpayable","type":"function"},{"inputs":[{"internalType":"bytes32","name":"role","type":"bytes32"},{"internalType":"address","name":"account","type":"address"}],"name":"hasRole","outputs":[{"internalType":"bool","name":"","type":"bool"}],"stateMutability":"view","type":"function"},{"inputs":[{"internalType":"address","name":"spender","type":"address"},{"internalType":"uint256","name":"addedValue","type":"uint256"}],"name":"increaseAllowance","outputs":[{"internalType":"bool","name":"","type":"bool"}],"stateMutability":"nonpayable","type":"function"},{"inputs":[{"internalType":"address","name":"to","type":"address"},{"internalType":"uint256","name":"amount","type":"uint256"}],"name":"mint","outputs":[],"stateMutability":"nonpayable","type":"function"},{"inputs":[],"name":"name","outputs":[{"internalType":"string","name":"","type":"string"}],"stateMutability":"view","type":"function"},{"inputs":[],"name":"pause","outputs":[],"stateMutability":"nonpayable","type":"function"},{"inputs":[],"name":"paused","outputs":[{"internalType":"bool","name":"","type":"bool"}],"stateMutability":"view","type":"function"},{"inputs":[{"internalType":"bytes32","name":"role","type":"bytes32"},{"internalType":"address","name":"account","type":"address"}],"name":"renounceRole","outputs":[],"stateMutability":"nonpayable","type":"function"},{"inputs":[{"internalType":"bytes32","name":"role","type":"bytes32"},{"internalType":"address","name":"account","type":"address"}],"name":"revokeRole","outputs":[],"stateMutability":"nonpayable","type":"function"},{"inputs":[{"internalType":"string","name":"destinationChain","type":"string"},{"internalType":"bytes","name":"payload","type":"bytes"}],"name":"sendGas","outputs":[],"stateMutability":"payable","type":"function"},{"inputs":[{"internalType":"bytes4","name":"interfaceId","type":"bytes4"}],"name":"supportsInterface","outputs":[{"internalType":"bool","name":"","type":"bool"}],"stateMutability":"view","type":"function"},{"inputs":[],"name":"symbol","outputs":[{"internalType":"string","name":"","type":"string"}],"stateMutability":"view","type":"function"},{"inputs":[],"name":"totalSupply","outputs":[{"internalType":"uint256","name":"","type":"uint256"}],"stateMutability":"view","type":"function"},{"inputs":[{"internalType":"uint256","name":"","type":"uint256"}],"name":"totalVotes","outputs":[{"internalType":"uint256","name":"","type":"uint256"}],"stateMutability":"view","type":"function"},{"inputs":[{"internalType":"address","name":"to","type":"address"},{"internalType":"uint256","name":"amount","type":"uint256"}],"name":"transfer","outputs":[{"internalType":"bool","name":"","type":"bool"}],"stateMutability":"nonpayable","type":"function"},{"inputs":[{"internalType":"address","name":"from","type":"address"},{"internalType":"address","name":"to","type":"address"},{"internalType":"uint256","name":"amount","type":"uint256"}],"name":"transferFrom","outputs":[{"internalType":"bool","name":"","type":"bool"}],"stateMutability":"nonpayable","type":"function"},{"inputs":[{"internalType":"string","name":"destinationChain","type":"string"},{"internalType":"string","name":"destinationAddress","type":"string"},{"internalType":"address[]","name":"recipients","type":"address[]"},{"internalType":"uint256[]","name":"amounts","type":"uint256[]"}],"name":"transferRemote","outputs":[],"stateMutability":"payable","type":"function"},{"inputs":[],"name":"unpause","outputs":[],"stateMutability":"nonpayable","type":"function"},{"inputs":[{"internalType":"uint256","name":"amount","type":"uint256"},{"internalType":"uint256","name":"campaignId","type":"uint256"},{"internalType":"string","name":"destinationChain","type":"string"},{"internalType":"string","name":"masterAddress","type":"string"}],"name":"unvote","outputs":[],"stateMutability":"nonpayable","type":"function"},{"inputs":[{"internalType":"address","name":"","type":"address"},{"internalType":"uint256","name":"","type":"uint256"}],"name":"userVotes","outputs":[{"internalType":"uint256","name":"","type":"uint256"}],"stateMutability":"view","type":"function"},{"inputs":[{"internalType":"uint256","name":"amount","type":"uint256"},{"internalType":"uint256","name":"campaignId","type":"uint256"},{"internalType":"string","name":"destinationChain","type":"string"},{"internalType":"string","name":"masterAddress","type":"string"}],"name":"vote","outputs":[],"stateMutability":"nonpayable","type":"function"}],"evm":{"bytecode":{"linkReferences":{},"object":"60a06040526007805461ffff60a81b1916600160a81b1790553480156200002557600080fd5b5060405162003b4038038062003b4083398101604081905262000048916200071a565b8383838383838181856001600160a01b038116620000795760405163e6c4247b60e01b815260040160405180910390fd5b6001600160a01b031660805281516200009a9060059060208501906200057d565b508051620000b09060069060208401906200057d565b50506007805460ff1916905550620000ca60003362000183565b620000e560008051602062003b208339815191523362000183565b620001117f65d7a28e3265b37a6474929f336521b332c1681b933f6cb9f3376673440d862a3362000183565b505060078054610100600160a81b0319166101006001600160a01b038416021790556200014e60008051602062003b208339815191523062000193565b5050600780546001600160a01b0390941661010002610100600160a81b03199094169390931790925550620009179350505050565b6200018f8282620001c1565b5050565b600082815260208190526040902060010154620001b081620001ff565b620001bc8383620001c1565b505050565b620001d882826200020e60201b620014f31760201c565b6000828152600160209081526040909120620001bc91839062001591620002ae821b17901c565b6200020b8133620002ce565b50565b6000828152602081815260408083206001600160a01b038516845290915290205460ff166200018f576000828152602081815260408083206001600160a01b03851684529091529020805460ff191660011790556200026a3390565b6001600160a01b0316816001600160a01b0316837f2f8788117e7eff1d82e926ec794901d17c78024a50270940304540a733656f0d60405160405180910390a45050565b6000620002c5836001600160a01b03841662000372565b90505b92915050565b6000828152602081815260408083206001600160a01b038516845290915290205460ff166200018f5762000318816001600160a01b03166014620003c460201b620015a61760201c565b6200032e836020620015a6620003c4821b17811c565b60405160200162000341929190620007a9565b60408051601f198184030181529082905262461bcd60e51b8252620003699160040162000822565b60405180910390fd5b6000818152600183016020526040812054620003bb57508154600181810184556000848152602080822090930184905584548482528286019093526040902091909155620002c8565b506000620002c8565b60606000620003d58360026200086d565b620003e29060026200088f565b6001600160401b03811115620003fc57620003fc62000623565b6040519080825280601f01601f19166020018201604052801562000427576020820181803683370190505b509050600360fc1b81600081518110620004455762000445620008aa565b60200101906001600160f81b031916908160001a905350600f60fb1b81600181518110620004775762000477620008aa565b60200101906001600160f81b031916908160001a90535060006200049d8460026200086d565b620004aa9060016200088f565b90505b60018111156200052c576f181899199a1a9b1b9c1cb0b131b232b360811b85600f1660108110620004e257620004e2620008aa565b1a60f81b828281518110620004fb57620004fb620008aa565b60200101906001600160f81b031916908160001a90535060049490941c936200052481620008c0565b9050620004ad565b508315620002c55760405162461bcd60e51b815260206004820181905260248201527f537472696e67733a20686578206c656e67746820696e73756666696369656e74604482015260640162000369565b8280546200058b90620008da565b90600052602060002090601f016020900481019282620005af5760008555620005fa565b82601f10620005ca57805160ff1916838001178555620005fa565b82800160010185558215620005fa579182015b82811115620005fa578251825591602001919060010190620005dd565b50620006089291506200060c565b5090565b5b808211156200060857600081556001016200060d565b634e487b7160e01b600052604160045260246000fd5b60005b83811015620006565781810151838201526020016200063c565b8381111562000666576000848401525b50505050565b600082601f8301126200067e57600080fd5b81516001600160401b03808211156200069b576200069b62000623565b604051601f8301601f19908116603f01168101908282118183101715620006c657620006c662000623565b81604052838152866020858801011115620006e057600080fd5b620006f384602083016020890162000639565b9695505050505050565b80516001600160a01b03811681146200071557600080fd5b919050565b600080600080608085870312156200073157600080fd5b84516001600160401b03808211156200074957600080fd5b62000757888389016200066c565b955060208701519150808211156200076e57600080fd5b506200077d878288016200066c565b9350506200078e60408601620006fd565b91506200079e60608601620006fd565b905092959194509250565b7f416363657373436f6e74726f6c3a206163636f756e7420000000000000000000815260008351620007e381601785016020880162000639565b7001034b99036b4b9b9b4b733903937b6329607d1b60179184019182015283516200081681602884016020880162000639565b01602801949350505050565b60208152600082518060208401526200084381604085016020870162000639565b601f01601f19169190910160400192915050565b634e487b7160e01b600052601160045260246000fd5b60008160001904831182151516156200088a576200088a62000857565b500290565b60008219821115620008a557620008a562000857565b500190565b634e487b7160e01b600052603260045260246000fd5b600081620008d257620008d262000857565b506000190190565b600181811c90821680620008ef57607f821691505b602082108114156200091157634e487b7160e01b600052602260045260246000fd5b50919050565b6080516131ca620009566000396000818161032e0152818161097101528181610d7d01528181610f2f015281816112b9015261145301526131ca6000f3fe6080604052600436106102a05760003560e01c80635c975abb1161016e578063a217fddf116100cb578063ca5978661161007f578063d547741f11610064578063d547741f1461079f578063dd62ed3e146107bf578063e63ab1e91461080557600080fd5b8063ca59786614610758578063d53913931461076b57600080fd5b8063a9059cbb116100b0578063a9059cbb146106f8578063ba86093b14610718578063ca15c8731461073857600080fd5b8063a217fddf146106c3578063a457c2d7146106d857600080fd5b80638456cb59116101225780639010d07c116101075780639010d07c1461064a57806391d148541461066a57806395d89b41146106ae57600080fd5b80638456cb59146105fd5780638b3511f71461061257600080fd5b806379cc67901161015357806379cc6790146105985780637bb89072146105b857806380d14b4a146105d857600080fd5b80635c975abb1461054a57806370a082311461056257600080fd5b80632f2ff15d1161021c57806340c10f19116101d057806344dee17f116101b557806344dee17f146104f75780634570020514610517578063491606581461052a57600080fd5b806340c10f19146104b757806342966c68146104d757600080fd5b806336568abe1161020157806336568abe1461046257806339509351146104825780633f4ba83a146104a257600080fd5b80632f2ff15d14610426578063313ce5671461044657600080fd5b806318160ddd116102735780631a98b2e0116102585780631a98b2e0146103b457806323b872dd146103d6578063248a9ca3146103f657600080fd5b806318160ddd1461036857806319e6e1581461038757600080fd5b806301ffc9a7146102a557806306fdde03146102da578063095ea7b3146102fc578063116191b61461031c575b600080fd5b3480156102b157600080fd5b506102c56102c03660046125f1565b610839565b60405190151581526020015b60405180910390f35b3480156102e657600080fd5b506102ef61087d565b6040516102d19190612673565b34801561030857600080fd5b506102c56103173660046126a2565b61090f565b34801561032857600080fd5b506103507f000000000000000000000000000000000000000000000000000000000000000081565b6040516001600160a01b0390911681526020016102d1565b34801561037457600080fd5b506004545b6040519081526020016102d1565b34801561039357600080fd5b506103796103a23660046126cc565b60096020526000908152604090205481565b3480156103c057600080fd5b506103d46103cf36600461272e565b610927565b005b3480156103e257600080fd5b506102c56103f1366004612808565b610a32565b34801561040257600080fd5b506103796104113660046126cc565b60009081526020819052604090206001015490565b34801561043257600080fd5b506103d4610441366004612844565b610a56565b34801561045257600080fd5b50604051601281526020016102d1565b34801561046e57600080fd5b506103d461047d366004612844565b610a80565b34801561048e57600080fd5b506102c561049d3660046126a2565b610b11565b3480156104ae57600080fd5b506103d4610b50565b3480156104c357600080fd5b506103d46104d23660046126a2565b610bf6565b3480156104e357600080fd5b506103d46104f23660046126cc565b610c9c565b34801561050357600080fd5b506103d46105123660046126cc565b610ca9565b6103d461052536600461292f565b610cb3565b34801561053657600080fd5b506103d46105453660046129a7565b610d33565b34801561055657600080fd5b5060075460ff166102c5565b34801561056e57600080fd5b5061037961057d366004612a4b565b6001600160a01b031660009081526002602052604090205490565b3480156105a457600080fd5b506103d46105b33660046126a2565b610e43565b3480156105c457600080fd5b506103d46105d3366004612a66565b610e58565b3480156105e457600080fd5b506007546103509061010090046001600160a01b031681565b34801561060957600080fd5b506103d4610fee565b34801561061e57600080fd5b5061037961062d3660046126a2565b600860209081526000928352604080842090915290825290205481565b34801561065657600080fd5b50610350610665366004612add565b611092565b34801561067657600080fd5b506102c5610685366004612844565b6000918252602082815260408084206001600160a01b0393909316845291905290205460ff1690565b3480156106ba57600080fd5b506102ef6110b1565b3480156106cf57600080fd5b50610379600081565b3480156106e457600080fd5b506102c56106f33660046126a2565b6110c0565b34801561070457600080fd5b506102c56107133660046126a2565b61116a565b34801561072457600080fd5b506103d4610733366004612a66565b611178565b34801561074457600080fd5b506103796107533660046126cc565b61136c565b6103d4610766366004612b44565b611383565b34801561077757600080fd5b506103797f9f2df0fed2c77648de5860a4cc508cd0818c85b8b8a1ab4ceeef8d981c8956a681565b3480156107ab57600080fd5b506103d46107ba366004612844565b6114ce565b3480156107cb57600080fd5b506103796107da366004612c08565b6001600160a01b03918216600090815260036020908152604080832093909416825291909152205490565b34801561081157600080fd5b506103797f65d7a28e3265b37a6474929f336521b332c1681b933f6cb9f3376673440d862a81565b60006001600160e01b031982167f5a05180f00000000000000000000000000000000000000000000000000000000148061087757506108778261174f565b92915050565b60606005805461088c90612c32565b80601f01602080910402602001604051908101604052809291908181526020018280546108b890612c32565b80156109055780601f106108da57610100808354040283529160200191610905565b820191906000526020600020905b8154815290600101906020018083116108e857829003601f168201915b5050505050905090565b60003361091d8185856117b6565b5060019392505050565b60008585604051610939929190612c6d565b6040519081900381207f1876eed900000000000000000000000000000000000000000000000000000000825291506001600160a01b037f00000000000000000000000000000000000000000000000000000000000000001690631876eed9906109b6908e908e908e908e908e9089908d908d908d90600401612ca6565b602060405180830381600087803b1580156109d057600080fd5b505af11580156109e4573d6000803e3d6000fd5b505050506040513d601f19601f82011682018060405250810190610a089190612d05565b610a2557604051631403112d60e21b815260040160405180910390fd5b5050505050505050505050565b600033610a40858285611919565b610a4b8585856119ab565b506001949350505050565b600082815260208190526040902060010154610a7181611bcd565b610a7b8383611bd7565b505050565b6001600160a01b0381163314610b035760405162461bcd60e51b815260206004820152602f60248201527f416363657373436f6e74726f6c3a2063616e206f6e6c792072656e6f756e636560448201527f20726f6c657320666f722073656c66000000000000000000000000000000000060648201526084015b60405180910390fd5b610b0d8282611bf9565b5050565b3360008181526003602090815260408083206001600160a01b038716845290915281205490919061091d9082908690610b4b908790612d3d565b6117b6565b610b7a7f65d7a28e3265b37a6474929f336521b332c1681b933f6cb9f3376673440d862a33610685565b610bec5760405162461bcd60e51b815260206004820152603960248201527f45524332305072657365744d696e7465725061757365723a206d75737420686160448201527f76652070617573657220726f6c6520746f20756e7061757365000000000000006064820152608401610afa565b610bf4611c1b565b565b610c207f9f2df0fed2c77648de5860a4cc508cd0818c85b8b8a1ab4ceeef8d981c8956a633610685565b610c925760405162461bcd60e51b815260206004820152603660248201527f45524332305072657365744d696e7465725061757365723a206d75737420686160448201527f7665206d696e74657220726f6c6520746f206d696e74000000000000000000006064820152608401610afa565b610b0d8282611c6d565b610ca63382611d58565b50565b610ca63382611c6d565b3415610b0d5760075461010090046001600160a01b0316630c93e3bb343085610cdb82611ee9565b86336040518763ffffffff1660e01b8152600401610cfd959493929190612d55565b6000604051808303818588803b158015610d1657600080fd5b505af1158015610d2a573d6000803e3d6000fd5b50505050505050565b60008282604051610d45929190612c6d565b6040519081900381207f5f6970c300000000000000000000000000000000000000000000000000000000825291506001600160a01b037f00000000000000000000000000000000000000000000000000000000000000001690635f6970c390610dbc908b908b908b908b908b908990600401612db4565b602060405180830381600087803b158015610dd657600080fd5b505af1158015610dea573d6000803e3d6000fd5b505050506040513d601f19601f82011682018060405250810190610e0e9190612d05565b610e2b57604051631403112d60e21b815260040160405180910390fd5b610e39878787878787612181565b5050505050505050565b610e4e823383611919565b610b0d8282611d58565b600083815260096020526040812080543392879291610e78908490612d3d565b90915550506001600160a01b038116600090815260086020908152604080832087845290915281208054879290610eb0908490612d3d565b90915550610ebf905085610c9c565b6007546040805160208101879052908101879052750100000000000000000000000000000000000000000090910460ff16151560608201526000906080016040516020818303038152906040529050610f188482610cb3565b604051631c92115f60e01b81526001600160a01b037f00000000000000000000000000000000000000000000000000000000000000001690631c92115f90610f6890879087908690600401612df5565b600060405180830381600087803b158015610f8257600080fd5b505af1158015610f96573d6000803e3d6000fd5b5050604080516001600160a01b0386168152602081018990529081018990527fcb87df07b1c304492bd875a5c8b98672eca500939412809ea229afef1d745188925060600190505b60405180910390a1505050505050565b6110187f65d7a28e3265b37a6474929f336521b332c1681b933f6cb9f3376673440d862a33610685565b61108a5760405162461bcd60e51b815260206004820152603760248201527f45524332305072657365744d696e7465725061757365723a206d75737420686160448201527f76652070617573657220726f6c6520746f2070617573650000000000000000006064820152608401610afa565b610bf46121f7565b60008281526001602052604081206110aa9083612234565b9392505050565b60606006805461088c90612c32565b3360008181526003602090815260408083206001600160a01b03871684529091528120549091908381101561115d5760405162461bcd60e51b815260206004820152602560248201527f45524332303a2064656372656173656420616c6c6f77616e63652062656c6f7760448201527f207a65726f0000000000000000000000000000000000000000000000000000006064820152608401610afa565b610a4b82868684036117b6565b60003361091d8185856119ab565b3360008181526008602090815260408083208784529091529020548511156111e25760405162461bcd60e51b815260206004820152601760248201527f457863656564207769746864726177616c206c696d69740000000000000000006044820152606401610afa565b60008481526009602052604081208054879290611200908490612e38565b90915550506001600160a01b038116600090815260086020908152604080832087845290915281208054879290611238908490612e38565b9091555061124890508186610bf6565b600754604080516020810187905290810187905276010000000000000000000000000000000000000000000090910460ff161515606082015260009060800160405160208183030381529060405290506112a28482610cb3565b604051631c92115f60e01b81526001600160a01b037f00000000000000000000000000000000000000000000000000000000000000001690631c92115f906112f290879087908690600401612df5565b600060405180830381600087803b15801561130c57600080fd5b505af1158015611320573d6000803e3d6000fd5b5050604080516001600160a01b0386168152602081018990529081018990527f953cb67c23167f7da893a116e40c0194895555a844fc7e5b2a8cd198cb7acfb392506060019050610fde565b600081815260016020526040812061087790612240565b6000805b60ff81168311156113cd5783838260ff168181106113a7576113a7612e4f565b90506020020135826113b99190612d3d565b9150806113c581612e65565b915050611387565b506113d83382611d58565b6000858585856040516020016113f19493929190612e85565b60408051601f198184030181526020601f8d018190048102840181019092528b8352925061143c91908c908c9081908401838280828437600092019190915250859250610cb3915050565b604051631c92115f60e01b81526001600160a01b037f00000000000000000000000000000000000000000000000000000000000000001690631c92115f90611490908d908d908d908d908890600401612f20565b600060405180830381600087803b1580156114aa57600080fd5b505af11580156114be573d6000803e3d6000fd5b5050505050505050505050505050565b6000828152602081905260409020600101546114e981611bcd565b610a7b8383611bf9565b6000828152602081815260408083206001600160a01b038516845290915290205460ff16610b0d576000828152602081815260408083206001600160a01b03851684529091529020805460ff1916600117905561154d3390565b6001600160a01b0316816001600160a01b0316837f2f8788117e7eff1d82e926ec794901d17c78024a50270940304540a733656f0d60405160405180910390a45050565b60006110aa836001600160a01b03841661224a565b606060006115b5836002612f67565b6115c0906002612d3d565b67ffffffffffffffff8111156115d8576115d8612870565b6040519080825280601f01601f191660200182016040528015611602576020820181803683370190505b509050600360fc1b8160008151811061161d5761161d612e4f565b60200101906001600160f81b031916908160001a905350600f60fb1b8160018151811061164c5761164c612e4f565b60200101906001600160f81b031916908160001a9053506000611670846002612f67565b61167b906001612d3d565b90505b6001811115611700577f303132333435363738396162636465660000000000000000000000000000000085600f16601081106116bc576116bc612e4f565b1a60f81b8282815181106116d2576116d2612e4f565b60200101906001600160f81b031916908160001a90535060049490941c936116f981612f86565b905061167e565b5083156110aa5760405162461bcd60e51b815260206004820181905260248201527f537472696e67733a20686578206c656e67746820696e73756666696369656e746044820152606401610afa565b60006001600160e01b031982167f7965db0b00000000000000000000000000000000000000000000000000000000148061087757507f01ffc9a7000000000000000000000000000000000000000000000000000000006001600160e01b0319831614610877565b6001600160a01b0383166118315760405162461bcd60e51b8152602060048201526024808201527f45524332303a20617070726f76652066726f6d20746865207a65726f2061646460448201527f72657373000000000000000000000000000000000000000000000000000000006064820152608401610afa565b6001600160a01b0382166118ad5760405162461bcd60e51b815260206004820152602260248201527f45524332303a20617070726f766520746f20746865207a65726f20616464726560448201527f73730000000000000000000000000000000000000000000000000000000000006064820152608401610afa565b6001600160a01b0383811660008181526003602090815260408083209487168084529482529182902085905590518481527f8c5be1e5ebec7d5bd14f71427d1e84f3dd0314c0f7b2291e5b200ac8c7c3b925910160405180910390a3505050565b505050505050505050565b6001600160a01b0383811660009081526003602090815260408083209386168352929052205460001981146119a557818110156119985760405162461bcd60e51b815260206004820152601d60248201527f45524332303a20696e73756666696369656e7420616c6c6f77616e63650000006044820152606401610afa565b6119a584848484036117b6565b50505050565b6001600160a01b038316611a275760405162461bcd60e51b815260206004820152602560248201527f45524332303a207472616e736665722066726f6d20746865207a65726f20616460448201527f64726573730000000000000000000000000000000000000000000000000000006064820152608401610afa565b6001600160a01b038216611aa35760405162461bcd60e51b815260206004820152602360248201527f45524332303a207472616e7366657220746f20746865207a65726f206164647260448201527f65737300000000000000000000000000000000000000000000000000000000006064820152608401610afa565b611aae838383612299565b6001600160a01b03831660009081526002602052604090205481811015611b3d5760405162461bcd60e51b815260206004820152602660248201527f45524332303a207472616e7366657220616d6f756e742065786365656473206260448201527f616c616e636500000000000000000000000000000000000000000000000000006064820152608401610afa565b6001600160a01b03808516600090815260026020526040808220858503905591851681529081208054849290611b74908490612d3d565b92505081905550826001600160a01b0316846001600160a01b03167fddf252ad1be2c89b69c2b068fc378daa952ba7f163c4a11628f55a4df523b3ef84604051611bc091815260200190565b60405180910390a36119a5565b610ca681336122a4565b611be182826114f3565b6000828152600160205260409020610a7b9082611591565b611c038282612322565b6000828152600160205260409020610a7b90826123a1565b611c236123b6565b6007805460ff191690557f5db9ee0a495bf2e6ff9c91a7834c1ba4fdd244a5e8aa4e537bd38aeae4b073aa335b6040516001600160a01b03909116815260200160405180910390a1565b6001600160a01b038216611cc35760405162461bcd60e51b815260206004820152601f60248201527f45524332303a206d696e7420746f20746865207a65726f2061646472657373006044820152606401610afa565b611ccf60008383612299565b8060046000828254611ce19190612d3d565b90915550506001600160a01b03821660009081526002602052604081208054839290611d0e908490612d3d565b90915550506040518181526001600160a01b038316906000907fddf252ad1be2c89b69c2b068fc378daa952ba7f163c4a11628f55a4df523b3ef9060200160405180910390a35050565b6001600160a01b038216611dd45760405162461bcd60e51b815260206004820152602160248201527f45524332303a206275726e2066726f6d20746865207a65726f2061646472657360448201527f73000000000000000000000000000000000000000000000000000000000000006064820152608401610afa565b611de082600083612299565b6001600160a01b03821660009081526002602052604090205481811015611e6f5760405162461bcd60e51b815260206004820152602260248201527f45524332303a206275726e20616d6f756e7420657863656564732062616c616e60448201527f63650000000000000000000000000000000000000000000000000000000000006064820152608401610afa565b6001600160a01b0383166000908152600260205260408120838303905560048054849290611e9e908490612e38565b90915550506040518281526000906001600160a01b038516907fddf252ad1be2c89b69c2b068fc378daa952ba7f163c4a11628f55a4df523b3ef9060200160405180910390a3505050565b604051606082811b6bffffffffffffffffffffffff191660208301529060009060340160408051601f19818403018152828201909152601082527f303132333435363738396162636465660000000000000000000000000000000060208301528051909250600090611f5c906002612f67565b611f67906002612d3d565b67ffffffffffffffff811115611f7f57611f7f612870565b6040519080825280601f01601f191660200182016040528015611fa9576020820181803683370190505b509050600360fc1b81600081518110611fc457611fc4612e4f565b60200101906001600160f81b031916908160001a905350600f60fb1b81600181518110611ff357611ff3612e4f565b60200101906001600160f81b031916908160001a90535060005b83518110156121785782600485838151811061202b5761202b612e4f565b016020015182517fff0000000000000000000000000000000000000000000000000000000000000090911690911c60f81c90811061206b5761206b612e4f565b01602001517fff00000000000000000000000000000000000000000000000000000000000000168261209e836002612f67565b6120a9906002612d3d565b815181106120b9576120b9612e4f565b60200101906001600160f81b031916908160001a905350828482815181106120e3576120e3612e4f565b602091010151815160f89190911c600f1690811061210357612103612e4f565b01602001517fff000000000000000000000000000000000000000000000000000000000000001682612136836002612f67565b612141906003612d3d565b8151811061215157612151612e4f565b60200101906001600160f81b031916908160001a90535061217181612f9d565b905061200d565b50949350505050565b60008061219083850185613047565b9150915060005b81518160ff16101561190e576121e5838260ff16815181106121bb576121bb612e4f565b6020026020010151838360ff16815181106121d8576121d8612e4f565b6020026020010151611c6d565b806121ef81612e65565b915050612197565b6121ff612408565b6007805460ff191660011790557f62e78cea01bee320cd4e420270b5ea74000d11b0c9f74754ebdbfc544b05a258611c503390565b60006110aa838361245b565b6000610877825490565b600081815260018301602052604081205461229157508154600181810184556000848152602080822090930184905584548482528286019093526040902091909155610877565b506000610877565b610a7b838383612485565b6000828152602081815260408083206001600160a01b038516845290915290205460ff16610b0d576122e0816001600160a01b031660146115a6565b6122eb8360206115a6565b6040516020016122fc9291906130fd565b60408051601f198184030181529082905262461bcd60e51b8252610afa91600401612673565b6000828152602081815260408083206001600160a01b038516845290915290205460ff1615610b0d576000828152602081815260408083206001600160a01b0385168085529252808320805460ff1916905551339285917ff6391f5c32d9c69d2a47ea670b442974b53935d1edc7fd64eb21e047a839171b9190a45050565b60006110aa836001600160a01b0384166124fe565b60075460ff16610bf45760405162461bcd60e51b815260206004820152601460248201527f5061757361626c653a206e6f74207061757365640000000000000000000000006044820152606401610afa565b60075460ff1615610bf45760405162461bcd60e51b815260206004820152601060248201527f5061757361626c653a20706175736564000000000000000000000000000000006044820152606401610afa565b600082600001828154811061247257612472612e4f565b9060005260206000200154905092915050565b60075460ff1615610a7b5760405162461bcd60e51b815260206004820152602a60248201527f45524332305061757361626c653a20746f6b656e207472616e7366657220776860448201527f696c6520706175736564000000000000000000000000000000000000000000006064820152608401610afa565b600081815260018301602052604081205480156125e7576000612522600183612e38565b855490915060009061253690600190612e38565b905081811461259b57600086600001828154811061255657612556612e4f565b906000526020600020015490508087600001848154811061257957612579612e4f565b6000918252602080832090910192909255918252600188019052604090208390555b85548690806125ac576125ac61317e565b600190038181906000526020600020016000905590558560010160008681526020019081526020016000206000905560019350505050610877565b6000915050610877565b60006020828403121561260357600080fd5b81356001600160e01b0319811681146110aa57600080fd5b60005b8381101561263657818101518382015260200161261e565b838111156119a55750506000910152565b6000815180845261265f81602086016020860161261b565b601f01601f19169290920160200192915050565b6020815260006110aa6020830184612647565b80356001600160a01b038116811461269d57600080fd5b919050565b600080604083850312156126b557600080fd5b6126be83612686565b946020939093013593505050565b6000602082840312156126de57600080fd5b5035919050565b60008083601f8401126126f757600080fd5b50813567ffffffffffffffff81111561270f57600080fd5b60208301915083602082850101111561272757600080fd5b9250929050565b60008060008060008060008060008060c08b8d03121561274d57600080fd5b8a35995060208b013567ffffffffffffffff8082111561276c57600080fd5b6127788e838f016126e5565b909b50995060408d013591508082111561279157600080fd5b61279d8e838f016126e5565b909950975060608d01359150808211156127b657600080fd5b6127c28e838f016126e5565b909750955060808d01359150808211156127db57600080fd5b506127e88d828e016126e5565b9150809450508092505060a08b013590509295989b9194979a5092959850565b60008060006060848603121561281d57600080fd5b61282684612686565b925061283460208501612686565b9150604084013590509250925092565b6000806040838503121561285757600080fd5b8235915061286760208401612686565b90509250929050565b634e487b7160e01b600052604160045260246000fd5b604051601f8201601f1916810167ffffffffffffffff811182821017156128af576128af612870565b604052919050565b600067ffffffffffffffff8311156128d1576128d1612870565b6128e4601f8401601f1916602001612886565b90508281528383830111156128f857600080fd5b828260208301376000602084830101529392505050565b600082601f83011261292057600080fd5b6110aa838335602085016128b7565b6000806040838503121561294257600080fd5b823567ffffffffffffffff8082111561295a57600080fd5b6129668683870161290f565b9350602085013591508082111561297c57600080fd5b508301601f8101851361298e57600080fd5b61299d858235602084016128b7565b9150509250929050565b60008060008060008060006080888a0312156129c257600080fd5b87359650602088013567ffffffffffffffff808211156129e157600080fd5b6129ed8b838c016126e5565b909850965060408a0135915080821115612a0657600080fd5b612a128b838c016126e5565b909650945060608a0135915080821115612a2b57600080fd5b50612a388a828b016126e5565b989b979a50959850939692959293505050565b600060208284031215612a5d57600080fd5b6110aa82612686565b60008060008060808587031215612a7c57600080fd5b8435935060208501359250604085013567ffffffffffffffff80821115612aa257600080fd5b612aae8883890161290f565b93506060870135915080821115612ac457600080fd5b50612ad18782880161290f565b91505092959194509250565b60008060408385031215612af057600080fd5b50508035926020909101359150565b60008083601f840112612b1157600080fd5b50813567ffffffffffffffff811115612b2957600080fd5b6020830191508360208260051b850101111561272757600080fd5b6000806000806000806000806080898b031215612b6057600080fd5b883567ffffffffffffffff80821115612b7857600080fd5b612b848c838d016126e5565b909a50985060208b0135915080821115612b9d57600080fd5b612ba98c838d016126e5565b909850965060408b0135915080821115612bc257600080fd5b612bce8c838d01612aff565b909650945060608b0135915080821115612be757600080fd5b50612bf48b828c01612aff565b999c989b5096995094979396929594505050565b60008060408385031215612c1b57600080fd5b612c2483612686565b915061286760208401612686565b600181811c90821680612c4657607f821691505b60208210811415612c6757634e487b7160e01b600052602260045260246000fd5b50919050565b8183823760009101908152919050565b81835281816020850137506000828201602090810191909152601f909101601f19169091010190565b89815260c060208201526000612cc060c083018a8c612c7d565b8281036040840152612cd381898b612c7d565b90508660608401528281036080840152612cee818688612c7d565b9150508260a08301529a9950505050505050505050565b600060208284031215612d1757600080fd5b815180151581146110aa57600080fd5b634e487b7160e01b600052601160045260246000fd5b60008219821115612d5057612d50612d27565b500190565b60006001600160a01b03808816835260a06020840152612d7860a0840188612647565b8381036040850152612d8a8188612647565b90508381036060850152612d9e8187612647565b9250508084166080840152509695505050505050565b868152608060208201526000612dce608083018789612c7d565b8281036040840152612de1818688612c7d565b915050826060830152979650505050505050565b606081526000612e086060830186612647565b8281036020840152612e1a8186612647565b90508281036040840152612e2e8185612647565b9695505050505050565b600082821015612e4a57612e4a612d27565b500390565b634e487b7160e01b600052603260045260246000fd5b600060ff821660ff811415612e7c57612e7c612d27565b60010192915050565b6040808252810184905260008560608301825b87811015612ec6576001600160a01b03612eb184612686565b16825260209283019290910190600101612e98565b5083810360208501528481527f07ffffffffffffffffffffffffffffffffffffffffffffffffffffffffffffff851115612eff57600080fd5b8460051b915081866020830137600091016020019081529695505050505050565b606081526000612f34606083018789612c7d565b8281036020840152612f47818688612c7d565b90508281036040840152612f5b8185612647565b98975050505050505050565b6000816000190483118215151615612f8157612f81612d27565b500290565b600081612f9557612f95612d27565b506000190190565b6000600019821415612fb157612fb1612d27565b5060010190565b600067ffffffffffffffff821115612fd257612fd2612870565b5060051b60200190565b600082601f830112612fed57600080fd5b81356020613002612ffd83612fb8565b612886565b82815260059290921b8401810191818101908684111561302157600080fd5b8286015b8481101561303c5780358352918301918301613025565b509695505050505050565b6000806040838503121561305a57600080fd5b823567ffffffffffffffff8082111561307257600080fd5b818501915085601f83011261308657600080fd5b81356020613096612ffd83612fb8565b82815260059290921b840181019181810190898411156130b557600080fd5b948201945b838610156130da576130cb86612686565b825294820194908201906130ba565b965050860135925050808211156130f057600080fd5b5061299d85828601612fdc565b7f416363657373436f6e74726f6c3a206163636f756e742000000000000000000081526000835161313581601785016020880161261b565b7f206973206d697373696e6720726f6c6520000000000000000000000000000000601791840191820152835161317281602884016020880161261b565b01602801949350505050565b634e487b7160e01b600052603160045260246000fdfea26469706673582212204c2a4b3c97d23bb7f494e220dda484354f7c3d42ae8658a0e9b433e01ac3b93464736f6c634300080900339f2df0fed2c77648de5860a4cc508cd0818c85b8b8a1ab4ceeef8d981c8956a6","opcodes":"PUSH1 0xA0 PUSH1 0x40 MSTORE PUSH1 0x7 DUP1 SLOAD PUSH2 0xFFFF PUSH1 0xA8 SHL NOT AND PUSH1 0x1 PUSH1 0xA8 SHL OR SWAP1 SSTORE CALLVALUE DUP1 ISZERO PUSH3 0x25 JUMPI PUSH1 0x0 DUP1 REVERT JUMPDEST POP PUSH1 0x40 MLOAD PUSH3 0x3B40 CODESIZE SUB DUP1 PUSH3 0x3B40 DUP4 CODECOPY DUP2 ADD PUSH1 0x40 DUP2 SWAP1 MSTORE PUSH3 0x48 SWAP2 PUSH3 0x71A JUMP JUMPDEST DUP4 DUP4 DUP4 DUP4 DUP4 DUP4 DUP2 DUP2 DUP6 PUSH1 0x1 PUSH1 0x1 PUSH1 0xA0 SHL SUB DUP2 AND PUSH3 0x79 JUMPI PUSH1 0x40 MLOAD PUSH4 0xE6C4247B PUSH1 0xE0 SHL DUP2 MSTORE PUSH1 0x4 ADD PUSH1 0x40 MLOAD DUP1 SWAP2 SUB SWAP1 REVERT JUMPDEST PUSH1 0x1 PUSH1 0x1 PUSH1 0xA0 SHL SUB AND PUSH1 0x80 MSTORE DUP2 MLOAD PUSH3 0x9A SWAP1 PUSH1 0x5 SWAP1 PUSH1 0x20 DUP6 ADD SWAP1 PUSH3 0x57D JUMP JUMPDEST POP DUP1 MLOAD PUSH3 0xB0 SWAP1 PUSH1 0x6 SWAP1 PUSH1 0x20 DUP5 ADD SWAP1 PUSH3 0x57D JUMP JUMPDEST POP POP PUSH1 0x7 DUP1 SLOAD PUSH1 0xFF NOT AND SWAP1 SSTORE POP PUSH3 0xCA PUSH1 0x0 CALLER PUSH3 0x183 JUMP JUMPDEST PUSH3 0xE5 PUSH1 0x0 DUP1 MLOAD PUSH1 0x20 PUSH3 0x3B20 DUP4 CODECOPY DUP2 MLOAD SWAP2 MSTORE CALLER PUSH3 0x183 JUMP JUMPDEST PUSH3 0x111 PUSH32 0x65D7A28E3265B37A6474929F336521B332C1681B933F6CB9F3376673440D862A CALLER PUSH3 0x183 JUMP JUMPDEST POP POP PUSH1 0x7 DUP1 SLOAD PUSH2 0x100 PUSH1 0x1 PUSH1 0xA8 SHL SUB NOT AND PUSH2 0x100 PUSH1 0x1 PUSH1 0x1 PUSH1 0xA0 SHL SUB DUP5 AND MUL OR SWAP1 SSTORE PUSH3 0x14E PUSH1 0x0 DUP1 MLOAD PUSH1 0x20 PUSH3 0x3B20 DUP4 CODECOPY DUP2 MLOAD SWAP2 MSTORE ADDRESS PUSH3 0x193 JUMP JUMPDEST POP POP PUSH1 0x7 DUP1 SLOAD PUSH1 0x1 PUSH1 0x1 PUSH1 0xA0 SHL SUB SWAP1 SWAP5 AND PUSH2 0x100 MUL PUSH2 0x100 PUSH1 0x1 PUSH1 0xA8 SHL SUB NOT SWAP1 SWAP5 AND SWAP4 SWAP1 SWAP4 OR SWAP1 SWAP3 SSTORE POP PUSH3 0x917 SWAP4 POP POP POP POP JUMP JUMPDEST PUSH3 0x18F DUP3 DUP3 PUSH3 0x1C1 JUMP JUMPDEST POP POP JUMP JUMPDEST PUSH1 0x0 DUP3 DUP2 MSTORE PUSH1 0x20 DUP2 SWAP1 MSTORE PUSH1 0x40 SWAP1 KECCAK256 PUSH1 0x1 ADD SLOAD PUSH3 0x1B0 DUP2 PUSH3 0x1FF JUMP JUMPDEST PUSH3 0x1BC DUP4 DUP4 PUSH3 0x1C1 JUMP JUMPDEST POP POP POP JUMP JUMPDEST PUSH3 0x1D8 DUP3 DUP3 PUSH3 0x20E PUSH1 0x20 SHL PUSH3 0x14F3 OR PUSH1 0x20 SHR JUMP JUMPDEST PUSH1 0x0 DUP3 DUP2 MSTORE PUSH1 0x1 PUSH1 0x20 SWAP1 DUP2 MSTORE PUSH1 0x40 SWAP1 SWAP2 KECCAK256 PUSH3 0x1BC SWAP2 DUP4 SWAP1 PUSH3 0x1591 PUSH3 0x2AE DUP3 SHL OR SWAP1 SHR JUMP JUMPDEST PUSH3 0x20B DUP2 CALLER PUSH3 0x2CE JUMP JUMPDEST POP JUMP JUMPDEST PUSH1 0x0 DUP3 DUP2 MSTORE PUSH1 0x20 DUP2 DUP2 MSTORE PUSH1 0x40 DUP1 DUP4 KECCAK256 PUSH1 0x1 PUSH1 0x1 PUSH1 0xA0 SHL SUB DUP6 AND DUP5 MSTORE SWAP1 SWAP2 MSTORE SWAP1 KECCAK256 SLOAD PUSH1 0xFF AND PUSH3 0x18F JUMPI PUSH1 0x0 DUP3 DUP2 MSTORE PUSH1 0x20 DUP2 DUP2 MSTORE PUSH1 0x40 DUP1 DUP4 KECCAK256 PUSH1 0x1 PUSH1 0x1 PUSH1 0xA0 SHL SUB DUP6 AND DUP5 MSTORE SWAP1 SWAP2 MSTORE SWAP1 KECCAK256 DUP1 SLOAD PUSH1 0xFF NOT AND PUSH1 0x1 OR SWAP1 SSTORE PUSH3 0x26A CALLER SWAP1 JUMP JUMPDEST PUSH1 0x1 PUSH1 0x1 PUSH1 0xA0 SHL SUB AND DUP2 PUSH1 0x1 PUSH1 0x1 PUSH1 0xA0 SHL SUB AND DUP4 PUSH32 0x2F8788117E7EFF1D82E926EC794901D17C78024A50270940304540A733656F0D PUSH1 0x40 MLOAD PUSH1 0x40 MLOAD DUP1 SWAP2 SUB SWAP1 LOG4 POP POP JUMP JUMPDEST PUSH1 0x0 PUSH3 0x2C5 DUP4 PUSH1 0x1 PUSH1 0x1 PUSH1 0xA0 SHL SUB DUP5 AND PUSH3 0x372 JUMP JUMPDEST SWAP1 POP JUMPDEST SWAP3 SWAP2 POP POP JUMP JUMPDEST PUSH1 0x0 DUP3 DUP2 MSTORE PUSH1 0x20 DUP2 DUP2 MSTORE PUSH1 0x40 DUP1 DUP4 KECCAK256 PUSH1 0x1 PUSH1 0x1 PUSH1 0xA0 SHL SUB DUP6 AND DUP5 MSTORE SWAP1 SWAP2 MSTORE SWAP1 KECCAK256 SLOAD PUSH1 0xFF AND PUSH3 0x18F JUMPI PUSH3 0x318 DUP2 PUSH1 0x1 PUSH1 0x1 PUSH1 0xA0 SHL SUB AND PUSH1 0x14 PUSH3 0x3C4 PUSH1 0x20 SHL PUSH3 0x15A6 OR PUSH1 0x20 SHR JUMP JUMPDEST PUSH3 0x32E DUP4 PUSH1 0x20 PUSH3 0x15A6 PUSH3 0x3C4 DUP3 SHL OR DUP2 SHR JUMP JUMPDEST PUSH1 0x40 MLOAD PUSH1 0x20 ADD PUSH3 0x341 SWAP3 SWAP2 SWAP1 PUSH3 0x7A9 JUMP JUMPDEST PUSH1 0x40 DUP1 MLOAD PUSH1 0x1F NOT DUP2 DUP5 SUB ADD DUP2 MSTORE SWAP1 DUP3 SWAP1 MSTORE PUSH3 0x461BCD PUSH1 0xE5 SHL DUP3 MSTORE PUSH3 0x369 SWAP2 PUSH1 0x4 ADD PUSH3 0x822 JUMP JUMPDEST PUSH1 0x40 MLOAD DUP1 SWAP2 SUB SWAP1 REVERT JUMPDEST PUSH1 0x0 DUP2 DUP2 MSTORE PUSH1 0x1 DUP4 ADD PUSH1 0x20 MSTORE PUSH1 0x40 DUP2 KECCAK256 SLOAD PUSH3 0x3BB JUMPI POP DUP2 SLOAD PUSH1 0x1 DUP2 DUP2 ADD DUP5 SSTORE PUSH1 0x0 DUP5 DUP2 MSTORE PUSH1 0x20 DUP1 DUP3 KECCAK256 SWAP1 SWAP4 ADD DUP5 SWAP1 SSTORE DUP5 SLOAD DUP5 DUP3 MSTORE DUP3 DUP7 ADD SWAP1 SWAP4 MSTORE PUSH1 0x40 SWAP1 KECCAK256 SWAP2 SWAP1 SWAP2 SSTORE PUSH3 0x2C8 JUMP JUMPDEST POP PUSH1 0x0 PUSH3 0x2C8 JUMP JUMPDEST PUSH1 0x60 PUSH1 0x0 PUSH3 0x3D5 DUP4 PUSH1 0x2 PUSH3 0x86D JUMP JUMPDEST PUSH3 0x3E2 SWAP1 PUSH1 0x2 PUSH3 0x88F JUMP JUMPDEST PUSH1 0x1 PUSH1 0x1 PUSH1 0x40 SHL SUB DUP2 GT ISZERO PUSH3 0x3FC JUMPI PUSH3 0x3FC PUSH3 0x623 JUMP JUMPDEST PUSH1 0x40 MLOAD SWAP1 DUP1 DUP3 MSTORE DUP1 PUSH1 0x1F ADD PUSH1 0x1F NOT AND PUSH1 0x20 ADD DUP3 ADD PUSH1 0x40 MSTORE DUP1 ISZERO PUSH3 0x427 JUMPI PUSH1 0x20 DUP3 ADD DUP2 DUP1 CALLDATASIZE DUP4 CALLDATACOPY ADD SWAP1 POP JUMPDEST POP SWAP1 POP PUSH1 0x3 PUSH1 0xFC SHL DUP2 PUSH1 0x0 DUP2 MLOAD DUP2 LT PUSH3 0x445 JUMPI PUSH3 0x445 PUSH3 0x8AA JUMP JUMPDEST PUSH1 0x20 ADD ADD SWAP1 PUSH1 0x1 PUSH1 0x1 PUSH1 0xF8 SHL SUB NOT AND SWAP1 DUP2 PUSH1 0x0 BYTE SWAP1 MSTORE8 POP PUSH1 0xF PUSH1 0xFB SHL DUP2 PUSH1 0x1 DUP2 MLOAD DUP2 LT PUSH3 0x477 JUMPI PUSH3 0x477 PUSH3 0x8AA JUMP JUMPDEST PUSH1 0x20 ADD ADD SWAP1 PUSH1 0x1 PUSH1 0x1 PUSH1 0xF8 SHL SUB NOT AND SWAP1 DUP2 PUSH1 0x0 BYTE SWAP1 MSTORE8 POP PUSH1 0x0 PUSH3 0x49D DUP5 PUSH1 0x2 PUSH3 0x86D JUMP JUMPDEST PUSH3 0x4AA SWAP1 PUSH1 0x1 PUSH3 0x88F JUMP JUMPDEST SWAP1 POP JUMPDEST PUSH1 0x1 DUP2 GT ISZERO PUSH3 0x52C JUMPI PUSH16 0x181899199A1A9B1B9C1CB0B131B232B3 PUSH1 0x81 SHL DUP6 PUSH1 0xF AND PUSH1 0x10 DUP2 LT PUSH3 0x4E2 JUMPI PUSH3 0x4E2 PUSH3 0x8AA JUMP JUMPDEST BYTE PUSH1 0xF8 SHL DUP3 DUP3 DUP2 MLOAD DUP2 LT PUSH3 0x4FB JUMPI PUSH3 0x4FB PUSH3 0x8AA JUMP JUMPDEST PUSH1 0x20 ADD ADD SWAP1 PUSH1 0x1 PUSH1 0x1 PUSH1 0xF8 SHL SUB NOT AND SWAP1 DUP2 PUSH1 0x0 BYTE SWAP1 MSTORE8 POP PUSH1 0x4 SWAP5 SWAP1 SWAP5 SHR SWAP4 PUSH3 0x524 DUP2 PUSH3 0x8C0 JUMP JUMPDEST SWAP1 POP PUSH3 0x4AD JUMP JUMPDEST POP DUP4 ISZERO PUSH3 0x2C5 JUMPI PUSH1 0x40 MLOAD PUSH3 0x461BCD PUSH1 0xE5 SHL DUP2 MSTORE PUSH1 0x20 PUSH1 0x4 DUP3 ADD DUP2 SWAP1 MSTORE PUSH1 0x24 DUP3 ADD MSTORE PUSH32 0x537472696E67733A20686578206C656E67746820696E73756666696369656E74 PUSH1 0x44 DUP3 ADD MSTORE PUSH1 0x64 ADD PUSH3 0x369 JUMP JUMPDEST DUP3 DUP1 SLOAD PUSH3 0x58B SWAP1 PUSH3 0x8DA JUMP JUMPDEST SWAP1 PUSH1 0x0 MSTORE PUSH1 0x20 PUSH1 0x0 KECCAK256 SWAP1 PUSH1 0x1F ADD PUSH1 0x20 SWAP1 DIV DUP2 ADD SWAP3 DUP3 PUSH3 0x5AF JUMPI PUSH1 0x0 DUP6 SSTORE PUSH3 0x5FA JUMP JUMPDEST DUP3 PUSH1 0x1F LT PUSH3 0x5CA JUMPI DUP1 MLOAD PUSH1 0xFF NOT AND DUP4 DUP1 ADD OR DUP6 SSTORE PUSH3 0x5FA JUMP JUMPDEST DUP3 DUP1 ADD PUSH1 0x1 ADD DUP6 SSTORE DUP3 ISZERO PUSH3 0x5FA JUMPI SWAP2 DUP3 ADD JUMPDEST DUP3 DUP2 GT ISZERO PUSH3 0x5FA JUMPI DUP3 MLOAD DUP3 SSTORE SWAP2 PUSH1 0x20 ADD SWAP2 SWAP1 PUSH1 0x1 ADD SWAP1 PUSH3 0x5DD JUMP JUMPDEST POP PUSH3 0x608 SWAP3 SWAP2 POP PUSH3 0x60C JUMP JUMPDEST POP SWAP1 JUMP JUMPDEST JUMPDEST DUP1 DUP3 GT ISZERO PUSH3 0x608 JUMPI PUSH1 0x0 DUP2 SSTORE PUSH1 0x1 ADD PUSH3 0x60D JUMP JUMPDEST PUSH4 0x4E487B71 PUSH1 0xE0 SHL PUSH1 0x0 MSTORE PUSH1 0x41 PUSH1 0x4 MSTORE PUSH1 0x24 PUSH1 0x0 REVERT JUMPDEST PUSH1 0x0 JUMPDEST DUP4 DUP2 LT ISZERO PUSH3 0x656 JUMPI DUP2 DUP2 ADD MLOAD DUP4 DUP3 ADD MSTORE PUSH1 0x20 ADD PUSH3 0x63C JUMP JUMPDEST DUP4 DUP2 GT ISZERO PUSH3 0x666 JUMPI PUSH1 0x0 DUP5 DUP5 ADD MSTORE JUMPDEST POP POP POP POP JUMP JUMPDEST PUSH1 0x0 DUP3 PUSH1 0x1F DUP4 ADD SLT PUSH3 0x67E JUMPI PUSH1 0x0 DUP1 REVERT JUMPDEST DUP2 MLOAD PUSH1 0x1 PUSH1 0x1 PUSH1 0x40 SHL SUB DUP1 DUP3 GT ISZERO PUSH3 0x69B JUMPI PUSH3 0x69B PUSH3 0x623 JUMP JUMPDEST PUSH1 0x40 MLOAD PUSH1 0x1F DUP4 ADD PUSH1 0x1F NOT SWAP1 DUP2 AND PUSH1 0x3F ADD AND DUP2 ADD SWAP1 DUP3 DUP3 GT DUP2 DUP4 LT OR ISZERO PUSH3 0x6C6 JUMPI PUSH3 0x6C6 PUSH3 0x623 JUMP JUMPDEST DUP2 PUSH1 0x40 MSTORE DUP4 DUP2 MSTORE DUP7 PUSH1 0x20 DUP6 DUP9 ADD ADD GT ISZERO PUSH3 0x6E0 JUMPI PUSH1 0x0 DUP1 REVERT JUMPDEST PUSH3 0x6F3 DUP5 PUSH1 0x20 DUP4 ADD PUSH1 0x20 DUP10 ADD PUSH3 0x639 JUMP JUMPDEST SWAP7 SWAP6 POP POP POP POP POP POP JUMP JUMPDEST DUP1 MLOAD PUSH1 0x1 PUSH1 0x1 PUSH1 0xA0 SHL SUB DUP2 AND DUP2 EQ PUSH3 0x715 JUMPI PUSH1 0x0 DUP1 REVERT JUMPDEST SWAP2 SWAP1 POP JUMP JUMPDEST PUSH1 0x0 DUP1 PUSH1 0x0 DUP1 PUSH1 0x80 DUP6 DUP8 SUB SLT ISZERO PUSH3 0x731 JUMPI PUSH1 0x0 DUP1 REVERT JUMPDEST DUP5 MLOAD PUSH1 0x1 PUSH1 0x1 PUSH1 0x40 SHL SUB DUP1 DUP3 GT ISZERO PUSH3 0x749 JUMPI PUSH1 0x0 DUP1 REVERT JUMPDEST PUSH3 0x757 DUP9 DUP4 DUP10 ADD PUSH3 0x66C JUMP JUMPDEST SWAP6 POP PUSH1 0x20 DUP8 ADD MLOAD SWAP2 POP DUP1 DUP3 GT ISZERO PUSH3 0x76E JUMPI PUSH1 0x0 DUP1 REVERT JUMPDEST POP PUSH3 0x77D DUP8 DUP3 DUP9 ADD PUSH3 0x66C JUMP JUMPDEST SWAP4 POP POP PUSH3 0x78E PUSH1 0x40 DUP7 ADD PUSH3 0x6FD JUMP JUMPDEST SWAP2 POP PUSH3 0x79E PUSH1 0x60 DUP7 ADD PUSH3 0x6FD JUMP JUMPDEST SWAP1 POP SWAP3 SWAP6 SWAP2 SWAP5 POP SWAP3 POP JUMP JUMPDEST PUSH32 0x416363657373436F6E74726F6C3A206163636F756E7420000000000000000000 DUP2 MSTORE PUSH1 0x0 DUP4 MLOAD PUSH3 0x7E3 DUP2 PUSH1 0x17 DUP6 ADD PUSH1 0x20 DUP9 ADD PUSH3 0x639 JUMP JUMPDEST PUSH17 0x1034B99036B4B9B9B4B733903937B6329 PUSH1 0x7D SHL PUSH1 0x17 SWAP2 DUP5 ADD SWAP2 DUP3 ADD MSTORE DUP4 MLOAD PUSH3 0x816 DUP2 PUSH1 0x28 DUP5 ADD PUSH1 0x20 DUP9 ADD PUSH3 0x639 JUMP JUMPDEST ADD PUSH1 0x28 ADD SWAP5 SWAP4 POP POP POP POP JUMP JUMPDEST PUSH1 0x20 DUP2 MSTORE PUSH1 0x0 DUP3 MLOAD DUP1 PUSH1 0x20 DUP5 ADD MSTORE PUSH3 0x843 DUP2 PUSH1 0x40 DUP6 ADD PUSH1 0x20 DUP8 ADD PUSH3 0x639 JUMP JUMPDEST PUSH1 0x1F ADD PUSH1 0x1F NOT AND SWAP2 SWAP1 SWAP2 ADD PUSH1 0x40 ADD SWAP3 SWAP2 POP POP JUMP JUMPDEST PUSH4 0x4E487B71 PUSH1 0xE0 SHL PUSH1 0x0 MSTORE PUSH1 0x11 PUSH1 0x4 MSTORE PUSH1 0x24 PUSH1 0x0 REVERT JUMPDEST PUSH1 0x0 DUP2 PUSH1 0x0 NOT DIV DUP4 GT DUP3 ISZERO ISZERO AND ISZERO PUSH3 0x88A JUMPI PUSH3 0x88A PUSH3 0x857 JUMP JUMPDEST POP MUL SWAP1 JUMP JUMPDEST PUSH1 0x0 DUP3 NOT DUP3 GT ISZERO PUSH3 0x8A5 JUMPI PUSH3 0x8A5 PUSH3 0x857 JUMP JUMPDEST POP ADD SWAP1 JUMP JUMPDEST PUSH4 0x4E487B71 PUSH1 0xE0 SHL PUSH1 0x0 MSTORE PUSH1 0x32 PUSH1 0x4 MSTORE PUSH1 0x24 PUSH1 0x0 REVERT JUMPDEST PUSH1 0x0 DUP2 PUSH3 0x8D2 JUMPI PUSH3 0x8D2 PUSH3 0x857 JUMP JUMPDEST POP PUSH1 0x0 NOT ADD SWAP1 JUMP JUMPDEST PUSH1 0x1 DUP2 DUP2 SHR SWAP1 DUP3 AND DUP1 PUSH3 0x8EF JUMPI PUSH1 0x7F DUP3 AND SWAP2 POP JUMPDEST PUSH1 0x20 DUP3 LT DUP2 EQ ISZERO PUSH3 0x911 JUMPI PUSH4 0x4E487B71 PUSH1 0xE0 SHL PUSH1 0x0 MSTORE PUSH1 0x22 PUSH1 0x4 MSTORE PUSH1 0x24 PUSH1 0x0 REVERT JUMPDEST POP SWAP2 SWAP1 POP JUMP JUMPDEST PUSH1 0x80 MLOAD PUSH2 0x31CA PUSH3 0x956 PUSH1 0x0 CODECOPY PUSH1 0x0 DUP2 DUP2 PUSH2 0x32E ADD MSTORE DUP2 DUP2 PUSH2 0x971 ADD MSTORE DUP2 DUP2 PUSH2 0xD7D ADD MSTORE DUP2 DUP2 PUSH2 0xF2F ADD MSTORE DUP2 DUP2 PUSH2 0x12B9 ADD MSTORE PUSH2 0x1453 ADD MSTORE PUSH2 0x31CA PUSH1 0x0 RETURN INVALID PUSH1 0x80 PUSH1 0x40 MSTORE PUSH1 0x4 CALLDATASIZE LT PUSH2 0x2A0 JUMPI PUSH1 0x0 CALLDATALOAD PUSH1 0xE0 SHR DUP1 PUSH4 0x5C975ABB GT PUSH2 0x16E JUMPI DUP1 PUSH4 0xA217FDDF GT PUSH2 0xCB JUMPI DUP1 PUSH4 0xCA597866 GT PUSH2 0x7F JUMPI DUP1 PUSH4 0xD547741F GT PUSH2 0x64 JUMPI DUP1 PUSH4 0xD547741F EQ PUSH2 0x79F JUMPI DUP1 PUSH4 0xDD62ED3E EQ PUSH2 0x7BF JUMPI DUP1 PUSH4 0xE63AB1E9 EQ PUSH2 0x805 JUMPI PUSH1 0x0 DUP1 REVERT JUMPDEST DUP1 PUSH4 0xCA597866 EQ PUSH2 0x758 JUMPI DUP1 PUSH4 0xD5391393 EQ PUSH2 0x76B JUMPI PUSH1 0x0 DUP1 REVERT JUMPDEST DUP1 PUSH4 0xA9059CBB GT PUSH2 0xB0 JUMPI DUP1 PUSH4 0xA9059CBB EQ PUSH2 0x6F8 JUMPI DUP1 PUSH4 0xBA86093B EQ PUSH2 0x718 JUMPI DUP1 PUSH4 0xCA15C873 EQ PUSH2 0x738 JUMPI PUSH1 0x0 DUP1 REVERT JUMPDEST DUP1 PUSH4 0xA217FDDF EQ PUSH2 0x6C3 JUMPI DUP1 PUSH4 0xA457C2D7 EQ PUSH2 0x6D8 JUMPI PUSH1 0x0 DUP1 REVERT JUMPDEST DUP1 PUSH4 0x8456CB59 GT PUSH2 0x122 JUMPI DUP1 PUSH4 0x9010D07C GT PUSH2 0x107 JUMPI DUP1 PUSH4 0x9010D07C EQ PUSH2 0x64A JUMPI DUP1 PUSH4 0x91D14854 EQ PUSH2 0x66A JUMPI DUP1 PUSH4 0x95D89B41 EQ PUSH2 0x6AE JUMPI PUSH1 0x0 DUP1 REVERT JUMPDEST DUP1 PUSH4 0x8456CB59 EQ PUSH2 0x5FD JUMPI DUP1 PUSH4 0x8B3511F7 EQ PUSH2 0x612 JUMPI PUSH1 0x0 DUP1 REVERT JUMPDEST DUP1 PUSH4 0x79CC6790 GT PUSH2 0x153 JUMPI DUP1 PUSH4 0x79CC6790 EQ PUSH2 0x598 JUMPI DUP1 PUSH4 0x7BB89072 EQ PUSH2 0x5B8 JUMPI DUP1 PUSH4 0x80D14B4A EQ PUSH2 0x5D8 JUMPI PUSH1 0x0 DUP1 REVERT JUMPDEST DUP1 PUSH4 0x5C975ABB EQ PUSH2 0x54A JUMPI DUP1 PUSH4 0x70A08231 EQ PUSH2 0x562 JUMPI PUSH1 0x0 DUP1 REVERT JUMPDEST DUP1 PUSH4 0x2F2FF15D GT PUSH2 0x21C JUMPI DUP1 PUSH4 0x40C10F19 GT PUSH2 0x1D0 JUMPI DUP1 PUSH4 0x44DEE17F GT PUSH2 0x1B5 JUMPI DUP1 PUSH4 0x44DEE17F EQ PUSH2 0x4F7 JUMPI DUP1 PUSH4 0x45700205 EQ PUSH2 0x517 JUMPI DUP1 PUSH4 0x49160658 EQ PUSH2 0x52A JUMPI PUSH1 0x0 DUP1 REVERT JUMPDEST DUP1 PUSH4 0x40C10F19 EQ PUSH2 0x4B7 JUMPI DUP1 PUSH4 0x42966C68 EQ PUSH2 0x4D7 JUMPI PUSH1 0x0 DUP1 REVERT JUMPDEST DUP1 PUSH4 0x36568ABE GT PUSH2 0x201 JUMPI DUP1 PUSH4 0x36568ABE EQ PUSH2 0x462 JUMPI DUP1 PUSH4 0x39509351 EQ PUSH2 0x482 JUMPI DUP1 PUSH4 0x3F4BA83A EQ PUSH2 0x4A2 JUMPI PUSH1 0x0 DUP1 REVERT JUMPDEST DUP1 PUSH4 0x2F2FF15D EQ PUSH2 0x426 JUMPI DUP1 PUSH4 0x313CE567 EQ PUSH2 0x446 JUMPI PUSH1 0x0 DUP1 REVERT JUMPDEST DUP1 PUSH4 0x18160DDD GT PUSH2 0x273 JUMPI DUP1 PUSH4 0x1A98B2E0 GT PUSH2 0x258 JUMPI DUP1 PUSH4 0x1A98B2E0 EQ PUSH2 0x3B4 JUMPI DUP1 PUSH4 0x23B872DD EQ PUSH2 0x3D6 JUMPI DUP1 PUSH4 0x248A9CA3 EQ PUSH2 0x3F6 JUMPI PUSH1 0x0 DUP1 REVERT JUMPDEST DUP1 PUSH4 0x18160DDD EQ PUSH2 0x368 JUMPI DUP1 PUSH4 0x19E6E158 EQ PUSH2 0x387 JUMPI PUSH1 0x0 DUP1 REVERT JUMPDEST DUP1 PUSH4 0x1FFC9A7 EQ PUSH2 0x2A5 JUMPI DUP1 PUSH4 0x6FDDE03 EQ PUSH2 0x2DA JUMPI DUP1 PUSH4 0x95EA7B3 EQ PUSH2 0x2FC JUMPI DUP1 PUSH4 0x116191B6 EQ PUSH2 0x31C JUMPI JUMPDEST PUSH1 0x0 DUP1 REVERT JUMPDEST CALLVALUE DUP1 ISZERO PUSH2 0x2B1 JUMPI PUSH1 0x0 DUP1 REVERT JUMPDEST POP PUSH2 0x2C5 PUSH2 0x2C0 CALLDATASIZE PUSH1 0x4 PUSH2 0x25F1 JUMP JUMPDEST PUSH2 0x839 JUMP JUMPDEST PUSH1 0x40 MLOAD SWAP1 ISZERO ISZERO DUP2 MSTORE PUSH1 0x20 ADD JUMPDEST PUSH1 0x40 MLOAD DUP1 SWAP2 SUB SWAP1 RETURN JUMPDEST CALLVALUE DUP1 ISZERO PUSH2 0x2E6 JUMPI PUSH1 0x0 DUP1 REVERT JUMPDEST POP PUSH2 0x2EF PUSH2 0x87D JUMP JUMPDEST PUSH1 0x40 MLOAD PUSH2 0x2D1 SWAP2 SWAP1 PUSH2 0x2673 JUMP JUMPDEST CALLVALUE DUP1 ISZERO PUSH2 0x308 JUMPI PUSH1 0x0 DUP1 REVERT JUMPDEST POP PUSH2 0x2C5 PUSH2 0x317 CALLDATASIZE PUSH1 0x4 PUSH2 0x26A2 JUMP JUMPDEST PUSH2 0x90F JUMP JUMPDEST CALLVALUE DUP1 ISZERO PUSH2 0x328 JUMPI PUSH1 0x0 DUP1 REVERT JUMPDEST POP PUSH2 0x350 PUSH32 0x0 DUP2 JUMP JUMPDEST PUSH1 0x40 MLOAD PUSH1 0x1 PUSH1 0x1 PUSH1 0xA0 SHL SUB SWAP1 SWAP2 AND DUP2 MSTORE PUSH1 0x20 ADD PUSH2 0x2D1 JUMP JUMPDEST CALLVALUE DUP1 ISZERO PUSH2 0x374 JUMPI PUSH1 0x0 DUP1 REVERT JUMPDEST POP PUSH1 0x4 SLOAD JUMPDEST PUSH1 0x40 MLOAD SWAP1 DUP2 MSTORE PUSH1 0x20 ADD PUSH2 0x2D1 JUMP JUMPDEST CALLVALUE DUP1 ISZERO PUSH2 0x393 JUMPI PUSH1 0x0 DUP1 REVERT JUMPDEST POP PUSH2 0x379 PUSH2 0x3A2 CALLDATASIZE PUSH1 0x4 PUSH2 0x26CC JUMP JUMPDEST PUSH1 0x9 PUSH1 0x20 MSTORE PUSH1 0x0 SWAP1 DUP2 MSTORE PUSH1 0x40 SWAP1 KECCAK256 SLOAD DUP2 JUMP JUMPDEST CALLVALUE DUP1 ISZERO PUSH2 0x3C0 JUMPI PUSH1 0x0 DUP1 REVERT JUMPDEST POP PUSH2 0x3D4 PUSH2 0x3CF CALLDATASIZE PUSH1 0x4 PUSH2 0x272E JUMP JUMPDEST PUSH2 0x927 JUMP JUMPDEST STOP JUMPDEST CALLVALUE DUP1 ISZERO PUSH2 0x3E2 JUMPI PUSH1 0x0 DUP1 REVERT JUMPDEST POP PUSH2 0x2C5 PUSH2 0x3F1 CALLDATASIZE PUSH1 0x4 PUSH2 0x2808 JUMP JUMPDEST PUSH2 0xA32 JUMP JUMPDEST CALLVALUE DUP1 ISZERO PUSH2 0x402 JUMPI PUSH1 0x0 DUP1 REVERT JUMPDEST POP PUSH2 0x379 PUSH2 0x411 CALLDATASIZE PUSH1 0x4 PUSH2 0x26CC JUMP JUMPDEST PUSH1 0x0 SWAP1 DUP2 MSTORE PUSH1 0x20 DUP2 SWAP1 MSTORE PUSH1 0x40 SWAP1 KECCAK256 PUSH1 0x1 ADD SLOAD SWAP1 JUMP JUMPDEST CALLVALUE DUP1 ISZERO PUSH2 0x432 JUMPI PUSH1 0x0 DUP1 REVERT JUMPDEST POP PUSH2 0x3D4 PUSH2 0x441 CALLDATASIZE PUSH1 0x4 PUSH2 0x2844 JUMP JUMPDEST PUSH2 0xA56 JUMP JUMPDEST CALLVALUE DUP1 ISZERO PUSH2 0x452 JUMPI PUSH1 0x0 DUP1 REVERT JUMPDEST POP PUSH1 0x40 MLOAD PUSH1 0x12 DUP2 MSTORE PUSH1 0x20 ADD PUSH2 0x2D1 JUMP JUMPDEST CALLVALUE DUP1 ISZERO PUSH2 0x46E JUMPI PUSH1 0x0 DUP1 REVERT JUMPDEST POP PUSH2 0x3D4 PUSH2 0x47D CALLDATASIZE PUSH1 0x4 PUSH2 0x2844 JUMP JUMPDEST PUSH2 0xA80 JUMP JUMPDEST CALLVALUE DUP1 ISZERO PUSH2 0x48E JUMPI PUSH1 0x0 DUP1 REVERT JUMPDEST POP PUSH2 0x2C5 PUSH2 0x49D CALLDATASIZE PUSH1 0x4 PUSH2 0x26A2 JUMP JUMPDEST PUSH2 0xB11 JUMP JUMPDEST CALLVALUE DUP1 ISZERO PUSH2 0x4AE JUMPI PUSH1 0x0 DUP1 REVERT JUMPDEST POP PUSH2 0x3D4 PUSH2 0xB50 JUMP JUMPDEST CALLVALUE DUP1 ISZERO PUSH2 0x4C3 JUMPI PUSH1 0x0 DUP1 REVERT JUMPDEST POP PUSH2 0x3D4 PUSH2 0x4D2 CALLDATASIZE PUSH1 0x4 PUSH2 0x26A2 JUMP JUMPDEST PUSH2 0xBF6 JUMP JUMPDEST CALLVALUE DUP1 ISZERO PUSH2 0x4E3 JUMPI PUSH1 0x0 DUP1 REVERT JUMPDEST POP PUSH2 0x3D4 PUSH2 0x4F2 CALLDATASIZE PUSH1 0x4 PUSH2 0x26CC JUMP JUMPDEST PUSH2 0xC9C JUMP JUMPDEST CALLVALUE DUP1 ISZERO PUSH2 0x503 JUMPI PUSH1 0x0 DUP1 REVERT JUMPDEST POP PUSH2 0x3D4 PUSH2 0x512 CALLDATASIZE PUSH1 0x4 PUSH2 0x26CC JUMP JUMPDEST PUSH2 0xCA9 JUMP JUMPDEST PUSH2 0x3D4 PUSH2 0x525 CALLDATASIZE PUSH1 0x4 PUSH2 0x292F JUMP JUMPDEST PUSH2 0xCB3 JUMP JUMPDEST CALLVALUE DUP1 ISZERO PUSH2 0x536 JUMPI PUSH1 0x0 DUP1 REVERT JUMPDEST POP PUSH2 0x3D4 PUSH2 0x545 CALLDATASIZE PUSH1 0x4 PUSH2 0x29A7 JUMP JUMPDEST PUSH2 0xD33 JUMP JUMPDEST CALLVALUE DUP1 ISZERO PUSH2 0x556 JUMPI PUSH1 0x0 DUP1 REVERT JUMPDEST POP PUSH1 0x7 SLOAD PUSH1 0xFF AND PUSH2 0x2C5 JUMP JUMPDEST CALLVALUE DUP1 ISZERO PUSH2 0x56E JUMPI PUSH1 0x0 DUP1 REVERT JUMPDEST POP PUSH2 0x379 PUSH2 0x57D CALLDATASIZE PUSH1 0x4 PUSH2 0x2A4B JUMP JUMPDEST PUSH1 0x1 PUSH1 0x1 PUSH1 0xA0 SHL SUB AND PUSH1 0x0 SWAP1 DUP2 MSTORE PUSH1 0x2 PUSH1 0x20 MSTORE PUSH1 0x40 SWAP1 KECCAK256 SLOAD SWAP1 JUMP JUMPDEST CALLVALUE DUP1 ISZERO PUSH2 0x5A4 JUMPI PUSH1 0x0 DUP1 REVERT JUMPDEST POP PUSH2 0x3D4 PUSH2 0x5B3 CALLDATASIZE PUSH1 0x4 PUSH2 0x26A2 JUMP JUMPDEST PUSH2 0xE43 JUMP JUMPDEST CALLVALUE DUP1 ISZERO PUSH2 0x5C4 JUMPI PUSH1 0x0 DUP1 REVERT JUMPDEST POP PUSH2 0x3D4 PUSH2 0x5D3 CALLDATASIZE PUSH1 0x4 PUSH2 0x2A66 JUMP JUMPDEST PUSH2 0xE58 JUMP JUMPDEST CALLVALUE DUP1 ISZERO PUSH2 0x5E4 JUMPI PUSH1 0x0 DUP1 REVERT JUMPDEST POP PUSH1 0x7 SLOAD PUSH2 0x350 SWAP1 PUSH2 0x100 SWAP1 DIV PUSH1 0x1 PUSH1 0x1 PUSH1 0xA0 SHL SUB AND DUP2 JUMP JUMPDEST CALLVALUE DUP1 ISZERO PUSH2 0x609 JUMPI PUSH1 0x0 DUP1 REVERT JUMPDEST POP PUSH2 0x3D4 PUSH2 0xFEE JUMP JUMPDEST CALLVALUE DUP1 ISZERO PUSH2 0x61E JUMPI PUSH1 0x0 DUP1 REVERT JUMPDEST POP PUSH2 0x379 PUSH2 0x62D CALLDATASIZE PUSH1 0x4 PUSH2 0x26A2 JUMP JUMPDEST PUSH1 0x8 PUSH1 0x20 SWAP1 DUP2 MSTORE PUSH1 0x0 SWAP3 DUP4 MSTORE PUSH1 0x40 DUP1 DUP5 KECCAK256 SWAP1 SWAP2 MSTORE SWAP1 DUP3 MSTORE SWAP1 KECCAK256 SLOAD DUP2 JUMP JUMPDEST CALLVALUE DUP1 ISZERO PUSH2 0x656 JUMPI PUSH1 0x0 DUP1 REVERT JUMPDEST POP PUSH2 0x350 PUSH2 0x665 CALLDATASIZE PUSH1 0x4 PUSH2 0x2ADD JUMP JUMPDEST PUSH2 0x1092 JUMP JUMPDEST CALLVALUE DUP1 ISZERO PUSH2 0x676 JUMPI PUSH1 0x0 DUP1 REVERT JUMPDEST POP PUSH2 0x2C5 PUSH2 0x685 CALLDATASIZE PUSH1 0x4 PUSH2 0x2844 JUMP JUMPDEST PUSH1 0x0 SWAP2 DUP3 MSTORE PUSH1 0x20 DUP3 DUP2 MSTORE PUSH1 0x40 DUP1 DUP5 KECCAK256 PUSH1 0x1 PUSH1 0x1 PUSH1 0xA0 SHL SUB SWAP4 SWAP1 SWAP4 AND DUP5 MSTORE SWAP2 SWAP1 MSTORE SWAP1 KECCAK256 SLOAD PUSH1 0xFF AND SWAP1 JUMP JUMPDEST CALLVALUE DUP1 ISZERO PUSH2 0x6BA JUMPI PUSH1 0x0 DUP1 REVERT JUMPDEST POP PUSH2 0x2EF PUSH2 0x10B1 JUMP JUMPDEST CALLVALUE DUP1 ISZERO PUSH2 0x6CF JUMPI PUSH1 0x0 DUP1 REVERT JUMPDEST POP PUSH2 0x379 PUSH1 0x0 DUP2 JUMP JUMPDEST CALLVALUE DUP1 ISZERO PUSH2 0x6E4 JUMPI PUSH1 0x0 DUP1 REVERT JUMPDEST POP PUSH2 0x2C5 PUSH2 0x6F3 CALLDATASIZE PUSH1 0x4 PUSH2 0x26A2 JUMP JUMPDEST PUSH2 0x10C0 JUMP JUMPDEST CALLVALUE DUP1 ISZERO PUSH2 0x704 JUMPI PUSH1 0x0 DUP1 REVERT JUMPDEST POP PUSH2 0x2C5 PUSH2 0x713 CALLDATASIZE PUSH1 0x4 PUSH2 0x26A2 JUMP JUMPDEST PUSH2 0x116A JUMP JUMPDEST CALLVALUE DUP1 ISZERO PUSH2 0x724 JUMPI PUSH1 0x0 DUP1 REVERT JUMPDEST POP PUSH2 0x3D4 PUSH2 0x733 CALLDATASIZE PUSH1 0x4 PUSH2 0x2A66 JUMP JUMPDEST PUSH2 0x1178 JUMP JUMPDEST CALLVALUE DUP1 ISZERO PUSH2 0x744 JUMPI PUSH1 0x0 DUP1 REVERT JUMPDEST POP PUSH2 0x379 PUSH2 0x753 CALLDATASIZE PUSH1 0x4 PUSH2 0x26CC JUMP JUMPDEST PUSH2 0x136C JUMP JUMPDEST PUSH2 0x3D4 PUSH2 0x766 CALLDATASIZE PUSH1 0x4 PUSH2 0x2B44 JUMP JUMPDEST PUSH2 0x1383 JUMP JUMPDEST CALLVALUE DUP1 ISZERO PUSH2 0x777 JUMPI PUSH1 0x0 DUP1 REVERT JUMPDEST POP PUSH2 0x379 PUSH32 0x9F2DF0FED2C77648DE5860A4CC508CD0818C85B8B8A1AB4CEEEF8D981C8956A6 DUP2 JUMP JUMPDEST CALLVALUE DUP1 ISZERO PUSH2 0x7AB JUMPI PUSH1 0x0 DUP1 REVERT JUMPDEST POP PUSH2 0x3D4 PUSH2 0x7BA CALLDATASIZE PUSH1 0x4 PUSH2 0x2844 JUMP JUMPDEST PUSH2 0x14CE JUMP JUMPDEST CALLVALUE DUP1 ISZERO PUSH2 0x7CB JUMPI PUSH1 0x0 DUP1 REVERT JUMPDEST POP PUSH2 0x379 PUSH2 0x7DA CALLDATASIZE PUSH1 0x4 PUSH2 0x2C08 JUMP JUMPDEST PUSH1 0x1 PUSH1 0x1 PUSH1 0xA0 SHL SUB SWAP2 DUP3 AND PUSH1 0x0 SWAP1 DUP2 MSTORE PUSH1 0x3 PUSH1 0x20 SWAP1 DUP2 MSTORE PUSH1 0x40 DUP1 DUP4 KECCAK256 SWAP4 SWAP1 SWAP5 AND DUP3 MSTORE SWAP2 SWAP1 SWAP2 MSTORE KECCAK256 SLOAD SWAP1 JUMP JUMPDEST CALLVALUE DUP1 ISZERO PUSH2 0x811 JUMPI PUSH1 0x0 DUP1 REVERT JUMPDEST POP PUSH2 0x379 PUSH32 0x65D7A28E3265B37A6474929F336521B332C1681B933F6CB9F3376673440D862A DUP2 JUMP JUMPDEST PUSH1 0x0 PUSH1 0x1 PUSH1 0x1 PUSH1 0xE0 SHL SUB NOT DUP3 AND PUSH32 0x5A05180F00000000000000000000000000000000000000000000000000000000 EQ DUP1 PUSH2 0x877 JUMPI POP PUSH2 0x877 DUP3 PUSH2 0x174F JUMP JUMPDEST SWAP3 SWAP2 POP POP JUMP JUMPDEST PUSH1 0x60 PUSH1 0x5 DUP1 SLOAD PUSH2 0x88C SWAP1 PUSH2 0x2C32 JUMP JUMPDEST DUP1 PUSH1 0x1F ADD PUSH1 0x20 DUP1 SWAP2 DIV MUL PUSH1 0x20 ADD PUSH1 0x40 MLOAD SWAP1 DUP2 ADD PUSH1 0x40 MSTORE DUP1 SWAP3 SWAP2 SWAP1 DUP2 DUP2 MSTORE PUSH1 0x20 ADD DUP3 DUP1 SLOAD PUSH2 0x8B8 SWAP1 PUSH2 0x2C32 JUMP JUMPDEST DUP1 ISZERO PUSH2 0x905 JUMPI DUP1 PUSH1 0x1F LT PUSH2 0x8DA JUMPI PUSH2 0x100 DUP1 DUP4 SLOAD DIV MUL DUP4 MSTORE SWAP2 PUSH1 0x20 ADD SWAP2 PUSH2 0x905 JUMP JUMPDEST DUP3 ADD SWAP2 SWAP1 PUSH1 0x0 MSTORE PUSH1 0x20 PUSH1 0x0 KECCAK256 SWAP1 JUMPDEST DUP2 SLOAD DUP2 MSTORE SWAP1 PUSH1 0x1 ADD SWAP1 PUSH1 0x20 ADD DUP1 DUP4 GT PUSH2 0x8E8 JUMPI DUP3 SWAP1 SUB PUSH1 0x1F AND DUP3 ADD SWAP2 JUMPDEST POP POP POP POP POP SWAP1 POP SWAP1 JUMP JUMPDEST PUSH1 0x0 CALLER PUSH2 0x91D DUP2 DUP6 DUP6 PUSH2 0x17B6 JUMP JUMPDEST POP PUSH1 0x1 SWAP4 SWAP3 POP POP POP JUMP JUMPDEST PUSH1 0x0 DUP6 DUP6 PUSH1 0x40 MLOAD PUSH2 0x939 SWAP3 SWAP2 SWAP1 PUSH2 0x2C6D JUMP JUMPDEST PUSH1 0x40 MLOAD SWAP1 DUP2 SWAP1 SUB DUP2 KECCAK256 PUSH32 0x1876EED900000000000000000000000000000000000000000000000000000000 DUP3 MSTORE SWAP2 POP PUSH1 0x1 PUSH1 0x1 PUSH1 0xA0 SHL SUB PUSH32 0x0 AND SWAP1 PUSH4 0x1876EED9 SWAP1 PUSH2 0x9B6 SWAP1 DUP15 SWAP1 DUP15 SWAP1 DUP15 SWAP1 DUP15 SWAP1 DUP15 SWAP1 DUP10 SWAP1 DUP14 SWAP1 DUP14 SWAP1 DUP14 SWAP1 PUSH1 0x4 ADD PUSH2 0x2CA6 JUMP JUMPDEST PUSH1 0x20 PUSH1 0x40 MLOAD DUP1 DUP4 SUB DUP2 PUSH1 0x0 DUP8 DUP1 EXTCODESIZE ISZERO DUP1 ISZERO PUSH2 0x9D0 JUMPI PUSH1 0x0 DUP1 REVERT JUMPDEST POP GAS CALL ISZERO DUP1 ISZERO PUSH2 0x9E4 JUMPI RETURNDATASIZE PUSH1 0x0 DUP1 RETURNDATACOPY RETURNDATASIZE PUSH1 0x0 REVERT JUMPDEST POP POP POP POP PUSH1 0x40 MLOAD RETURNDATASIZE PUSH1 0x1F NOT PUSH1 0x1F DUP3 ADD AND DUP3 ADD DUP1 PUSH1 0x40 MSTORE POP DUP2 ADD SWAP1 PUSH2 0xA08 SWAP2 SWAP1 PUSH2 0x2D05 JUMP JUMPDEST PUSH2 0xA25 JUMPI PUSH1 0x40 MLOAD PUSH4 0x1403112D PUSH1 0xE2 SHL DUP2 MSTORE PUSH1 0x4 ADD PUSH1 0x40 MLOAD DUP1 SWAP2 SUB SWAP1 REVERT JUMPDEST POP POP POP POP POP POP POP POP POP POP POP JUMP JUMPDEST PUSH1 0x0 CALLER PUSH2 0xA40 DUP6 DUP3 DUP6 PUSH2 0x1919 JUMP JUMPDEST PUSH2 0xA4B DUP6 DUP6 DUP6 PUSH2 0x19AB JUMP JUMPDEST POP PUSH1 0x1 SWAP5 SWAP4 POP POP POP POP JUMP JUMPDEST PUSH1 0x0 DUP3 DUP2 MSTORE PUSH1 0x20 DUP2 SWAP1 MSTORE PUSH1 0x40 SWAP1 KECCAK256 PUSH1 0x1 ADD SLOAD PUSH2 0xA71 DUP2 PUSH2 0x1BCD JUMP JUMPDEST PUSH2 0xA7B DUP4 DUP4 PUSH2 0x1BD7 JUMP JUMPDEST POP POP POP JUMP JUMPDEST PUSH1 0x1 PUSH1 0x1 PUSH1 0xA0 SHL SUB DUP2 AND CALLER EQ PUSH2 0xB03 JUMPI PUSH1 0x40 MLOAD PUSH3 0x461BCD PUSH1 0xE5 SHL DUP2 MSTORE PUSH1 0x20 PUSH1 0x4 DUP3 ADD MSTORE PUSH1 0x2F PUSH1 0x24 DUP3 ADD MSTORE PUSH32 0x416363657373436F6E74726F6C3A2063616E206F6E6C792072656E6F756E6365 PUSH1 0x44 DUP3 ADD MSTORE PUSH32 0x20726F6C657320666F722073656C660000000000000000000000000000000000 PUSH1 0x64 DUP3 ADD MSTORE PUSH1 0x84 ADD JUMPDEST PUSH1 0x40 MLOAD DUP1 SWAP2 SUB SWAP1 REVERT JUMPDEST PUSH2 0xB0D DUP3 DUP3 PUSH2 0x1BF9 JUMP JUMPDEST POP POP JUMP JUMPDEST CALLER PUSH1 0x0 DUP2 DUP2 MSTORE PUSH1 0x3 PUSH1 0x20 SWAP1 DUP2 MSTORE PUSH1 0x40 DUP1 DUP4 KECCAK256 PUSH1 0x1 PUSH1 0x1 PUSH1 0xA0 SHL SUB DUP8 AND DUP5 MSTORE SWAP1 SWAP2 MSTORE DUP2 KECCAK256 SLOAD SWAP1 SWAP2 SWAP1 PUSH2 0x91D SWAP1 DUP3 SWAP1 DUP7 SWAP1 PUSH2 0xB4B SWAP1 DUP8 SWAP1 PUSH2 0x2D3D JUMP JUMPDEST PUSH2 0x17B6 JUMP JUMPDEST PUSH2 0xB7A PUSH32 0x65D7A28E3265B37A6474929F336521B332C1681B933F6CB9F3376673440D862A CALLER PUSH2 0x685 JUMP JUMPDEST PUSH2 0xBEC JUMPI PUSH1 0x40 MLOAD PUSH3 0x461BCD PUSH1 0xE5 SHL DUP2 MSTORE PUSH1 0x20 PUSH1 0x4 DUP3 ADD MSTORE PUSH1 0x39 PUSH1 0x24 DUP3 ADD MSTORE PUSH32 0x45524332305072657365744D696E7465725061757365723A206D757374206861 PUSH1 0x44 DUP3 ADD MSTORE PUSH32 0x76652070617573657220726F6C6520746F20756E706175736500000000000000 PUSH1 0x64 DUP3 ADD MSTORE PUSH1 0x84 ADD PUSH2 0xAFA JUMP JUMPDEST PUSH2 0xBF4 PUSH2 0x1C1B JUMP JUMPDEST JUMP JUMPDEST PUSH2 0xC20 PUSH32 0x9F2DF0FED2C77648DE5860A4CC508CD0818C85B8B8A1AB4CEEEF8D981C8956A6 CALLER PUSH2 0x685 JUMP JUMPDEST PUSH2 0xC92 JUMPI PUSH1 0x40 MLOAD PUSH3 0x461BCD PUSH1 0xE5 SHL DUP2 MSTORE PUSH1 0x20 PUSH1 0x4 DUP3 ADD MSTORE PUSH1 0x36 PUSH1 0x24 DUP3 ADD MSTORE PUSH32 0x45524332305072657365744D696E7465725061757365723A206D757374206861 PUSH1 0x44 DUP3 ADD MSTORE PUSH32 0x7665206D696E74657220726F6C6520746F206D696E7400000000000000000000 PUSH1 0x64 DUP3 ADD MSTORE PUSH1 0x84 ADD PUSH2 0xAFA JUMP JUMPDEST PUSH2 0xB0D DUP3 DUP3 PUSH2 0x1C6D JUMP JUMPDEST PUSH2 0xCA6 CALLER DUP3 PUSH2 0x1D58 JUMP JUMPDEST POP JUMP JUMPDEST PUSH2 0xCA6 CALLER DUP3 PUSH2 0x1C6D JUMP JUMPDEST CALLVALUE ISZERO PUSH2 0xB0D JUMPI PUSH1 0x7 SLOAD PUSH2 0x100 SWAP1 DIV PUSH1 0x1 PUSH1 0x1 PUSH1 0xA0 SHL SUB AND PUSH4 0xC93E3BB CALLVALUE ADDRESS DUP6 PUSH2 0xCDB DUP3 PUSH2 0x1EE9 JUMP JUMPDEST DUP7 CALLER PUSH1 0x40 MLOAD DUP8 PUSH4 0xFFFFFFFF AND PUSH1 0xE0 SHL DUP2 MSTORE PUSH1 0x4 ADD PUSH2 0xCFD SWAP6 SWAP5 SWAP4 SWAP3 SWAP2 SWAP1 PUSH2 0x2D55 JUMP JUMPDEST PUSH1 0x0 PUSH1 0x40 MLOAD DUP1 DUP4 SUB DUP2 DUP6 DUP9 DUP1 EXTCODESIZE ISZERO DUP1 ISZERO PUSH2 0xD16 JUMPI PUSH1 0x0 DUP1 REVERT JUMPDEST POP GAS CALL ISZERO DUP1 ISZERO PUSH2 0xD2A JUMPI RETURNDATASIZE PUSH1 0x0 DUP1 RETURNDATACOPY RETURNDATASIZE PUSH1 0x0 REVERT JUMPDEST POP POP POP POP POP POP POP JUMP JUMPDEST PUSH1 0x0 DUP3 DUP3 PUSH1 0x40 MLOAD PUSH2 0xD45 SWAP3 SWAP2 SWAP1 PUSH2 0x2C6D JUMP JUMPDEST PUSH1 0x40 MLOAD SWAP1 DUP2 SWAP1 SUB DUP2 KECCAK256 PUSH32 0x5F6970C300000000000000000000000000000000000000000000000000000000 DUP3 MSTORE SWAP2 POP PUSH1 0x1 PUSH1 0x1 PUSH1 0xA0 SHL SUB PUSH32 0x0 AND SWAP1 PUSH4 0x5F6970C3 SWAP1 PUSH2 0xDBC SWAP1 DUP12 SWAP1 DUP12 SWAP1 DUP12 SWAP1 DUP12 SWAP1 DUP12 SWAP1 DUP10 SWAP1 PUSH1 0x4 ADD PUSH2 0x2DB4 JUMP JUMPDEST PUSH1 0x20 PUSH1 0x40 MLOAD DUP1 DUP4 SUB DUP2 PUSH1 0x0 DUP8 DUP1 EXTCODESIZE ISZERO DUP1 ISZERO PUSH2 0xDD6 JUMPI PUSH1 0x0 DUP1 REVERT JUMPDEST POP GAS CALL ISZERO DUP1 ISZERO PUSH2 0xDEA JUMPI RETURNDATASIZE PUSH1 0x0 DUP1 RETURNDATACOPY RETURNDATASIZE PUSH1 0x0 REVERT JUMPDEST POP POP POP POP PUSH1 0x40 MLOAD RETURNDATASIZE PUSH1 0x1F NOT PUSH1 0x1F DUP3 ADD AND DUP3 ADD DUP1 PUSH1 0x40 MSTORE POP DUP2 ADD SWAP1 PUSH2 0xE0E SWAP2 SWAP1 PUSH2 0x2D05 JUMP JUMPDEST PUSH2 0xE2B JUMPI PUSH1 0x40 MLOAD PUSH4 0x1403112D PUSH1 0xE2 SHL DUP2 MSTORE PUSH1 0x4 ADD PUSH1 0x40 MLOAD DUP1 SWAP2 SUB SWAP1 REVERT JUMPDEST PUSH2 0xE39 DUP8 DUP8 DUP8 DUP8 DUP8 DUP8 PUSH2 0x2181 JUMP JUMPDEST POP POP POP POP POP POP POP POP JUMP JUMPDEST PUSH2 0xE4E DUP3 CALLER DUP4 PUSH2 0x1919 JUMP JUMPDEST PUSH2 0xB0D DUP3 DUP3 PUSH2 0x1D58 JUMP JUMPDEST PUSH1 0x0 DUP4 DUP2 MSTORE PUSH1 0x9 PUSH1 0x20 MSTORE PUSH1 0x40 DUP2 KECCAK256 DUP1 SLOAD CALLER SWAP3 DUP8 SWAP3 SWAP2 PUSH2 0xE78 SWAP1 DUP5 SWAP1 PUSH2 0x2D3D JUMP JUMPDEST SWAP1 SWAP2 SSTORE POP POP PUSH1 0x1 PUSH1 0x1 PUSH1 0xA0 SHL SUB DUP2 AND PUSH1 0x0 SWAP1 DUP2 MSTORE PUSH1 0x8 PUSH1 0x20 SWAP1 DUP2 MSTORE PUSH1 0x40 DUP1 DUP4 KECCAK256 DUP8 DUP5 MSTORE SWAP1 SWAP2 MSTORE DUP2 KECCAK256 DUP1 SLOAD DUP8 SWAP3 SWAP1 PUSH2 0xEB0 SWAP1 DUP5 SWAP1 PUSH2 0x2D3D JUMP JUMPDEST SWAP1 SWAP2 SSTORE POP PUSH2 0xEBF SWAP1 POP DUP6 PUSH2 0xC9C JUMP JUMPDEST PUSH1 0x7 SLOAD PUSH1 0x40 DUP1 MLOAD PUSH1 0x20 DUP2 ADD DUP8 SWAP1 MSTORE SWAP1 DUP2 ADD DUP8 SWAP1 MSTORE PUSH22 0x1000000000000000000000000000000000000000000 SWAP1 SWAP2 DIV PUSH1 0xFF AND ISZERO ISZERO PUSH1 0x60 DUP3 ADD MSTORE PUSH1 0x0 SWAP1 PUSH1 0x80 ADD PUSH1 0x40 MLOAD PUSH1 0x20 DUP2 DUP4 SUB SUB DUP2 MSTORE SWAP1 PUSH1 0x40 MSTORE SWAP1 POP PUSH2 0xF18 DUP5 DUP3 PUSH2 0xCB3 JUMP JUMPDEST PUSH1 0x40 MLOAD PUSH4 0x1C92115F PUSH1 0xE0 SHL DUP2 MSTORE PUSH1 0x1 PUSH1 0x1 PUSH1 0xA0 SHL SUB PUSH32 0x0 AND SWAP1 PUSH4 0x1C92115F SWAP1 PUSH2 0xF68 SWAP1 DUP8 SWAP1 DUP8 SWAP1 DUP7 SWAP1 PUSH1 0x4 ADD PUSH2 0x2DF5 JUMP JUMPDEST PUSH1 0x0 PUSH1 0x40 MLOAD DUP1 DUP4 SUB DUP2 PUSH1 0x0 DUP8 DUP1 EXTCODESIZE ISZERO DUP1 ISZERO PUSH2 0xF82 JUMPI PUSH1 0x0 DUP1 REVERT JUMPDEST POP GAS CALL ISZERO DUP1 ISZERO PUSH2 0xF96 JUMPI RETURNDATASIZE PUSH1 0x0 DUP1 RETURNDATACOPY RETURNDATASIZE PUSH1 0x0 REVERT JUMPDEST POP POP PUSH1 0x40 DUP1 MLOAD PUSH1 0x1 PUSH1 0x1 PUSH1 0xA0 SHL SUB DUP7 AND DUP2 MSTORE PUSH1 0x20 DUP2 ADD DUP10 SWAP1 MSTORE SWAP1 DUP2 ADD DUP10 SWAP1 MSTORE PUSH32 0xCB87DF07B1C304492BD875A5C8B98672ECA500939412809EA229AFEF1D745188 SWAP3 POP PUSH1 0x60 ADD SWAP1 POP JUMPDEST PUSH1 0x40 MLOAD DUP1 SWAP2 SUB SWAP1 LOG1 POP POP POP POP POP POP JUMP JUMPDEST PUSH2 0x1018 PUSH32 0x65D7A28E3265B37A6474929F336521B332C1681B933F6CB9F3376673440D862A CALLER PUSH2 0x685 JUMP JUMPDEST PUSH2 0x108A JUMPI PUSH1 0x40 MLOAD PUSH3 0x461BCD PUSH1 0xE5 SHL DUP2 MSTORE PUSH1 0x20 PUSH1 0x4 DUP3 ADD MSTORE PUSH1 0x37 PUSH1 0x24 DUP3 ADD MSTORE PUSH32 0x45524332305072657365744D696E7465725061757365723A206D757374206861 PUSH1 0x44 DUP3 ADD MSTORE PUSH32 0x76652070617573657220726F6C6520746F207061757365000000000000000000 PUSH1 0x64 DUP3 ADD MSTORE PUSH1 0x84 ADD PUSH2 0xAFA JUMP JUMPDEST PUSH2 0xBF4 PUSH2 0x21F7 JUMP JUMPDEST PUSH1 0x0 DUP3 DUP2 MSTORE PUSH1 0x1 PUSH1 0x20 MSTORE PUSH1 0x40 DUP2 KECCAK256 PUSH2 0x10AA SWAP1 DUP4 PUSH2 0x2234 JUMP JUMPDEST SWAP4 SWAP3 POP POP POP JUMP JUMPDEST PUSH1 0x60 PUSH1 0x6 DUP1 SLOAD PUSH2 0x88C SWAP1 PUSH2 0x2C32 JUMP JUMPDEST CALLER PUSH1 0x0 DUP2 DUP2 MSTORE PUSH1 0x3 PUSH1 0x20 SWAP1 DUP2 MSTORE PUSH1 0x40 DUP1 DUP4 KECCAK256 PUSH1 0x1 PUSH1 0x1 PUSH1 0xA0 SHL SUB DUP8 AND DUP5 MSTORE SWAP1 SWAP2 MSTORE DUP2 KECCAK256 SLOAD SWAP1 SWAP2 SWAP1 DUP4 DUP2 LT ISZERO PUSH2 0x115D JUMPI PUSH1 0x40 MLOAD PUSH3 0x461BCD PUSH1 0xE5 SHL DUP2 MSTORE PUSH1 0x20 PUSH1 0x4 DUP3 ADD MSTORE PUSH1 0x25 PUSH1 0x24 DUP3 ADD MSTORE PUSH32 0x45524332303A2064656372656173656420616C6C6F77616E63652062656C6F77 PUSH1 0x44 DUP3 ADD MSTORE PUSH32 0x207A65726F000000000000000000000000000000000000000000000000000000 PUSH1 0x64 DUP3 ADD MSTORE PUSH1 0x84 ADD PUSH2 0xAFA JUMP JUMPDEST PUSH2 0xA4B DUP3 DUP7 DUP7 DUP5 SUB PUSH2 0x17B6 JUMP JUMPDEST PUSH1 0x0 CALLER PUSH2 0x91D DUP2 DUP6 DUP6 PUSH2 0x19AB JUMP JUMPDEST CALLER PUSH1 0x0 DUP2 DUP2 MSTORE PUSH1 0x8 PUSH1 0x20 SWAP1 DUP2 MSTORE PUSH1 0x40 DUP1 DUP4 KECCAK256 DUP8 DUP5 MSTORE SWAP1 SWAP2 MSTORE SWAP1 KECCAK256 SLOAD DUP6 GT ISZERO PUSH2 0x11E2 JUMPI PUSH1 0x40 MLOAD PUSH3 0x461BCD PUSH1 0xE5 SHL DUP2 MSTORE PUSH1 0x20 PUSH1 0x4 DUP3 ADD MSTORE PUSH1 0x17 PUSH1 0x24 DUP3 ADD MSTORE PUSH32 0x457863656564207769746864726177616C206C696D6974000000000000000000 PUSH1 0x44 DUP3 ADD MSTORE PUSH1 0x64 ADD PUSH2 0xAFA JUMP JUMPDEST PUSH1 0x0 DUP5 DUP2 MSTORE PUSH1 0x9 PUSH1 0x20 MSTORE PUSH1 0x40 DUP2 KECCAK256 DUP1 SLOAD DUP8 SWAP3 SWAP1 PUSH2 0x1200 SWAP1 DUP5 SWAP1 PUSH2 0x2E38 JUMP JUMPDEST SWAP1 SWAP2 SSTORE POP POP PUSH1 0x1 PUSH1 0x1 PUSH1 0xA0 SHL SUB DUP2 AND PUSH1 0x0 SWAP1 DUP2 MSTORE PUSH1 0x8 PUSH1 0x20 SWAP1 DUP2 MSTORE PUSH1 0x40 DUP1 DUP4 KECCAK256 DUP8 DUP5 MSTORE SWAP1 SWAP2 MSTORE DUP2 KECCAK256 DUP1 SLOAD DUP8 SWAP3 SWAP1 PUSH2 0x1238 SWAP1 DUP5 SWAP1 PUSH2 0x2E38 JUMP JUMPDEST SWAP1 SWAP2 SSTORE POP PUSH2 0x1248 SWAP1 POP DUP2 DUP7 PUSH2 0xBF6 JUMP JUMPDEST PUSH1 0x7 SLOAD PUSH1 0x40 DUP1 MLOAD PUSH1 0x20 DUP2 ADD DUP8 SWAP1 MSTORE SWAP1 DUP2 ADD DUP8 SWAP1 MSTORE PUSH23 0x100000000000000000000000000000000000000000000 SWAP1 SWAP2 DIV PUSH1 0xFF AND ISZERO ISZERO PUSH1 0x60 DUP3 ADD MSTORE PUSH1 0x0 SWAP1 PUSH1 0x80 ADD PUSH1 0x40 MLOAD PUSH1 0x20 DUP2 DUP4 SUB SUB DUP2 MSTORE SWAP1 PUSH1 0x40 MSTORE SWAP1 POP PUSH2 0x12A2 DUP5 DUP3 PUSH2 0xCB3 JUMP JUMPDEST PUSH1 0x40 MLOAD PUSH4 0x1C92115F PUSH1 0xE0 SHL DUP2 MSTORE PUSH1 0x1 PUSH1 0x1 PUSH1 0xA0 SHL SUB PUSH32 0x0 AND SWAP1 PUSH4 0x1C92115F SWAP1 PUSH2 0x12F2 SWAP1 DUP8 SWAP1 DUP8 SWAP1 DUP7 SWAP1 PUSH1 0x4 ADD PUSH2 0x2DF5 JUMP JUMPDEST PUSH1 0x0 PUSH1 0x40 MLOAD DUP1 DUP4 SUB DUP2 PUSH1 0x0 DUP8 DUP1 EXTCODESIZE ISZERO DUP1 ISZERO PUSH2 0x130C JUMPI PUSH1 0x0 DUP1 REVERT JUMPDEST POP GAS CALL ISZERO DUP1 ISZERO PUSH2 0x1320 JUMPI RETURNDATASIZE PUSH1 0x0 DUP1 RETURNDATACOPY RETURNDATASIZE PUSH1 0x0 REVERT JUMPDEST POP POP PUSH1 0x40 DUP1 MLOAD PUSH1 0x1 PUSH1 0x1 PUSH1 0xA0 SHL SUB DUP7 AND DUP2 MSTORE PUSH1 0x20 DUP2 ADD DUP10 SWAP1 MSTORE SWAP1 DUP2 ADD DUP10 SWAP1 MSTORE PUSH32 0x953CB67C23167F7DA893A116E40C0194895555A844FC7E5B2A8CD198CB7ACFB3 SWAP3 POP PUSH1 0x60 ADD SWAP1 POP PUSH2 0xFDE JUMP JUMPDEST PUSH1 0x0 DUP2 DUP2 MSTORE PUSH1 0x1 PUSH1 0x20 MSTORE PUSH1 0x40 DUP2 KECCAK256 PUSH2 0x877 SWAP1 PUSH2 0x2240 JUMP JUMPDEST PUSH1 0x0 DUP1 JUMPDEST PUSH1 0xFF DUP2 AND DUP4 GT ISZERO PUSH2 0x13CD JUMPI DUP4 DUP4 DUP3 PUSH1 0xFF AND DUP2 DUP2 LT PUSH2 0x13A7 JUMPI PUSH2 0x13A7 PUSH2 0x2E4F JUMP JUMPDEST SWAP1 POP PUSH1 0x20 MUL ADD CALLDATALOAD DUP3 PUSH2 0x13B9 SWAP2 SWAP1 PUSH2 0x2D3D JUMP JUMPDEST SWAP2 POP DUP1 PUSH2 0x13C5 DUP2 PUSH2 0x2E65 JUMP JUMPDEST SWAP2 POP POP PUSH2 0x1387 JUMP JUMPDEST POP PUSH2 0x13D8 CALLER DUP3 PUSH2 0x1D58 JUMP JUMPDEST PUSH1 0x0 DUP6 DUP6 DUP6 DUP6 PUSH1 0x40 MLOAD PUSH1 0x20 ADD PUSH2 0x13F1 SWAP5 SWAP4 SWAP3 SWAP2 SWAP1 PUSH2 0x2E85 JUMP JUMPDEST PUSH1 0x40 DUP1 MLOAD PUSH1 0x1F NOT DUP2 DUP5 SUB ADD DUP2 MSTORE PUSH1 0x20 PUSH1 0x1F DUP14 ADD DUP2 SWAP1 DIV DUP2 MUL DUP5 ADD DUP2 ADD SWAP1 SWAP3 MSTORE DUP12 DUP4 MSTORE SWAP3 POP PUSH2 0x143C SWAP2 SWAP1 DUP13 SWAP1 DUP13 SWAP1 DUP2 SWAP1 DUP5 ADD DUP4 DUP3 DUP1 DUP3 DUP5 CALLDATACOPY PUSH1 0x0 SWAP3 ADD SWAP2 SWAP1 SWAP2 MSTORE POP DUP6 SWAP3 POP PUSH2 0xCB3 SWAP2 POP POP JUMP JUMPDEST PUSH1 0x40 MLOAD PUSH4 0x1C92115F PUSH1 0xE0 SHL DUP2 MSTORE PUSH1 0x1 PUSH1 0x1 PUSH1 0xA0 SHL SUB PUSH32 0x0 AND SWAP1 PUSH4 0x1C92115F SWAP1 PUSH2 0x1490 SWAP1 DUP14 SWAP1 DUP14 SWAP1 DUP14 SWAP1 DUP14 SWAP1 DUP9 SWAP1 PUSH1 0x4 ADD PUSH2 0x2F20 JUMP JUMPDEST PUSH1 0x0 PUSH1 0x40 MLOAD DUP1 DUP4 SUB DUP2 PUSH1 0x0 DUP8 DUP1 EXTCODESIZE ISZERO DUP1 ISZERO PUSH2 0x14AA JUMPI PUSH1 0x0 DUP1 REVERT JUMPDEST POP GAS CALL ISZERO DUP1 ISZERO PUSH2 0x14BE JUMPI RETURNDATASIZE PUSH1 0x0 DUP1 RETURNDATACOPY RETURNDATASIZE PUSH1 0x0 REVERT JUMPDEST POP POP POP POP POP POP POP POP POP POP POP POP POP POP JUMP JUMPDEST PUSH1 0x0 DUP3 DUP2 MSTORE PUSH1 0x20 DUP2 SWAP1 MSTORE PUSH1 0x40 SWAP1 KECCAK256 PUSH1 0x1 ADD SLOAD PUSH2 0x14E9 DUP2 PUSH2 0x1BCD JUMP JUMPDEST PUSH2 0xA7B DUP4 DUP4 PUSH2 0x1BF9 JUMP JUMPDEST PUSH1 0x0 DUP3 DUP2 MSTORE PUSH1 0x20 DUP2 DUP2 MSTORE PUSH1 0x40 DUP1 DUP4 KECCAK256 PUSH1 0x1 PUSH1 0x1 PUSH1 0xA0 SHL SUB DUP6 AND DUP5 MSTORE SWAP1 SWAP2 MSTORE SWAP1 KECCAK256 SLOAD PUSH1 0xFF AND PUSH2 0xB0D JUMPI PUSH1 0x0 DUP3 DUP2 MSTORE PUSH1 0x20 DUP2 DUP2 MSTORE PUSH1 0x40 DUP1 DUP4 KECCAK256 PUSH1 0x1 PUSH1 0x1 PUSH1 0xA0 SHL SUB DUP6 AND DUP5 MSTORE SWAP1 SWAP2 MSTORE SWAP1 KECCAK256 DUP1 SLOAD PUSH1 0xFF NOT AND PUSH1 0x1 OR SWAP1 SSTORE PUSH2 0x154D CALLER SWAP1 JUMP JUMPDEST PUSH1 0x1 PUSH1 0x1 PUSH1 0xA0 SHL SUB AND DUP2 PUSH1 0x1 PUSH1 0x1 PUSH1 0xA0 SHL SUB AND DUP4 PUSH32 0x2F8788117E7EFF1D82E926EC794901D17C78024A50270940304540A733656F0D PUSH1 0x40 MLOAD PUSH1 0x40 MLOAD DUP1 SWAP2 SUB SWAP1 LOG4 POP POP JUMP JUMPDEST PUSH1 0x0 PUSH2 0x10AA DUP4 PUSH1 0x1 PUSH1 0x1 PUSH1 0xA0 SHL SUB DUP5 AND PUSH2 0x224A JUMP JUMPDEST PUSH1 0x60 PUSH1 0x0 PUSH2 0x15B5 DUP4 PUSH1 0x2 PUSH2 0x2F67 JUMP JUMPDEST PUSH2 0x15C0 SWAP1 PUSH1 0x2 PUSH2 0x2D3D JUMP JUMPDEST PUSH8 0xFFFFFFFFFFFFFFFF DUP2 GT ISZERO PUSH2 0x15D8 JUMPI PUSH2 0x15D8 PUSH2 0x2870 JUMP JUMPDEST PUSH1 0x40 MLOAD SWAP1 DUP1 DUP3 MSTORE DUP1 PUSH1 0x1F ADD PUSH1 0x1F NOT AND PUSH1 0x20 ADD DUP3 ADD PUSH1 0x40 MSTORE DUP1 ISZERO PUSH2 0x1602 JUMPI PUSH1 0x20 DUP3 ADD DUP2 DUP1 CALLDATASIZE DUP4 CALLDATACOPY ADD SWAP1 POP JUMPDEST POP SWAP1 POP PUSH1 0x3 PUSH1 0xFC SHL DUP2 PUSH1 0x0 DUP2 MLOAD DUP2 LT PUSH2 0x161D JUMPI PUSH2 0x161D PUSH2 0x2E4F JUMP JUMPDEST PUSH1 0x20 ADD ADD SWAP1 PUSH1 0x1 PUSH1 0x1 PUSH1 0xF8 SHL SUB NOT AND SWAP1 DUP2 PUSH1 0x0 BYTE SWAP1 MSTORE8 POP PUSH1 0xF PUSH1 0xFB SHL DUP2 PUSH1 0x1 DUP2 MLOAD DUP2 LT PUSH2 0x164C JUMPI PUSH2 0x164C PUSH2 0x2E4F JUMP JUMPDEST PUSH1 0x20 ADD ADD SWAP1 PUSH1 0x1 PUSH1 0x1 PUSH1 0xF8 SHL SUB NOT AND SWAP1 DUP2 PUSH1 0x0 BYTE SWAP1 MSTORE8 POP PUSH1 0x0 PUSH2 0x1670 DUP5 PUSH1 0x2 PUSH2 0x2F67 JUMP JUMPDEST PUSH2 0x167B SWAP1 PUSH1 0x1 PUSH2 0x2D3D JUMP JUMPDEST SWAP1 POP JUMPDEST PUSH1 0x1 DUP2 GT ISZERO PUSH2 0x1700 JUMPI PUSH32 0x3031323334353637383961626364656600000000000000000000000000000000 DUP6 PUSH1 0xF AND PUSH1 0x10 DUP2 LT PUSH2 0x16BC JUMPI PUSH2 0x16BC PUSH2 0x2E4F JUMP JUMPDEST BYTE PUSH1 0xF8 SHL DUP3 DUP3 DUP2 MLOAD DUP2 LT PUSH2 0x16D2 JUMPI PUSH2 0x16D2 PUSH2 0x2E4F JUMP JUMPDEST PUSH1 0x20 ADD ADD SWAP1 PUSH1 0x1 PUSH1 0x1 PUSH1 0xF8 SHL SUB NOT AND SWAP1 DUP2 PUSH1 0x0 BYTE SWAP1 MSTORE8 POP PUSH1 0x4 SWAP5 SWAP1 SWAP5 SHR SWAP4 PUSH2 0x16F9 DUP2 PUSH2 0x2F86 JUMP JUMPDEST SWAP1 POP PUSH2 0x167E JUMP JUMPDEST POP DUP4 ISZERO PUSH2 0x10AA JUMPI PUSH1 0x40 MLOAD PUSH3 0x461BCD PUSH1 0xE5 SHL DUP2 MSTORE PUSH1 0x20 PUSH1 0x4 DUP3 ADD DUP2 SWAP1 MSTORE PUSH1 0x24 DUP3 ADD MSTORE PUSH32 0x537472696E67733A20686578206C656E67746820696E73756666696369656E74 PUSH1 0x44 DUP3 ADD MSTORE PUSH1 0x64 ADD PUSH2 0xAFA JUMP JUMPDEST PUSH1 0x0 PUSH1 0x1 PUSH1 0x1 PUSH1 0xE0 SHL SUB NOT DUP3 AND PUSH32 0x7965DB0B00000000000000000000000000000000000000000000000000000000 EQ DUP1 PUSH2 0x877 JUMPI POP PUSH32 0x1FFC9A700000000000000000000000000000000000000000000000000000000 PUSH1 0x1 PUSH1 0x1 PUSH1 0xE0 SHL SUB NOT DUP4 AND EQ PUSH2 0x877 JUMP JUMPDEST PUSH1 0x1 PUSH1 0x1 PUSH1 0xA0 SHL SUB DUP4 AND PUSH2 0x1831 JUMPI PUSH1 0x40 MLOAD PUSH3 0x461BCD PUSH1 0xE5 SHL DUP2 MSTORE PUSH1 0x20 PUSH1 0x4 DUP3 ADD MSTORE PUSH1 0x24 DUP1 DUP3 ADD MSTORE PUSH32 0x45524332303A20617070726F76652066726F6D20746865207A65726F20616464 PUSH1 0x44 DUP3 ADD MSTORE PUSH32 0x7265737300000000000000000000000000000000000000000000000000000000 PUSH1 0x64 DUP3 ADD MSTORE PUSH1 0x84 ADD PUSH2 0xAFA JUMP JUMPDEST PUSH1 0x1 PUSH1 0x1 PUSH1 0xA0 SHL SUB DUP3 AND PUSH2 0x18AD JUMPI PUSH1 0x40 MLOAD PUSH3 0x461BCD PUSH1 0xE5 SHL DUP2 MSTORE PUSH1 0x20 PUSH1 0x4 DUP3 ADD MSTORE PUSH1 0x22 PUSH1 0x24 DUP3 ADD MSTORE PUSH32 0x45524332303A20617070726F766520746F20746865207A65726F206164647265 PUSH1 0x44 DUP3 ADD MSTORE PUSH32 0x7373000000000000000000000000000000000000000000000000000000000000 PUSH1 0x64 DUP3 ADD MSTORE PUSH1 0x84 ADD PUSH2 0xAFA JUMP JUMPDEST PUSH1 0x1 PUSH1 0x1 PUSH1 0xA0 SHL SUB DUP4 DUP2 AND PUSH1 0x0 DUP2 DUP2 MSTORE PUSH1 0x3 PUSH1 0x20 SWAP1 DUP2 MSTORE PUSH1 0x40 DUP1 DUP4 KECCAK256 SWAP5 DUP8 AND DUP1 DUP5 MSTORE SWAP5 DUP3 MSTORE SWAP2 DUP3 SWAP1 KECCAK256 DUP6 SWAP1 SSTORE SWAP1 MLOAD DUP5 DUP2 MSTORE PUSH32 0x8C5BE1E5EBEC7D5BD14F71427D1E84F3DD0314C0F7B2291E5B200AC8C7C3B925 SWAP2 ADD PUSH1 0x40 MLOAD DUP1 SWAP2 SUB SWAP1 LOG3 POP POP POP JUMP JUMPDEST POP POP POP POP POP POP POP POP POP JUMP JUMPDEST PUSH1 0x1 PUSH1 0x1 PUSH1 0xA0 SHL SUB DUP4 DUP2 AND PUSH1 0x0 SWAP1 DUP2 MSTORE PUSH1 0x3 PUSH1 0x20 SWAP1 DUP2 MSTORE PUSH1 0x40 DUP1 DUP4 KECCAK256 SWAP4 DUP7 AND DUP4 MSTORE SWAP3 SWAP1 MSTORE KECCAK256 SLOAD PUSH1 0x0 NOT DUP2 EQ PUSH2 0x19A5 JUMPI DUP2 DUP2 LT ISZERO PUSH2 0x1998 JUMPI PUSH1 0x40 MLOAD PUSH3 0x461BCD PUSH1 0xE5 SHL DUP2 MSTORE PUSH1 0x20 PUSH1 0x4 DUP3 ADD MSTORE PUSH1 0x1D PUSH1 0x24 DUP3 ADD MSTORE PUSH32 0x45524332303A20696E73756666696369656E7420616C6C6F77616E6365000000 PUSH1 0x44 DUP3 ADD MSTORE PUSH1 0x64 ADD PUSH2 0xAFA JUMP JUMPDEST PUSH2 0x19A5 DUP5 DUP5 DUP5 DUP5 SUB PUSH2 0x17B6 JUMP JUMPDEST POP POP POP POP JUMP JUMPDEST PUSH1 0x1 PUSH1 0x1 PUSH1 0xA0 SHL SUB DUP4 AND PUSH2 0x1A27 JUMPI PUSH1 0x40 MLOAD PUSH3 0x461BCD PUSH1 0xE5 SHL DUP2 MSTORE PUSH1 0x20 PUSH1 0x4 DUP3 ADD MSTORE PUSH1 0x25 PUSH1 0x24 DUP3 ADD MSTORE PUSH32 0x45524332303A207472616E736665722066726F6D20746865207A65726F206164 PUSH1 0x44 DUP3 ADD MSTORE PUSH32 0x6472657373000000000000000000000000000000000000000000000000000000 PUSH1 0x64 DUP3 ADD MSTORE PUSH1 0x84 ADD PUSH2 0xAFA JUMP JUMPDEST PUSH1 0x1 PUSH1 0x1 PUSH1 0xA0 SHL SUB DUP3 AND PUSH2 0x1AA3 JUMPI PUSH1 0x40 MLOAD PUSH3 0x461BCD PUSH1 0xE5 SHL DUP2 MSTORE PUSH1 0x20 PUSH1 0x4 DUP3 ADD MSTORE PUSH1 0x23 PUSH1 0x24 DUP3 ADD MSTORE PUSH32 0x45524332303A207472616E7366657220746F20746865207A65726F2061646472 PUSH1 0x44 DUP3 ADD MSTORE PUSH32 0x6573730000000000000000000000000000000000000000000000000000000000 PUSH1 0x64 DUP3 ADD MSTORE PUSH1 0x84 ADD PUSH2 0xAFA JUMP JUMPDEST PUSH2 0x1AAE DUP4 DUP4 DUP4 PUSH2 0x2299 JUMP JUMPDEST PUSH1 0x1 PUSH1 0x1 PUSH1 0xA0 SHL SUB DUP4 AND PUSH1 0x0 SWAP1 DUP2 MSTORE PUSH1 0x2 PUSH1 0x20 MSTORE PUSH1 0x40 SWAP1 KECCAK256 SLOAD DUP2 DUP2 LT ISZERO PUSH2 0x1B3D JUMPI PUSH1 0x40 MLOAD PUSH3 0x461BCD PUSH1 0xE5 SHL DUP2 MSTORE PUSH1 0x20 PUSH1 0x4 DUP3 ADD MSTORE PUSH1 0x26 PUSH1 0x24 DUP3 ADD MSTORE PUSH32 0x45524332303A207472616E7366657220616D6F756E7420657863656564732062 PUSH1 0x44 DUP3 ADD MSTORE PUSH32 0x616C616E63650000000000000000000000000000000000000000000000000000 PUSH1 0x64 DUP3 ADD MSTORE PUSH1 0x84 ADD PUSH2 0xAFA JUMP JUMPDEST PUSH1 0x1 PUSH1 0x1 PUSH1 0xA0 SHL SUB DUP1 DUP6 AND PUSH1 0x0 SWAP1 DUP2 MSTORE PUSH1 0x2 PUSH1 0x20 MSTORE PUSH1 0x40 DUP1 DUP3 KECCAK256 DUP6 DUP6 SUB SWAP1 SSTORE SWAP2 DUP6 AND DUP2 MSTORE SWAP1 DUP2 KECCAK256 DUP1 SLOAD DUP5 SWAP3 SWAP1 PUSH2 0x1B74 SWAP1 DUP5 SWAP1 PUSH2 0x2D3D JUMP JUMPDEST SWAP3 POP POP DUP2 SWAP1 SSTORE POP DUP3 PUSH1 0x1 PUSH1 0x1 PUSH1 0xA0 SHL SUB AND DUP5 PUSH1 0x1 PUSH1 0x1 PUSH1 0xA0 SHL SUB AND PUSH32 0xDDF252AD1BE2C89B69C2B068FC378DAA952BA7F163C4A11628F55A4DF523B3EF DUP5 PUSH1 0x40 MLOAD PUSH2 0x1BC0 SWAP2 DUP2 MSTORE PUSH1 0x20 ADD SWAP1 JUMP JUMPDEST PUSH1 0x40 MLOAD DUP1 SWAP2 SUB SWAP1 LOG3 PUSH2 0x19A5 JUMP JUMPDEST PUSH2 0xCA6 DUP2 CALLER PUSH2 0x22A4 JUMP JUMPDEST PUSH2 0x1BE1 DUP3 DUP3 PUSH2 0x14F3 JUMP JUMPDEST PUSH1 0x0 DUP3 DUP2 MSTORE PUSH1 0x1 PUSH1 0x20 MSTORE PUSH1 0x40 SWAP1 KECCAK256 PUSH2 0xA7B SWAP1 DUP3 PUSH2 0x1591 JUMP JUMPDEST PUSH2 0x1C03 DUP3 DUP3 PUSH2 0x2322 JUMP JUMPDEST PUSH1 0x0 DUP3 DUP2 MSTORE PUSH1 0x1 PUSH1 0x20 MSTORE PUSH1 0x40 SWAP1 KECCAK256 PUSH2 0xA7B SWAP1 DUP3 PUSH2 0x23A1 JUMP JUMPDEST PUSH2 0x1C23 PUSH2 0x23B6 JUMP JUMPDEST PUSH1 0x7 DUP1 SLOAD PUSH1 0xFF NOT AND SWAP1 SSTORE PUSH32 0x5DB9EE0A495BF2E6FF9C91A7834C1BA4FDD244A5E8AA4E537BD38AEAE4B073AA CALLER JUMPDEST PUSH1 0x40 MLOAD PUSH1 0x1 PUSH1 0x1 PUSH1 0xA0 SHL SUB SWAP1 SWAP2 AND DUP2 MSTORE PUSH1 0x20 ADD PUSH1 0x40 MLOAD DUP1 SWAP2 SUB SWAP1 LOG1 JUMP JUMPDEST PUSH1 0x1 PUSH1 0x1 PUSH1 0xA0 SHL SUB DUP3 AND PUSH2 0x1CC3 JUMPI PUSH1 0x40 MLOAD PUSH3 0x461BCD PUSH1 0xE5 SHL DUP2 MSTORE PUSH1 0x20 PUSH1 0x4 DUP3 ADD MSTORE PUSH1 0x1F PUSH1 0x24 DUP3 ADD MSTORE PUSH32 0x45524332303A206D696E7420746F20746865207A65726F206164647265737300 PUSH1 0x44 DUP3 ADD MSTORE PUSH1 0x64 ADD PUSH2 0xAFA JUMP JUMPDEST PUSH2 0x1CCF PUSH1 0x0 DUP4 DUP4 PUSH2 0x2299 JUMP JUMPDEST DUP1 PUSH1 0x4 PUSH1 0x0 DUP3 DUP3 SLOAD PUSH2 0x1CE1 SWAP2 SWAP1 PUSH2 0x2D3D JUMP JUMPDEST SWAP1 SWAP2 SSTORE POP POP PUSH1 0x1 PUSH1 0x1 PUSH1 0xA0 SHL SUB DUP3 AND PUSH1 0x0 SWAP1 DUP2 MSTORE PUSH1 0x2 PUSH1 0x20 MSTORE PUSH1 0x40 DUP2 KECCAK256 DUP1 SLOAD DUP4 SWAP3 SWAP1 PUSH2 0x1D0E SWAP1 DUP5 SWAP1 PUSH2 0x2D3D JUMP JUMPDEST SWAP1 SWAP2 SSTORE POP POP PUSH1 0x40 MLOAD DUP2 DUP2 MSTORE PUSH1 0x1 PUSH1 0x1 PUSH1 0xA0 SHL SUB DUP4 AND SWAP1 PUSH1 0x0 SWAP1 PUSH32 0xDDF252AD1BE2C89B69C2B068FC378DAA952BA7F163C4A11628F55A4DF523B3EF SWAP1 PUSH1 0x20 ADD PUSH1 0x40 MLOAD DUP1 SWAP2 SUB SWAP1 LOG3 POP POP JUMP JUMPDEST PUSH1 0x1 PUSH1 0x1 PUSH1 0xA0 SHL SUB DUP3 AND PUSH2 0x1DD4 JUMPI PUSH1 0x40 MLOAD PUSH3 0x461BCD PUSH1 0xE5 SHL DUP2 MSTORE PUSH1 0x20 PUSH1 0x4 DUP3 ADD MSTORE PUSH1 0x21 PUSH1 0x24 DUP3 ADD MSTORE PUSH32 0x45524332303A206275726E2066726F6D20746865207A65726F20616464726573 PUSH1 0x44 DUP3 ADD MSTORE PUSH32 0x7300000000000000000000000000000000000000000000000000000000000000 PUSH1 0x64 DUP3 ADD MSTORE PUSH1 0x84 ADD PUSH2 0xAFA JUMP JUMPDEST PUSH2 0x1DE0 DUP3 PUSH1 0x0 DUP4 PUSH2 0x2299 JUMP JUMPDEST PUSH1 0x1 PUSH1 0x1 PUSH1 0xA0 SHL SUB DUP3 AND PUSH1 0x0 SWAP1 DUP2 MSTORE PUSH1 0x2 PUSH1 0x20 MSTORE PUSH1 0x40 SWAP1 KECCAK256 SLOAD DUP2 DUP2 LT ISZERO PUSH2 0x1E6F JUMPI PUSH1 0x40 MLOAD PUSH3 0x461BCD PUSH1 0xE5 SHL DUP2 MSTORE PUSH1 0x20 PUSH1 0x4 DUP3 ADD MSTORE PUSH1 0x22 PUSH1 0x24 DUP3 ADD MSTORE PUSH32 0x45524332303A206275726E20616D6F756E7420657863656564732062616C616E PUSH1 0x44 DUP3 ADD MSTORE PUSH32 0x6365000000000000000000000000000000000000000000000000000000000000 PUSH1 0x64 DUP3 ADD MSTORE PUSH1 0x84 ADD PUSH2 0xAFA JUMP JUMPDEST PUSH1 0x1 PUSH1 0x1 PUSH1 0xA0 SHL SUB DUP4 AND PUSH1 0x0 SWAP1 DUP2 MSTORE PUSH1 0x2 PUSH1 0x20 MSTORE PUSH1 0x40 DUP2 KECCAK256 DUP4 DUP4 SUB SWAP1 SSTORE PUSH1 0x4 DUP1 SLOAD DUP5 SWAP3 SWAP1 PUSH2 0x1E9E SWAP1 DUP5 SWAP1 PUSH2 0x2E38 JUMP JUMPDEST SWAP1 SWAP2 SSTORE POP POP PUSH1 0x40 MLOAD DUP3 DUP2 MSTORE PUSH1 0x0 SWAP1 PUSH1 0x1 PUSH1 0x1 PUSH1 0xA0 SHL SUB DUP6 AND SWAP1 PUSH32 0xDDF252AD1BE2C89B69C2B068FC378DAA952BA7F163C4A11628F55A4DF523B3EF SWAP1 PUSH1 0x20 ADD PUSH1 0x40 MLOAD DUP1 SWAP2 SUB SWAP1 LOG3 POP POP POP JUMP JUMPDEST PUSH1 0x40 MLOAD PUSH1 0x60 DUP3 DUP2 SHL PUSH12 0xFFFFFFFFFFFFFFFFFFFFFFFF NOT AND PUSH1 0x20 DUP4 ADD MSTORE SWAP1 PUSH1 0x0 SWAP1 PUSH1 0x34 ADD PUSH1 0x40 DUP1 MLOAD PUSH1 0x1F NOT DUP2 DUP5 SUB ADD DUP2 MSTORE DUP3 DUP3 ADD SWAP1 SWAP2 MSTORE PUSH1 0x10 DUP3 MSTORE PUSH32 0x3031323334353637383961626364656600000000000000000000000000000000 PUSH1 0x20 DUP4 ADD MSTORE DUP1 MLOAD SWAP1 SWAP3 POP PUSH1 0x0 SWAP1 PUSH2 0x1F5C SWAP1 PUSH1 0x2 PUSH2 0x2F67 JUMP JUMPDEST PUSH2 0x1F67 SWAP1 PUSH1 0x2 PUSH2 0x2D3D JUMP JUMPDEST PUSH8 0xFFFFFFFFFFFFFFFF DUP2 GT ISZERO PUSH2 0x1F7F JUMPI PUSH2 0x1F7F PUSH2 0x2870 JUMP JUMPDEST PUSH1 0x40 MLOAD SWAP1 DUP1 DUP3 MSTORE DUP1 PUSH1 0x1F ADD PUSH1 0x1F NOT AND PUSH1 0x20 ADD DUP3 ADD PUSH1 0x40 MSTORE DUP1 ISZERO PUSH2 0x1FA9 JUMPI PUSH1 0x20 DUP3 ADD DUP2 DUP1 CALLDATASIZE DUP4 CALLDATACOPY ADD SWAP1 POP JUMPDEST POP SWAP1 POP PUSH1 0x3 PUSH1 0xFC SHL DUP2 PUSH1 0x0 DUP2 MLOAD DUP2 LT PUSH2 0x1FC4 JUMPI PUSH2 0x1FC4 PUSH2 0x2E4F JUMP JUMPDEST PUSH1 0x20 ADD ADD SWAP1 PUSH1 0x1 PUSH1 0x1 PUSH1 0xF8 SHL SUB NOT AND SWAP1 DUP2 PUSH1 0x0 BYTE SWAP1 MSTORE8 POP PUSH1 0xF PUSH1 0xFB SHL DUP2 PUSH1 0x1 DUP2 MLOAD DUP2 LT PUSH2 0x1FF3 JUMPI PUSH2 0x1FF3 PUSH2 0x2E4F JUMP JUMPDEST PUSH1 0x20 ADD ADD SWAP1 PUSH1 0x1 PUSH1 0x1 PUSH1 0xF8 SHL SUB NOT AND SWAP1 DUP2 PUSH1 0x0 BYTE SWAP1 MSTORE8 POP PUSH1 0x0 JUMPDEST DUP4 MLOAD DUP2 LT ISZERO PUSH2 0x2178 JUMPI DUP3 PUSH1 0x4 DUP6 DUP4 DUP2 MLOAD DUP2 LT PUSH2 0x202B JUMPI PUSH2 0x202B PUSH2 0x2E4F JUMP JUMPDEST ADD PUSH1 0x20 ADD MLOAD DUP3 MLOAD PUSH32 0xFF00000000000000000000000000000000000000000000000000000000000000 SWAP1 SWAP2 AND SWAP1 SWAP2 SHR PUSH1 0xF8 SHR SWAP1 DUP2 LT PUSH2 0x206B JUMPI PUSH2 0x206B PUSH2 0x2E4F JUMP JUMPDEST ADD PUSH1 0x20 ADD MLOAD PUSH32 0xFF00000000000000000000000000000000000000000000000000000000000000 AND DUP3 PUSH2 0x209E DUP4 PUSH1 0x2 PUSH2 0x2F67 JUMP JUMPDEST PUSH2 0x20A9 SWAP1 PUSH1 0x2 PUSH2 0x2D3D JUMP JUMPDEST DUP2 MLOAD DUP2 LT PUSH2 0x20B9 JUMPI PUSH2 0x20B9 PUSH2 0x2E4F JUMP JUMPDEST PUSH1 0x20 ADD ADD SWAP1 PUSH1 0x1 PUSH1 0x1 PUSH1 0xF8 SHL SUB NOT AND SWAP1 DUP2 PUSH1 0x0 BYTE SWAP1 MSTORE8 POP DUP3 DUP5 DUP3 DUP2 MLOAD DUP2 LT PUSH2 0x20E3 JUMPI PUSH2 0x20E3 PUSH2 0x2E4F JUMP JUMPDEST PUSH1 0x20 SWAP2 ADD ADD MLOAD DUP2 MLOAD PUSH1 0xF8 SWAP2 SWAP1 SWAP2 SHR PUSH1 0xF AND SWAP1 DUP2 LT PUSH2 0x2103 JUMPI PUSH2 0x2103 PUSH2 0x2E4F JUMP JUMPDEST ADD PUSH1 0x20 ADD MLOAD PUSH32 0xFF00000000000000000000000000000000000000000000000000000000000000 AND DUP3 PUSH2 0x2136 DUP4 PUSH1 0x2 PUSH2 0x2F67 JUMP JUMPDEST PUSH2 0x2141 SWAP1 PUSH1 0x3 PUSH2 0x2D3D JUMP JUMPDEST DUP2 MLOAD DUP2 LT PUSH2 0x2151 JUMPI PUSH2 0x2151 PUSH2 0x2E4F JUMP JUMPDEST PUSH1 0x20 ADD ADD SWAP1 PUSH1 0x1 PUSH1 0x1 PUSH1 0xF8 SHL SUB NOT AND SWAP1 DUP2 PUSH1 0x0 BYTE SWAP1 MSTORE8 POP PUSH2 0x2171 DUP2 PUSH2 0x2F9D JUMP JUMPDEST SWAP1 POP PUSH2 0x200D JUMP JUMPDEST POP SWAP5 SWAP4 POP POP POP POP JUMP JUMPDEST PUSH1 0x0 DUP1 PUSH2 0x2190 DUP4 DUP6 ADD DUP6 PUSH2 0x3047 JUMP JUMPDEST SWAP2 POP SWAP2 POP PUSH1 0x0 JUMPDEST DUP2 MLOAD DUP2 PUSH1 0xFF AND LT ISZERO PUSH2 0x190E JUMPI PUSH2 0x21E5 DUP4 DUP3 PUSH1 0xFF AND DUP2 MLOAD DUP2 LT PUSH2 0x21BB JUMPI PUSH2 0x21BB PUSH2 0x2E4F JUMP JUMPDEST PUSH1 0x20 MUL PUSH1 0x20 ADD ADD MLOAD DUP4 DUP4 PUSH1 0xFF AND DUP2 MLOAD DUP2 LT PUSH2 0x21D8 JUMPI PUSH2 0x21D8 PUSH2 0x2E4F JUMP JUMPDEST PUSH1 0x20 MUL PUSH1 0x20 ADD ADD MLOAD PUSH2 0x1C6D JUMP JUMPDEST DUP1 PUSH2 0x21EF DUP2 PUSH2 0x2E65 JUMP JUMPDEST SWAP2 POP POP PUSH2 0x2197 JUMP JUMPDEST PUSH2 0x21FF PUSH2 0x2408 JUMP JUMPDEST PUSH1 0x7 DUP1 SLOAD PUSH1 0xFF NOT AND PUSH1 0x1 OR SWAP1 SSTORE PUSH32 0x62E78CEA01BEE320CD4E420270B5EA74000D11B0C9F74754EBDBFC544B05A258 PUSH2 0x1C50 CALLER SWAP1 JUMP JUMPDEST PUSH1 0x0 PUSH2 0x10AA DUP4 DUP4 PUSH2 0x245B JUMP JUMPDEST PUSH1 0x0 PUSH2 0x877 DUP3 SLOAD SWAP1 JUMP JUMPDEST PUSH1 0x0 DUP2 DUP2 MSTORE PUSH1 0x1 DUP4 ADD PUSH1 0x20 MSTORE PUSH1 0x40 DUP2 KECCAK256 SLOAD PUSH2 0x2291 JUMPI POP DUP2 SLOAD PUSH1 0x1 DUP2 DUP2 ADD DUP5 SSTORE PUSH1 0x0 DUP5 DUP2 MSTORE PUSH1 0x20 DUP1 DUP3 KECCAK256 SWAP1 SWAP4 ADD DUP5 SWAP1 SSTORE DUP5 SLOAD DUP5 DUP3 MSTORE DUP3 DUP7 ADD SWAP1 SWAP4 MSTORE PUSH1 0x40 SWAP1 KECCAK256 SWAP2 SWAP1 SWAP2 SSTORE PUSH2 0x877 JUMP JUMPDEST POP PUSH1 0x0 PUSH2 0x877 JUMP JUMPDEST PUSH2 0xA7B DUP4 DUP4 DUP4 PUSH2 0x2485 JUMP JUMPDEST PUSH1 0x0 DUP3 DUP2 MSTORE PUSH1 0x20 DUP2 DUP2 MSTORE PUSH1 0x40 DUP1 DUP4 KECCAK256 PUSH1 0x1 PUSH1 0x1 PUSH1 0xA0 SHL SUB DUP6 AND DUP5 MSTORE SWAP1 SWAP2 MSTORE SWAP1 KECCAK256 SLOAD PUSH1 0xFF AND PUSH2 0xB0D JUMPI PUSH2 0x22E0 DUP2 PUSH1 0x1 PUSH1 0x1 PUSH1 0xA0 SHL SUB AND PUSH1 0x14 PUSH2 0x15A6 JUMP JUMPDEST PUSH2 0x22EB DUP4 PUSH1 0x20 PUSH2 0x15A6 JUMP JUMPDEST PUSH1 0x40 MLOAD PUSH1 0x20 ADD PUSH2 0x22FC SWAP3 SWAP2 SWAP1 PUSH2 0x30FD JUMP JUMPDEST PUSH1 0x40 DUP1 MLOAD PUSH1 0x1F NOT DUP2 DUP5 SUB ADD DUP2 MSTORE SWAP1 DUP3 SWAP1 MSTORE PUSH3 0x461BCD PUSH1 0xE5 SHL DUP3 MSTORE PUSH2 0xAFA SWAP2 PUSH1 0x4 ADD PUSH2 0x2673 JUMP JUMPDEST PUSH1 0x0 DUP3 DUP2 MSTORE PUSH1 0x20 DUP2 DUP2 MSTORE PUSH1 0x40 DUP1 DUP4 KECCAK256 PUSH1 0x1 PUSH1 0x1 PUSH1 0xA0 SHL SUB DUP6 AND DUP5 MSTORE SWAP1 SWAP2 MSTORE SWAP1 KECCAK256 SLOAD PUSH1 0xFF AND ISZERO PUSH2 0xB0D JUMPI PUSH1 0x0 DUP3 DUP2 MSTORE PUSH1 0x20 DUP2 DUP2 MSTORE PUSH1 0x40 DUP1 DUP4 KECCAK256 PUSH1 0x1 PUSH1 0x1 PUSH1 0xA0 SHL SUB DUP6 AND DUP1 DUP6 MSTORE SWAP3 MSTORE DUP1 DUP4 KECCAK256 DUP1 SLOAD PUSH1 0xFF NOT AND SWAP1 SSTORE MLOAD CALLER SWAP3 DUP6 SWAP2 PUSH32 0xF6391F5C32D9C69D2A47EA670B442974B53935D1EDC7FD64EB21E047A839171B SWAP2 SWAP1 LOG4 POP POP JUMP JUMPDEST PUSH1 0x0 PUSH2 0x10AA DUP4 PUSH1 0x1 PUSH1 0x1 PUSH1 0xA0 SHL SUB DUP5 AND PUSH2 0x24FE JUMP JUMPDEST PUSH1 0x7 SLOAD PUSH1 0xFF AND PUSH2 0xBF4 JUMPI PUSH1 0x40 MLOAD PUSH3 0x461BCD PUSH1 0xE5 SHL DUP2 MSTORE PUSH1 0x20 PUSH1 0x4 DUP3 ADD MSTORE PUSH1 0x14 PUSH1 0x24 DUP3 ADD MSTORE PUSH32 0x5061757361626C653A206E6F7420706175736564000000000000000000000000 PUSH1 0x44 DUP3 ADD MSTORE PUSH1 0x64 ADD PUSH2 0xAFA JUMP JUMPDEST PUSH1 0x7 SLOAD PUSH1 0xFF AND ISZERO PUSH2 0xBF4 JUMPI PUSH1 0x40 MLOAD PUSH3 0x461BCD PUSH1 0xE5 SHL DUP2 MSTORE PUSH1 0x20 PUSH1 0x4 DUP3 ADD MSTORE PUSH1 0x10 PUSH1 0x24 DUP3 ADD MSTORE PUSH32 0x5061757361626C653A2070617573656400000000000000000000000000000000 PUSH1 0x44 DUP3 ADD MSTORE PUSH1 0x64 ADD PUSH2 0xAFA JUMP JUMPDEST PUSH1 0x0 DUP3 PUSH1 0x0 ADD DUP3 DUP2 SLOAD DUP2 LT PUSH2 0x2472 JUMPI PUSH2 0x2472 PUSH2 0x2E4F JUMP JUMPDEST SWAP1 PUSH1 0x0 MSTORE PUSH1 0x20 PUSH1 0x0 KECCAK256 ADD SLOAD SWAP1 POP SWAP3 SWAP2 POP POP JUMP JUMPDEST PUSH1 0x7 SLOAD PUSH1 0xFF AND ISZERO PUSH2 0xA7B JUMPI PUSH1 0x40 MLOAD PUSH3 0x461BCD PUSH1 0xE5 SHL DUP2 MSTORE PUSH1 0x20 PUSH1 0x4 DUP3 ADD MSTORE PUSH1 0x2A PUSH1 0x24 DUP3 ADD MSTORE PUSH32 0x45524332305061757361626C653A20746F6B656E207472616E73666572207768 PUSH1 0x44 DUP3 ADD MSTORE PUSH32 0x696C652070617573656400000000000000000000000000000000000000000000 PUSH1 0x64 DUP3 ADD MSTORE PUSH1 0x84 ADD PUSH2 0xAFA JUMP JUMPDEST PUSH1 0x0 DUP2 DUP2 MSTORE PUSH1 0x1 DUP4 ADD PUSH1 0x20 MSTORE PUSH1 0x40 DUP2 KECCAK256 SLOAD DUP1 ISZERO PUSH2 0x25E7 JUMPI PUSH1 0x0 PUSH2 0x2522 PUSH1 0x1 DUP4 PUSH2 0x2E38 JUMP JUMPDEST DUP6 SLOAD SWAP1 SWAP2 POP PUSH1 0x0 SWAP1 PUSH2 0x2536 SWAP1 PUSH1 0x1 SWAP1 PUSH2 0x2E38 JUMP JUMPDEST SWAP1 POP DUP2 DUP2 EQ PUSH2 0x259B JUMPI PUSH1 0x0 DUP7 PUSH1 0x0 ADD DUP3 DUP2 SLOAD DUP2 LT PUSH2 0x2556 JUMPI PUSH2 0x2556 PUSH2 0x2E4F JUMP JUMPDEST SWAP1 PUSH1 0x0 MSTORE PUSH1 0x20 PUSH1 0x0 KECCAK256 ADD SLOAD SWAP1 POP DUP1 DUP8 PUSH1 0x0 ADD DUP5 DUP2 SLOAD DUP2 LT PUSH2 0x2579 JUMPI PUSH2 0x2579 PUSH2 0x2E4F JUMP JUMPDEST PUSH1 0x0 SWAP2 DUP3 MSTORE PUSH1 0x20 DUP1 DUP4 KECCAK256 SWAP1 SWAP2 ADD SWAP3 SWAP1 SWAP3 SSTORE SWAP2 DUP3 MSTORE PUSH1 0x1 DUP9 ADD SWAP1 MSTORE PUSH1 0x40 SWAP1 KECCAK256 DUP4 SWAP1 SSTORE JUMPDEST DUP6 SLOAD DUP7 SWAP1 DUP1 PUSH2 0x25AC JUMPI PUSH2 0x25AC PUSH2 0x317E JUMP JUMPDEST PUSH1 0x1 SWAP1 SUB DUP2 DUP2 SWAP1 PUSH1 0x0 MSTORE PUSH1 0x20 PUSH1 0x0 KECCAK256 ADD PUSH1 0x0 SWAP1 SSTORE SWAP1 SSTORE DUP6 PUSH1 0x1 ADD PUSH1 0x0 DUP7 DUP2 MSTORE PUSH1 0x20 ADD SWAP1 DUP2 MSTORE PUSH1 0x20 ADD PUSH1 0x0 KECCAK256 PUSH1 0x0 SWAP1 SSTORE PUSH1 0x1 SWAP4 POP POP POP POP PUSH2 0x877 JUMP JUMPDEST PUSH1 0x0 SWAP2 POP POP PUSH2 0x877 JUMP JUMPDEST PUSH1 0x0 PUSH1 0x20 DUP3 DUP5 SUB SLT ISZERO PUSH2 0x2603 JUMPI PUSH1 0x0 DUP1 REVERT JUMPDEST DUP2 CALLDATALOAD PUSH1 0x1 PUSH1 0x1 PUSH1 0xE0 SHL SUB NOT DUP2 AND DUP2 EQ PUSH2 0x10AA JUMPI PUSH1 0x0 DUP1 REVERT JUMPDEST PUSH1 0x0 JUMPDEST DUP4 DUP2 LT ISZERO PUSH2 0x2636 JUMPI DUP2 DUP2 ADD MLOAD DUP4 DUP3 ADD MSTORE PUSH1 0x20 ADD PUSH2 0x261E JUMP JUMPDEST DUP4 DUP2 GT ISZERO PUSH2 0x19A5 JUMPI POP POP PUSH1 0x0 SWAP2 ADD MSTORE JUMP JUMPDEST PUSH1 0x0 DUP2 MLOAD DUP1 DUP5 MSTORE PUSH2 0x265F DUP2 PUSH1 0x20 DUP7 ADD PUSH1 0x20 DUP7 ADD PUSH2 0x261B JUMP JUMPDEST PUSH1 0x1F ADD PUSH1 0x1F NOT AND SWAP3 SWAP1 SWAP3 ADD PUSH1 0x20 ADD SWAP3 SWAP2 POP POP JUMP JUMPDEST PUSH1 0x20 DUP2 MSTORE PUSH1 0x0 PUSH2 0x10AA PUSH1 0x20 DUP4 ADD DUP5 PUSH2 0x2647 JUMP JUMPDEST DUP1 CALLDATALOAD PUSH1 0x1 PUSH1 0x1 PUSH1 0xA0 SHL SUB DUP2 AND DUP2 EQ PUSH2 0x269D JUMPI PUSH1 0x0 DUP1 REVERT JUMPDEST SWAP2 SWAP1 POP JUMP JUMPDEST PUSH1 0x0 DUP1 PUSH1 0x40 DUP4 DUP6 SUB SLT ISZERO PUSH2 0x26B5 JUMPI PUSH1 0x0 DUP1 REVERT JUMPDEST PUSH2 0x26BE DUP4 PUSH2 0x2686 JUMP JUMPDEST SWAP5 PUSH1 0x20 SWAP4 SWAP1 SWAP4 ADD CALLDATALOAD SWAP4 POP POP POP JUMP JUMPDEST PUSH1 0x0 PUSH1 0x20 DUP3 DUP5 SUB SLT ISZERO PUSH2 0x26DE JUMPI PUSH1 0x0 DUP1 REVERT JUMPDEST POP CALLDATALOAD SWAP2 SWAP1 POP JUMP JUMPDEST PUSH1 0x0 DUP1 DUP4 PUSH1 0x1F DUP5 ADD SLT PUSH2 0x26F7 JUMPI PUSH1 0x0 DUP1 REVERT JUMPDEST POP DUP2 CALLDATALOAD PUSH8 0xFFFFFFFFFFFFFFFF DUP2 GT ISZERO PUSH2 0x270F JUMPI PUSH1 0x0 DUP1 REVERT JUMPDEST PUSH1 0x20 DUP4 ADD SWAP2 POP DUP4 PUSH1 0x20 DUP3 DUP6 ADD ADD GT ISZERO PUSH2 0x2727 JUMPI PUSH1 0x0 DUP1 REVERT JUMPDEST SWAP3 POP SWAP3 SWAP1 POP JUMP JUMPDEST PUSH1 0x0 DUP1 PUSH1 0x0 DUP1 PUSH1 0x0 DUP1 PUSH1 0x0 DUP1 PUSH1 0x0 DUP1 PUSH1 0xC0 DUP12 DUP14 SUB SLT ISZERO PUSH2 0x274D JUMPI PUSH1 0x0 DUP1 REVERT JUMPDEST DUP11 CALLDATALOAD SWAP10 POP PUSH1 0x20 DUP12 ADD CALLDATALOAD PUSH8 0xFFFFFFFFFFFFFFFF DUP1 DUP3 GT ISZERO PUSH2 0x276C JUMPI PUSH1 0x0 DUP1 REVERT JUMPDEST PUSH2 0x2778 DUP15 DUP4 DUP16 ADD PUSH2 0x26E5 JUMP JUMPDEST SWAP1 SWAP12 POP SWAP10 POP PUSH1 0x40 DUP14 ADD CALLDATALOAD SWAP2 POP DUP1 DUP3 GT ISZERO PUSH2 0x2791 JUMPI PUSH1 0x0 DUP1 REVERT JUMPDEST PUSH2 0x279D DUP15 DUP4 DUP16 ADD PUSH2 0x26E5 JUMP JUMPDEST SWAP1 SWAP10 POP SWAP8 POP PUSH1 0x60 DUP14 ADD CALLDATALOAD SWAP2 POP DUP1 DUP3 GT ISZERO PUSH2 0x27B6 JUMPI PUSH1 0x0 DUP1 REVERT JUMPDEST PUSH2 0x27C2 DUP15 DUP4 DUP16 ADD PUSH2 0x26E5 JUMP JUMPDEST SWAP1 SWAP8 POP SWAP6 POP PUSH1 0x80 DUP14 ADD CALLDATALOAD SWAP2 POP DUP1 DUP3 GT ISZERO PUSH2 0x27DB JUMPI PUSH1 0x0 DUP1 REVERT JUMPDEST POP PUSH2 0x27E8 DUP14 DUP3 DUP15 ADD PUSH2 0x26E5 JUMP JUMPDEST SWAP2 POP DUP1 SWAP5 POP POP DUP1 SWAP3 POP POP PUSH1 0xA0 DUP12 ADD CALLDATALOAD SWAP1 POP SWAP3 SWAP6 SWAP9 SWAP12 SWAP2 SWAP5 SWAP8 SWAP11 POP SWAP3 SWAP6 SWAP9 POP JUMP JUMPDEST PUSH1 0x0 DUP1 PUSH1 0x0 PUSH1 0x60 DUP5 DUP7 SUB SLT ISZERO PUSH2 0x281D JUMPI PUSH1 0x0 DUP1 REVERT JUMPDEST PUSH2 0x2826 DUP5 PUSH2 0x2686 JUMP JUMPDEST SWAP3 POP PUSH2 0x2834 PUSH1 0x20 DUP6 ADD PUSH2 0x2686 JUMP JUMPDEST SWAP2 POP PUSH1 0x40 DUP5 ADD CALLDATALOAD SWAP1 POP SWAP3 POP SWAP3 POP SWAP3 JUMP JUMPDEST PUSH1 0x0 DUP1 PUSH1 0x40 DUP4 DUP6 SUB SLT ISZERO PUSH2 0x2857 JUMPI PUSH1 0x0 DUP1 REVERT JUMPDEST DUP3 CALLDATALOAD SWAP2 POP PUSH2 0x2867 PUSH1 0x20 DUP5 ADD PUSH2 0x2686 JUMP JUMPDEST SWAP1 POP SWAP3 POP SWAP3 SWAP1 POP JUMP JUMPDEST PUSH4 0x4E487B71 PUSH1 0xE0 SHL PUSH1 0x0 MSTORE PUSH1 0x41 PUSH1 0x4 MSTORE PUSH1 0x24 PUSH1 0x0 REVERT JUMPDEST PUSH1 0x40 MLOAD PUSH1 0x1F DUP3 ADD PUSH1 0x1F NOT AND DUP2 ADD PUSH8 0xFFFFFFFFFFFFFFFF DUP2 GT DUP3 DUP3 LT OR ISZERO PUSH2 0x28AF JUMPI PUSH2 0x28AF PUSH2 0x2870 JUMP JUMPDEST PUSH1 0x40 MSTORE SWAP2 SWAP1 POP JUMP JUMPDEST PUSH1 0x0 PUSH8 0xFFFFFFFFFFFFFFFF DUP4 GT ISZERO PUSH2 0x28D1 JUMPI PUSH2 0x28D1 PUSH2 0x2870 JUMP JUMPDEST PUSH2 0x28E4 PUSH1 0x1F DUP5 ADD PUSH1 0x1F NOT AND PUSH1 0x20 ADD PUSH2 0x2886 JUMP JUMPDEST SWAP1 POP DUP3 DUP2 MSTORE DUP4 DUP4 DUP4 ADD GT ISZERO PUSH2 0x28F8 JUMPI PUSH1 0x0 DUP1 REVERT JUMPDEST DUP3 DUP3 PUSH1 0x20 DUP4 ADD CALLDATACOPY PUSH1 0x0 PUSH1 0x20 DUP5 DUP4 ADD ADD MSTORE SWAP4 SWAP3 POP POP POP JUMP JUMPDEST PUSH1 0x0 DUP3 PUSH1 0x1F DUP4 ADD SLT PUSH2 0x2920 JUMPI PUSH1 0x0 DUP1 REVERT JUMPDEST PUSH2 0x10AA DUP4 DUP4 CALLDATALOAD PUSH1 0x20 DUP6 ADD PUSH2 0x28B7 JUMP JUMPDEST PUSH1 0x0 DUP1 PUSH1 0x40 DUP4 DUP6 SUB SLT ISZERO PUSH2 0x2942 JUMPI PUSH1 0x0 DUP1 REVERT JUMPDEST DUP3 CALLDATALOAD PUSH8 0xFFFFFFFFFFFFFFFF DUP1 DUP3 GT ISZERO PUSH2 0x295A JUMPI PUSH1 0x0 DUP1 REVERT JUMPDEST PUSH2 0x2966 DUP7 DUP4 DUP8 ADD PUSH2 0x290F JUMP JUMPDEST SWAP4 POP PUSH1 0x20 DUP6 ADD CALLDATALOAD SWAP2 POP DUP1 DUP3 GT ISZERO PUSH2 0x297C JUMPI PUSH1 0x0 DUP1 REVERT JUMPDEST POP DUP4 ADD PUSH1 0x1F DUP2 ADD DUP6 SGT PUSH2 0x298E JUMPI PUSH1 0x0 DUP1 REVERT JUMPDEST PUSH2 0x299D DUP6 DUP3 CALLDATALOAD PUSH1 0x20 DUP5 ADD PUSH2 0x28B7 JUMP JUMPDEST SWAP2 POP POP SWAP3 POP SWAP3 SWAP1 POP JUMP JUMPDEST PUSH1 0x0 DUP1 PUSH1 0x0 DUP1 PUSH1 0x0 DUP1 PUSH1 0x0 PUSH1 0x80 DUP9 DUP11 SUB SLT ISZERO PUSH2 0x29C2 JUMPI PUSH1 0x0 DUP1 REVERT JUMPDEST DUP8 CALLDATALOAD SWAP7 POP PUSH1 0x20 DUP9 ADD CALLDATALOAD PUSH8 0xFFFFFFFFFFFFFFFF DUP1 DUP3 GT ISZERO PUSH2 0x29E1 JUMPI PUSH1 0x0 DUP1 REVERT JUMPDEST PUSH2 0x29ED DUP12 DUP4 DUP13 ADD PUSH2 0x26E5 JUMP JUMPDEST SWAP1 SWAP9 POP SWAP7 POP PUSH1 0x40 DUP11 ADD CALLDATALOAD SWAP2 POP DUP1 DUP3 GT ISZERO PUSH2 0x2A06 JUMPI PUSH1 0x0 DUP1 REVERT JUMPDEST PUSH2 0x2A12 DUP12 DUP4 DUP13 ADD PUSH2 0x26E5 JUMP JUMPDEST SWAP1 SWAP7 POP SWAP5 POP PUSH1 0x60 DUP11 ADD CALLDATALOAD SWAP2 POP DUP1 DUP3 GT ISZERO PUSH2 0x2A2B JUMPI PUSH1 0x0 DUP1 REVERT JUMPDEST POP PUSH2 0x2A38 DUP11 DUP3 DUP12 ADD PUSH2 0x26E5 JUMP JUMPDEST SWAP9 SWAP12 SWAP8 SWAP11 POP SWAP6 SWAP9 POP SWAP4 SWAP7 SWAP3 SWAP6 SWAP3 SWAP4 POP POP POP JUMP JUMPDEST PUSH1 0x0 PUSH1 0x20 DUP3 DUP5 SUB SLT ISZERO PUSH2 0x2A5D JUMPI PUSH1 0x0 DUP1 REVERT JUMPDEST PUSH2 0x10AA DUP3 PUSH2 0x2686 JUMP JUMPDEST PUSH1 0x0 DUP1 PUSH1 0x0 DUP1 PUSH1 0x80 DUP6 DUP8 SUB SLT ISZERO PUSH2 0x2A7C JUMPI PUSH1 0x0 DUP1 REVERT JUMPDEST DUP5 CALLDATALOAD SWAP4 POP PUSH1 0x20 DUP6 ADD CALLDATALOAD SWAP3 POP PUSH1 0x40 DUP6 ADD CALLDATALOAD PUSH8 0xFFFFFFFFFFFFFFFF DUP1 DUP3 GT ISZERO PUSH2 0x2AA2 JUMPI PUSH1 0x0 DUP1 REVERT JUMPDEST PUSH2 0x2AAE DUP9 DUP4 DUP10 ADD PUSH2 0x290F JUMP JUMPDEST SWAP4 POP PUSH1 0x60 DUP8 ADD CALLDATALOAD SWAP2 POP DUP1 DUP3 GT ISZERO PUSH2 0x2AC4 JUMPI PUSH1 0x0 DUP1 REVERT JUMPDEST POP PUSH2 0x2AD1 DUP8 DUP3 DUP9 ADD PUSH2 0x290F JUMP JUMPDEST SWAP2 POP POP SWAP3 SWAP6 SWAP2 SWAP5 POP SWAP3 POP JUMP JUMPDEST PUSH1 0x0 DUP1 PUSH1 0x40 DUP4 DUP6 SUB SLT ISZERO PUSH2 0x2AF0 JUMPI PUSH1 0x0 DUP1 REVERT JUMPDEST POP POP DUP1 CALLDATALOAD SWAP3 PUSH1 0x20 SWAP1 SWAP2 ADD CALLDATALOAD SWAP2 POP JUMP JUMPDEST PUSH1 0x0 DUP1 DUP4 PUSH1 0x1F DUP5 ADD SLT PUSH2 0x2B11 JUMPI PUSH1 0x0 DUP1 REVERT JUMPDEST POP DUP2 CALLDATALOAD PUSH8 0xFFFFFFFFFFFFFFFF DUP2 GT ISZERO PUSH2 0x2B29 JUMPI PUSH1 0x0 DUP1 REVERT JUMPDEST PUSH1 0x20 DUP4 ADD SWAP2 POP DUP4 PUSH1 0x20 DUP3 PUSH1 0x5 SHL DUP6 ADD ADD GT ISZERO PUSH2 0x2727 JUMPI PUSH1 0x0 DUP1 REVERT JUMPDEST PUSH1 0x0 DUP1 PUSH1 0x0 DUP1 PUSH1 0x0 DUP1 PUSH1 0x0 DUP1 PUSH1 0x80 DUP10 DUP12 SUB SLT ISZERO PUSH2 0x2B60 JUMPI PUSH1 0x0 DUP1 REVERT JUMPDEST DUP9 CALLDATALOAD PUSH8 0xFFFFFFFFFFFFFFFF DUP1 DUP3 GT ISZERO PUSH2 0x2B78 JUMPI PUSH1 0x0 DUP1 REVERT JUMPDEST PUSH2 0x2B84 DUP13 DUP4 DUP14 ADD PUSH2 0x26E5 JUMP JUMPDEST SWAP1 SWAP11 POP SWAP9 POP PUSH1 0x20 DUP12 ADD CALLDATALOAD SWAP2 POP DUP1 DUP3 GT ISZERO PUSH2 0x2B9D JUMPI PUSH1 0x0 DUP1 REVERT JUMPDEST PUSH2 0x2BA9 DUP13 DUP4 DUP14 ADD PUSH2 0x26E5 JUMP JUMPDEST SWAP1 SWAP9 POP SWAP7 POP PUSH1 0x40 DUP12 ADD CALLDATALOAD SWAP2 POP DUP1 DUP3 GT ISZERO PUSH2 0x2BC2 JUMPI PUSH1 0x0 DUP1 REVERT JUMPDEST PUSH2 0x2BCE DUP13 DUP4 DUP14 ADD PUSH2 0x2AFF JUMP JUMPDEST SWAP1 SWAP7 POP SWAP5 POP PUSH1 0x60 DUP12 ADD CALLDATALOAD SWAP2 POP DUP1 DUP3 GT ISZERO PUSH2 0x2BE7 JUMPI PUSH1 0x0 DUP1 REVERT JUMPDEST POP PUSH2 0x2BF4 DUP12 DUP3 DUP13 ADD PUSH2 0x2AFF JUMP JUMPDEST SWAP10 SWAP13 SWAP9 SWAP12 POP SWAP7 SWAP10 POP SWAP5 SWAP8 SWAP4 SWAP7 SWAP3 SWAP6 SWAP5 POP POP POP JUMP JUMPDEST PUSH1 0x0 DUP1 PUSH1 0x40 DUP4 DUP6 SUB SLT ISZERO PUSH2 0x2C1B JUMPI PUSH1 0x0 DUP1 REVERT JUMPDEST PUSH2 0x2C24 DUP4 PUSH2 0x2686 JUMP JUMPDEST SWAP2 POP PUSH2 0x2867 PUSH1 0x20 DUP5 ADD PUSH2 0x2686 JUMP JUMPDEST PUSH1 0x1 DUP2 DUP2 SHR SWAP1 DUP3 AND DUP1 PUSH2 0x2C46 JUMPI PUSH1 0x7F DUP3 AND SWAP2 POP JUMPDEST PUSH1 0x20 DUP3 LT DUP2 EQ ISZERO PUSH2 0x2C67 JUMPI PUSH4 0x4E487B71 PUSH1 0xE0 SHL PUSH1 0x0 MSTORE PUSH1 0x22 PUSH1 0x4 MSTORE PUSH1 0x24 PUSH1 0x0 REVERT JUMPDEST POP SWAP2 SWAP1 POP JUMP JUMPDEST DUP2 DUP4 DUP3 CALLDATACOPY PUSH1 0x0 SWAP2 ADD SWAP1 DUP2 MSTORE SWAP2 SWAP1 POP JUMP JUMPDEST DUP2 DUP4 MSTORE DUP2 DUP2 PUSH1 0x20 DUP6 ADD CALLDATACOPY POP PUSH1 0x0 DUP3 DUP3 ADD PUSH1 0x20 SWAP1 DUP2 ADD SWAP2 SWAP1 SWAP2 MSTORE PUSH1 0x1F SWAP1 SWAP2 ADD PUSH1 0x1F NOT AND SWAP1 SWAP2 ADD ADD SWAP1 JUMP JUMPDEST DUP10 DUP2 MSTORE PUSH1 0xC0 PUSH1 0x20 DUP3 ADD MSTORE PUSH1 0x0 PUSH2 0x2CC0 PUSH1 0xC0 DUP4 ADD DUP11 DUP13 PUSH2 0x2C7D JUMP JUMPDEST DUP3 DUP2 SUB PUSH1 0x40 DUP5 ADD MSTORE PUSH2 0x2CD3 DUP2 DUP10 DUP12 PUSH2 0x2C7D JUMP JUMPDEST SWAP1 POP DUP7 PUSH1 0x60 DUP5 ADD MSTORE DUP3 DUP2 SUB PUSH1 0x80 DUP5 ADD MSTORE PUSH2 0x2CEE DUP2 DUP7 DUP9 PUSH2 0x2C7D JUMP JUMPDEST SWAP2 POP POP DUP3 PUSH1 0xA0 DUP4 ADD MSTORE SWAP11 SWAP10 POP POP POP POP POP POP POP POP POP POP JUMP JUMPDEST PUSH1 0x0 PUSH1 0x20 DUP3 DUP5 SUB SLT ISZERO PUSH2 0x2D17 JUMPI PUSH1 0x0 DUP1 REVERT JUMPDEST DUP2 MLOAD DUP1 ISZERO ISZERO DUP2 EQ PUSH2 0x10AA JUMPI PUSH1 0x0 DUP1 REVERT JUMPDEST PUSH4 0x4E487B71 PUSH1 0xE0 SHL PUSH1 0x0 MSTORE PUSH1 0x11 PUSH1 0x4 MSTORE PUSH1 0x24 PUSH1 0x0 REVERT JUMPDEST PUSH1 0x0 DUP3 NOT DUP3 GT ISZERO PUSH2 0x2D50 JUMPI PUSH2 0x2D50 PUSH2 0x2D27 JUMP JUMPDEST POP ADD SWAP1 JUMP JUMPDEST PUSH1 0x0 PUSH1 0x1 PUSH1 0x1 PUSH1 0xA0 SHL SUB DUP1 DUP9 AND DUP4 MSTORE PUSH1 0xA0 PUSH1 0x20 DUP5 ADD MSTORE PUSH2 0x2D78 PUSH1 0xA0 DUP5 ADD DUP9 PUSH2 0x2647 JUMP JUMPDEST DUP4 DUP2 SUB PUSH1 0x40 DUP6 ADD MSTORE PUSH2 0x2D8A DUP2 DUP9 PUSH2 0x2647 JUMP JUMPDEST SWAP1 POP DUP4 DUP2 SUB PUSH1 0x60 DUP6 ADD MSTORE PUSH2 0x2D9E DUP2 DUP8 PUSH2 0x2647 JUMP JUMPDEST SWAP3 POP POP DUP1 DUP5 AND PUSH1 0x80 DUP5 ADD MSTORE POP SWAP7 SWAP6 POP POP POP POP POP POP JUMP JUMPDEST DUP7 DUP2 MSTORE PUSH1 0x80 PUSH1 0x20 DUP3 ADD MSTORE PUSH1 0x0 PUSH2 0x2DCE PUSH1 0x80 DUP4 ADD DUP8 DUP10 PUSH2 0x2C7D JUMP JUMPDEST DUP3 DUP2 SUB PUSH1 0x40 DUP5 ADD MSTORE PUSH2 0x2DE1 DUP2 DUP7 DUP9 PUSH2 0x2C7D JUMP JUMPDEST SWAP2 POP POP DUP3 PUSH1 0x60 DUP4 ADD MSTORE SWAP8 SWAP7 POP POP POP POP POP POP POP JUMP JUMPDEST PUSH1 0x60 DUP2 MSTORE PUSH1 0x0 PUSH2 0x2E08 PUSH1 0x60 DUP4 ADD DUP7 PUSH2 0x2647 JUMP JUMPDEST DUP3 DUP2 SUB PUSH1 0x20 DUP5 ADD MSTORE PUSH2 0x2E1A DUP2 DUP7 PUSH2 0x2647 JUMP JUMPDEST SWAP1 POP DUP3 DUP2 SUB PUSH1 0x40 DUP5 ADD MSTORE PUSH2 0x2E2E DUP2 DUP6 PUSH2 0x2647 JUMP JUMPDEST SWAP7 SWAP6 POP POP POP POP POP POP JUMP JUMPDEST PUSH1 0x0 DUP3 DUP3 LT ISZERO PUSH2 0x2E4A JUMPI PUSH2 0x2E4A PUSH2 0x2D27 JUMP JUMPDEST POP SUB SWAP1 JUMP JUMPDEST PUSH4 0x4E487B71 PUSH1 0xE0 SHL PUSH1 0x0 MSTORE PUSH1 0x32 PUSH1 0x4 MSTORE PUSH1 0x24 PUSH1 0x0 REVERT JUMPDEST PUSH1 0x0 PUSH1 0xFF DUP3 AND PUSH1 0xFF DUP2 EQ ISZERO PUSH2 0x2E7C JUMPI PUSH2 0x2E7C PUSH2 0x2D27 JUMP JUMPDEST PUSH1 0x1 ADD SWAP3 SWAP2 POP POP JUMP JUMPDEST PUSH1 0x40 DUP1 DUP3 MSTORE DUP2 ADD DUP5 SWAP1 MSTORE PUSH1 0x0 DUP6 PUSH1 0x60 DUP4 ADD DUP3 JUMPDEST DUP8 DUP2 LT ISZERO PUSH2 0x2EC6 JUMPI PUSH1 0x1 PUSH1 0x1 PUSH1 0xA0 SHL SUB PUSH2 0x2EB1 DUP5 PUSH2 0x2686 JUMP JUMPDEST AND DUP3 MSTORE PUSH1 0x20 SWAP3 DUP4 ADD SWAP3 SWAP1 SWAP2 ADD SWAP1 PUSH1 0x1 ADD PUSH2 0x2E98 JUMP JUMPDEST POP DUP4 DUP2 SUB PUSH1 0x20 DUP6 ADD MSTORE DUP5 DUP2 MSTORE PUSH32 0x7FFFFFFFFFFFFFFFFFFFFFFFFFFFFFFFFFFFFFFFFFFFFFFFFFFFFFFFFFFFFFF DUP6 GT ISZERO PUSH2 0x2EFF JUMPI PUSH1 0x0 DUP1 REVERT JUMPDEST DUP5 PUSH1 0x5 SHL SWAP2 POP DUP2 DUP7 PUSH1 0x20 DUP4 ADD CALLDATACOPY PUSH1 0x0 SWAP2 ADD PUSH1 0x20 ADD SWAP1 DUP2 MSTORE SWAP7 SWAP6 POP POP POP POP POP POP JUMP JUMPDEST PUSH1 0x60 DUP2 MSTORE PUSH1 0x0 PUSH2 0x2F34 PUSH1 0x60 DUP4 ADD DUP8 DUP10 PUSH2 0x2C7D JUMP JUMPDEST DUP3 DUP2 SUB PUSH1 0x20 DUP5 ADD MSTORE PUSH2 0x2F47 DUP2 DUP7 DUP9 PUSH2 0x2C7D JUMP JUMPDEST SWAP1 POP DUP3 DUP2 SUB PUSH1 0x40 DUP5 ADD MSTORE PUSH2 0x2F5B DUP2 DUP6 PUSH2 0x2647 JUMP JUMPDEST SWAP9 SWAP8 POP POP POP POP POP POP POP POP JUMP JUMPDEST PUSH1 0x0 DUP2 PUSH1 0x0 NOT DIV DUP4 GT DUP3 ISZERO ISZERO AND ISZERO PUSH2 0x2F81 JUMPI PUSH2 0x2F81 PUSH2 0x2D27 JUMP JUMPDEST POP MUL SWAP1 JUMP JUMPDEST PUSH1 0x0 DUP2 PUSH2 0x2F95 JUMPI PUSH2 0x2F95 PUSH2 0x2D27 JUMP JUMPDEST POP PUSH1 0x0 NOT ADD SWAP1 JUMP JUMPDEST PUSH1 0x0 PUSH1 0x0 NOT DUP3 EQ ISZERO PUSH2 0x2FB1 JUMPI PUSH2 0x2FB1 PUSH2 0x2D27 JUMP JUMPDEST POP PUSH1 0x1 ADD SWAP1 JUMP JUMPDEST PUSH1 0x0 PUSH8 0xFFFFFFFFFFFFFFFF DUP3 GT ISZERO PUSH2 0x2FD2 JUMPI PUSH2 0x2FD2 PUSH2 0x2870 JUMP JUMPDEST POP PUSH1 0x5 SHL PUSH1 0x20 ADD SWAP1 JUMP JUMPDEST PUSH1 0x0 DUP3 PUSH1 0x1F DUP4 ADD SLT PUSH2 0x2FED JUMPI PUSH1 0x0 DUP1 REVERT JUMPDEST DUP2 CALLDATALOAD PUSH1 0x20 PUSH2 0x3002 PUSH2 0x2FFD DUP4 PUSH2 0x2FB8 JUMP JUMPDEST PUSH2 0x2886 JUMP JUMPDEST DUP3 DUP2 MSTORE PUSH1 0x5 SWAP3 SWAP1 SWAP3 SHL DUP5 ADD DUP2 ADD SWAP2 DUP2 DUP2 ADD SWAP1 DUP7 DUP5 GT ISZERO PUSH2 0x3021 JUMPI PUSH1 0x0 DUP1 REVERT JUMPDEST DUP3 DUP7 ADD JUMPDEST DUP5 DUP2 LT ISZERO PUSH2 0x303C JUMPI DUP1 CALLDATALOAD DUP4 MSTORE SWAP2 DUP4 ADD SWAP2 DUP4 ADD PUSH2 0x3025 JUMP JUMPDEST POP SWAP7 SWAP6 POP POP POP POP POP POP JUMP JUMPDEST PUSH1 0x0 DUP1 PUSH1 0x40 DUP4 DUP6 SUB SLT ISZERO PUSH2 0x305A JUMPI PUSH1 0x0 DUP1 REVERT JUMPDEST DUP3 CALLDATALOAD PUSH8 0xFFFFFFFFFFFFFFFF DUP1 DUP3 GT ISZERO PUSH2 0x3072 JUMPI PUSH1 0x0 DUP1 REVERT JUMPDEST DUP2 DUP6 ADD SWAP2 POP DUP6 PUSH1 0x1F DUP4 ADD SLT PUSH2 0x3086 JUMPI PUSH1 0x0 DUP1 REVERT JUMPDEST DUP2 CALLDATALOAD PUSH1 0x20 PUSH2 0x3096 PUSH2 0x2FFD DUP4 PUSH2 0x2FB8 JUMP JUMPDEST DUP3 DUP2 MSTORE PUSH1 0x5 SWAP3 SWAP1 SWAP3 SHL DUP5 ADD DUP2 ADD SWAP2 DUP2 DUP2 ADD SWAP1 DUP10 DUP5 GT ISZERO PUSH2 0x30B5 JUMPI PUSH1 0x0 DUP1 REVERT JUMPDEST SWAP5 DUP3 ADD SWAP5 JUMPDEST DUP4 DUP7 LT ISZERO PUSH2 0x30DA JUMPI PUSH2 0x30CB DUP7 PUSH2 0x2686 JUMP JUMPDEST DUP3 MSTORE SWAP5 DUP3 ADD SWAP5 SWAP1 DUP3 ADD SWAP1 PUSH2 0x30BA JUMP JUMPDEST SWAP7 POP POP DUP7 ADD CALLDATALOAD SWAP3 POP POP DUP1 DUP3 GT ISZERO PUSH2 0x30F0 JUMPI PUSH1 0x0 DUP1 REVERT JUMPDEST POP PUSH2 0x299D DUP6 DUP3 DUP7 ADD PUSH2 0x2FDC JUMP JUMPDEST PUSH32 0x416363657373436F6E74726F6C3A206163636F756E7420000000000000000000 DUP2 MSTORE PUSH1 0x0 DUP4 MLOAD PUSH2 0x3135 DUP2 PUSH1 0x17 DUP6 ADD PUSH1 0x20 DUP9 ADD PUSH2 0x261B JUMP JUMPDEST PUSH32 0x206973206D697373696E6720726F6C6520000000000000000000000000000000 PUSH1 0x17 SWAP2 DUP5 ADD SWAP2 DUP3 ADD MSTORE DUP4 MLOAD PUSH2 0x3172 DUP2 PUSH1 0x28 DUP5 ADD PUSH1 0x20 DUP9 ADD PUSH2 0x261B JUMP JUMPDEST ADD PUSH1 0x28 ADD SWAP5 SWAP4 POP POP POP POP JUMP JUMPDEST PUSH4 0x4E487B71 PUSH1 0xE0 SHL PUSH1 0x0 MSTORE PUSH1 0x31 PUSH1 0x4 MSTORE PUSH1 0x24 PUSH1 0x0 REVERT INVALID LOG2 PUSH5 0x6970667358 0x22 SLT KECCAK256 0x4C 0x2A 0x4B EXTCODECOPY SWAP8 0xD2 EXTCODESIZE 0xB7 DELEGATECALL SWAP5 0xE2 KECCAK256 0xDD LOG4 DUP5 CALLDATALOAD 0x4F PUSH29 0x3D42AE8658A0E9B433E01AC3B93464736F6C634300080900339F2DF0FE 0xD2 0xC7 PUSH23 0x48DE5860A4CC508CD0818C85B8B8A1AB4CEEEF8D981C89 JUMP 0xA6 "},"methodIdentifiers":{"DEFAULT_ADMIN_ROLE()":"a217fddf","MINTER_ROLE()":"d5391393","PAUSER_ROLE()":"e63ab1e9","allowance(address,address)":"dd62ed3e","approve(address,uint256)":"095ea7b3","balanceOf(address)":"70a08231","burn(uint256)":"42966c68","burnFrom(address,uint256)":"79cc6790","decimals()":"313ce567","decreaseAllowance(address,uint256)":"a457c2d7","execute(bytes32,string,string,bytes)":"49160658","executeWithToken(bytes32,string,string,bytes,string,uint256)":"1a98b2e0","gasReceiver()":"80d14b4a","gateway()":"116191b6","getRoleAdmin(bytes32)":"248a9ca3","getRoleMember(bytes32,uint256)":"9010d07c","getRoleMemberCount(bytes32)":"ca15c873","giveMe(uint256)":"44dee17f","grantRole(bytes32,address)":"2f2ff15d","hasRole(bytes32,address)":"91d14854","increaseAllowance(address,uint256)":"39509351","mint(address,uint256)":"40c10f19","name()":"06fdde03","pause()":"8456cb59","paused()":"5c975abb","renounceRole(bytes32,address)":"36568abe","revokeRole(bytes32,address)":"d547741f","sendGas(string,bytes)":"45700205","supportsInterface(bytes4)":"01ffc9a7","symbol()":"95d89b41","totalSupply()":"18160ddd","totalVotes(uint256)":"19e6e158","transfer(address,uint256)":"a9059cbb","transferFrom(address,address,uint256)":"23b872dd","transferRemote(string,string,address[],uint256[])":"ca597866","unpause()":"3f4ba83a","unvote(uint256,uint256,string,string)":"ba86093b","userVotes(address,uint256)":"8b3511f7","vote(uint256,uint256,string,string)":"7bb89072"}}}}}