{
  "_format": "hh-sol-artifact-1",
  "contractName": "MegaVoteMaster",
  "sourceName": "contracts/MegaVoteMaster.sol",
  "abi": [
    {
      "inputs": [
        {
          "internalType": "address",
          "name": "gateway_",
          "type": "address"
        }
      ],
      "stateMutability": "nonpayable",
      "type": "constructor"
    },
    {
      "inputs": [],
      "name": "InvalidAddress",
      "type": "error"
    },
    {
      "inputs": [],
      "name": "NotApprovedByGateway",
      "type": "error"
    },
    {
      "anonymous": false,
      "inputs": [
        {
          "indexed": false,
          "internalType": "uint256",
          "name": "campaignId",
          "type": "uint256"
        },
        {
          "indexed": false,
          "internalType": "string",
          "name": "campaignName",
          "type": "string"
        }
      ],
      "name": "CampaignCreated",
      "type": "event"
    },
    {
      "anonymous": false,
      "inputs": [
        {
          "indexed": true,
          "internalType": "address",
          "name": "previousOwner",
          "type": "address"
        },
        {
          "indexed": true,
          "internalType": "address",
          "name": "newOwner",
          "type": "address"
        }
      ],
      "name": "OwnershipTransferred",
      "type": "event"
    },
    {
      "inputs": [
        {
          "internalType": "string",
          "name": "sourceChain",
          "type": "string"
        },
        {
          "internalType": "string",
          "name": "sourceChainAddress",
          "type": "string"
        }
      ],
      "name": "addVoteToken",
      "outputs": [],
      "stateMutability": "nonpayable",
      "type": "function"
    },
    {
      "inputs": [
        {
          "internalType": "uint256",
          "name": "",
          "type": "uint256"
        }
      ],
      "name": "campaigns",
      "outputs": [
        {
          "internalType": "string",
          "name": "name",
          "type": "string"
        },
        {
          "internalType": "uint256",
          "name": "totalVotes",
          "type": "uint256"
        }
      ],
      "stateMutability": "view",
      "type": "function"
    },
    {
      "inputs": [
        {
          "internalType": "string",
          "name": "name",
          "type": "string"
        }
      ],
      "name": "createCampaign",
      "outputs": [],
      "stateMutability": "nonpayable",
      "type": "function"
    },
    {
      "inputs": [
        {
          "internalType": "bytes32",
          "name": "commandId",
          "type": "bytes32"
        },
        {
          "internalType": "string",
          "name": "sourceChain",
          "type": "string"
        },
        {
          "internalType": "string",
          "name": "sourceAddress",
          "type": "string"
        },
        {
          "internalType": "bytes",
          "name": "payload",
          "type": "bytes"
        }
      ],
      "name": "execute",
      "outputs": [],
      "stateMutability": "nonpayable",
      "type": "function"
    },
    {
      "inputs": [
        {
          "internalType": "bytes32",
          "name": "commandId",
          "type": "bytes32"
        },
        {
          "internalType": "string",
          "name": "sourceChain",
          "type": "string"
        },
        {
          "internalType": "string",
          "name": "sourceAddress",
          "type": "string"
        },
        {
          "internalType": "bytes",
          "name": "payload",
          "type": "bytes"
        },
        {
          "internalType": "string",
          "name": "tokenSymbol",
          "type": "string"
        },
        {
          "internalType": "uint256",
          "name": "amount",
          "type": "uint256"
        }
      ],
      "name": "executeWithToken",
      "outputs": [],
      "stateMutability": "nonpayable",
      "type": "function"
    },
    {
      "inputs": [],
      "name": "gateway",
      "outputs": [
        {
          "internalType": "contract IAxelarGateway",
          "name": "",
          "type": "address"
        }
      ],
      "stateMutability": "view",
      "type": "function"
    },
    {
      "inputs": [
        {
          "internalType": "uint256",
          "name": "campaignId",
          "type": "uint256"
        }
      ],
      "name": "getVotes",
      "outputs": [
        {
          "internalType": "uint256",
          "name": "totalVotes",
          "type": "uint256"
        }
      ],
      "stateMutability": "view",
      "type": "function"
    },
    {
      "inputs": [
        {
          "internalType": "string",
          "name": "sourceChain",
          "type": "string"
        },
        {
          "internalType": "string",
          "name": "sourceChainAddress",
          "type": "string"
        }
      ],
      "name": "isVoteToken",
      "outputs": [
        {
          "internalType": "bool",
          "name": "",
          "type": "bool"
        }
      ],
      "stateMutability": "view",
      "type": "function"
    },
    {
      "inputs": [],
      "name": "nextId",
      "outputs": [
        {
          "internalType": "uint256",
          "name": "",
          "type": "uint256"
        }
      ],
      "stateMutability": "view",
      "type": "function"
    },
    {
      "inputs": [],
      "name": "owner",
      "outputs": [
        {
          "internalType": "address",
          "name": "",
          "type": "address"
        }
      ],
      "stateMutability": "view",
      "type": "function"
    },
    {
      "inputs": [
        {
          "internalType": "string",
          "name": "sourceChain",
          "type": "string"
        },
        {
          "internalType": "string",
          "name": "sourceChainAddress",
          "type": "string"
        }
      ],
      "name": "removeVoteToken",
      "outputs": [],
      "stateMutability": "nonpayable",
      "type": "function"
    },
    {
      "inputs": [],
      "name": "renounceOwnership",
      "outputs": [],
      "stateMutability": "nonpayable",
      "type": "function"
    },
    {
      "inputs": [
        {
          "internalType": "address",
          "name": "newOwner",
          "type": "address"
        }
      ],
      "name": "transferOwnership",
      "outputs": [],
      "stateMutability": "nonpayable",
      "type": "function"
    },
    {
      "inputs": [
        {
          "internalType": "bytes",
          "name": "",
          "type": "bytes"
        }
      ],
      "name": "voteTokens",
      "outputs": [
        {
          "internalType": "bool",
          "name": "",
          "type": "bool"
        }
      ],
      "stateMutability": "view",
      "type": "function"
    }
  ],
  "bytecode": "0x60a0604052600060015534801561001557600080fd5b50604051611197380380611197833981016040819052610034916100c7565b806001600160a01b03811661005c5760405163e6c4247b60e01b815260040160405180910390fd5b6001600160a01b031660805261007133610077565b506100f7565b600080546001600160a01b038381166001600160a01b0319831681178455604051919092169283917f8be0079c531659141344cd1fd0a4f28419497f9722a3daafe3b4186f6b6457e09190a35050565b6000602082840312156100d957600080fd5b81516001600160a01b03811681146100f057600080fd5b9392505050565b608051611077610120600039600081816101370152818161035a01526104c201526110776000f3fe608060405234801561001057600080fd5b50600436106100ea5760003560e01c8063715018a61161008c578063c347624511610066578063c347624514610210578063f2fde38b14610223578063fdbf9ff114610236578063ff9810991461024957600080fd5b8063715018a6146101e45780638da5cb5b146101ec578063b84e5b76146101fd57600080fd5b80631a98b2e0116100c85780631a98b2e0146101925780632b1c3249146101a757806349160658146101ba57806361b8ce8c146101cd57600080fd5b806310c5f34e146100ef578063116191b614610132578063141961bc14610171575b600080fd5b61011d6100fd366004610a57565b805160208183018101805160038252928201919093012091525460ff1681565b60405190151581526020015b60405180910390f35b6101597f000000000000000000000000000000000000000000000000000000000000000081565b6040516001600160a01b039091168152602001610129565b61018461017f366004610aa8565b61026c565b604051610129929190610b1d565b6101a56101a0366004610b88565b610310565b005b6101a56101b5366004610c89565b61041b565b6101a56101c8366004610ced565b610478565b6101d660015481565b604051908152602001610129565b6101a5610588565b6000546001600160a01b0316610159565b6101a561020b366004610c89565b61059c565b61011d61021e366004610c89565b6105bb565b6101a5610231366004610d91565b610607565b6101a5610244366004610dba565b61069c565b6101d6610257366004610aa8565b60009081526002602052604090206001015490565b60026020526000908152604090208054819061028790610def565b80601f01602080910402602001604051908101604052809291908181526020018280546102b390610def565b80156103005780601f106102d557610100808354040283529160200191610300565b820191906000526020600020905b8154815290600101906020018083116102e357829003601f168201915b5050505050908060010154905082565b60008585604051610322929190610e2a565b6040519081900381207f1876eed900000000000000000000000000000000000000000000000000000000825291506001600160a01b037f00000000000000000000000000000000000000000000000000000000000000001690631876eed99061039f908e908e908e908e908e9089908d908d908d90600401610e63565b602060405180830381600087803b1580156103b957600080fd5b505af11580156103cd573d6000803e3d6000fd5b505050506040513d601f19601f820116820180604052508101906103f19190610ed0565b61040e57604051631403112d60e21b815260040160405180910390fd5b5050505050505050505050565b61042361073f565b60006003838360405160200161043a929190610eed565b60408051601f198184030181529082905261045491610f1b565b908152604051908190036020019020805491151560ff199092169190911790555050565b6000828260405161048a929190610e2a565b6040519081900381207f5f6970c300000000000000000000000000000000000000000000000000000000825291506001600160a01b037f00000000000000000000000000000000000000000000000000000000000000001690635f6970c390610501908b908b908b908b908b908990600401610f37565b602060405180830381600087803b15801561051b57600080fd5b505af115801561052f573d6000803e3d6000fd5b505050506040513d601f19601f820116820180604052508101906105539190610ed0565b61057057604051631403112d60e21b815260040160405180910390fd5b61057e878787878787610799565b5050505050505050565b61059061073f565b61059a60006108ca565b565b6105a461073f565b60016003838360405160200161043a929190610eed565b6000600383836040516020016105d2929190610eed565b60408051601f19818403018152908290526105ec91610f1b565b9081526040519081900360200190205460ff16905092915050565b61060f61073f565b6001600160a01b0381166106905760405162461bcd60e51b815260206004820152602660248201527f4f776e61626c653a206e6577206f776e657220697320746865207a65726f206160448201527f646472657373000000000000000000000000000000000000000000000000000060648201526084015b60405180910390fd5b610699816108ca565b50565b6040805180820182528281526000602080830182905260015482526002815292902081518051929391926106d39284920190610932565b5060209190910151600191820155546040517ff30699bdb24205cccfa4c938cf649e4130f8da78ef6165b3b156a559a398a5dc91610712918490610f78565b60405180910390a1600180600082825461072c9190610fa7565b909155505050565b505050505050505050565b6000546001600160a01b0316331461059a5760405162461bcd60e51b815260206004820181905260248201527f4f776e61626c653a2063616c6c6572206973206e6f7420746865206f776e65726044820152606401610687565b6003868686866040516020016107b29493929190610fbf565b60408051601f19818403018152908290526107cc91610f1b565b9081526040519081900360200190205460ff166108515760405162461bcd60e51b815260206004820152602360248201527f536f7572636520636f6e7472616374206d7573742062652077686974656c697360448201527f74656400000000000000000000000000000000000000000000000000000000006064820152608401610687565b6000808061086184860186610ff1565b9250925092508015610899576000838152600260205260408120600101805484929061088e908490610fa7565b909155506107349050565b600083815260026020526040812060010180548492906108ba90849061102a565b9091555050505050505050505050565b600080546001600160a01b038381167fffffffffffffffffffffffff0000000000000000000000000000000000000000831681178455604051919092169283917f8be0079c531659141344cd1fd0a4f28419497f9722a3daafe3b4186f6b6457e09190a35050565b82805461093e90610def565b90600052602060002090601f01602090048101928261096057600085556109a6565b82601f1061097957805160ff19168380011785556109a6565b828001600101855582156109a6579182015b828111156109a657825182559160200191906001019061098b565b506109b29291506109b6565b5090565b5b808211156109b257600081556001016109b7565b634e487b7160e01b600052604160045260246000fd5b600067ffffffffffffffff808411156109fc576109fc6109cb565b604051601f8501601f19908116603f01168101908282118183101715610a2457610a246109cb565b81604052809350858152868686011115610a3d57600080fd5b858560208301376000602087830101525050509392505050565b600060208284031215610a6957600080fd5b813567ffffffffffffffff811115610a8057600080fd5b8201601f81018413610a9157600080fd5b610aa0848235602084016109e1565b949350505050565b600060208284031215610aba57600080fd5b5035919050565b60005b83811015610adc578181015183820152602001610ac4565b83811115610aeb576000848401525b50505050565b60008151808452610b09816020860160208601610ac1565b601f01601f19169290920160200192915050565b604081526000610b306040830185610af1565b90508260208301529392505050565b60008083601f840112610b5157600080fd5b50813567ffffffffffffffff811115610b6957600080fd5b602083019150836020828501011115610b8157600080fd5b9250929050565b60008060008060008060008060008060c08b8d031215610ba757600080fd5b8a35995060208b013567ffffffffffffffff80821115610bc657600080fd5b610bd28e838f01610b3f565b909b50995060408d0135915080821115610beb57600080fd5b610bf78e838f01610b3f565b909950975060608d0135915080821115610c1057600080fd5b610c1c8e838f01610b3f565b909750955060808d0135915080821115610c3557600080fd5b50610c428d828e01610b3f565b9150809450508092505060a08b013590509295989b9194979a5092959850565b600082601f830112610c7357600080fd5b610c82838335602085016109e1565b9392505050565b60008060408385031215610c9c57600080fd5b823567ffffffffffffffff80821115610cb457600080fd5b610cc086838701610c62565b93506020850135915080821115610cd657600080fd5b50610ce385828601610c62565b9150509250929050565b60008060008060008060006080888a031215610d0857600080fd5b87359650602088013567ffffffffffffffff80821115610d2757600080fd5b610d338b838c01610b3f565b909850965060408a0135915080821115610d4c57600080fd5b610d588b838c01610b3f565b909650945060608a0135915080821115610d7157600080fd5b50610d7e8a828b01610b3f565b989b979a50959850939692959293505050565b600060208284031215610da357600080fd5b81356001600160a01b0381168114610c8257600080fd5b600060208284031215610dcc57600080fd5b813567ffffffffffffffff811115610de357600080fd5b610aa084828501610c62565b600181811c90821680610e0357607f821691505b60208210811415610e2457634e487b7160e01b600052602260045260246000fd5b50919050565b8183823760009101908152919050565b81835281816020850137506000828201602090810191909152601f909101601f19169091010190565b89815260c060208201526000610e7d60c083018a8c610e3a565b8281036040840152610e9081898b610e3a565b90508660608401528281036080840152610eab818688610e3a565b9150508260a08301529a9950505050505050505050565b801515811461069957600080fd5b600060208284031215610ee257600080fd5b8151610c8281610ec2565b604081526000610f006040830185610af1565b8281036020840152610f128185610af1565b95945050505050565b60008251610f2d818460208701610ac1565b9190910192915050565b868152608060208201526000610f51608083018789610e3a565b8281036040840152610f64818688610e3a565b915050826060830152979650505050505050565b828152604060208201526000610aa06040830184610af1565b634e487b7160e01b600052601160045260246000fd5b60008219821115610fba57610fba610f91565b500190565b604081526000610fd3604083018688610e3a565b8281036020840152610fe6818587610e3a565b979650505050505050565b60008060006060848603121561100657600080fd5b8335925060208401359150604084013561101f81610ec2565b809150509250925092565b60008282101561103c5761103c610f91565b50039056fea2646970667358221220cd9af9f4baf764a91ea6eed3f867093e29cfaf89a6d5389a24b871c7a2f4cb1964736f6c63430008090033",
  "linkReferences": {},
  "deployedLinkReferences": {}
}